{
  "transactions": [
    {
      "hash": "0xca15603150c080651a8d8d53e9df37b7923106e6da6eed533fbd76ab8a594549",
      "transactionType": "CREATE",
      "contractName": "SpokeVault",
      "contractAddress": "0xbc1e1838889a9458acd7bb3378b489ce5e1d2c1a",
      "function": null,
      "arguments": [
        "0x36f586A30502AE3afb555b8aA4dCc05d233c2ecE",
        "0xd7298f620B0F752Cf41BD818a16C756d9dCAA34f",
        "1",
        "0xF2f1ACbe0BA726fEE8d75f3E32900526874740BB"
      ],
      "transaction": {
        "from": "0xf2f1acbe0ba726fee8d75f3e32900526874740bb",
        "gas": "0xa9e09",
        "value": "0x0",
        "input": "0x610120604052348015610010575f80fd5b50604051610abb380380610abb83398101604081905261002f9161016e565b6001600160a01b03841661010081905261005c5760405163328923df60e21b815260040160405180910390fd5b6001600160a01b03831660e08190526100885760405163deb9faeb60e01b815260040160405180910390fd5b8160a0818152505f036100ae57604051631ae3955b60e31b815260040160405180910390fd5b6001600160a01b03811660808190526100da5760405163ea0b51bb60e01b815260040160405180910390fd5b610100516001600160a01b031663c3b6f9396040518163ffffffff1660e01b8152600401602060405180830381865afa158015610119573d5f803e3d5ffd5b505050506040513d601f19601f8201168201806040525081019061013d91906101b8565b6001600160a01b031660c052506101d892505050565b80516001600160a01b0381168114610169575f80fd5b919050565b5f805f8060808587031215610181575f80fd5b61018a85610153565b935061019860208601610153565b9250604085015191506101ad60608601610153565b905092959194509250565b5f602082840312156101c8575f80fd5b6101d182610153565b9392505050565b60805160a05160c05160e0516101005161087c61023f5f395f81816101a8015261034b01525f81816101db015261045301525f818161020e01528181610296015261037c01525f8181610175015261041801525f818161012c0152610536015261087c5ff3fe608060405260043610610096575f3560e01c8063929f584011610066578063ba19131e1161004c578063ba19131e146101ca578063c3b6f939146101fd578063ce5494bb14610230575f80fd5b8063929f584014610164578063a640c1c814610197575f80fd5b80630fd82e3b146100a15780635c60da1b146100c757806374df25581461011b5780638fd3ab801461014e575f80fd5b3661009d57005b5f80fd5b6100b46100af3660046107d6565b61024f565b6040519081526020015b60405180910390f35b3480156100d2575f80fd5b507f360894a13ba1a3210667c828492db98dca3e2076cc3735a920a3ca505d382bbc545b60405173ffffffffffffffffffffffffffffffffffffffff90911681526020016100be565b348015610126575f80fd5b506100f67f000000000000000000000000000000000000000000000000000000000000000081565b348015610159575f80fd5b50610162610513565b005b34801561016f575f80fd5b506100b47f000000000000000000000000000000000000000000000000000000000000000081565b3480156101a2575f80fd5b506100f67f000000000000000000000000000000000000000000000000000000000000000081565b3480156101d5575f80fd5b506100f67f000000000000000000000000000000000000000000000000000000000000000081565b348015610208575f80fd5b506100f67f000000000000000000000000000000000000000000000000000000000000000081565b34801561023b575f80fd5b5061016261024a3660046107d6565b61051e565b6040517f70a082310000000000000000000000000000000000000000000000000000000081523060048201525f90819073ffffffffffffffffffffffffffffffffffffffff7f000000000000000000000000000000000000000000000000000000000000000016906370a0823190602401602060405180830381865afa1580156102db573d5f803e3d5ffd5b505050506040513d601f19601f820116820180604052508101906102ff9190610810565b9050805f0361030e5750919050565b6040517f095ea7b300000000000000000000000000000000000000000000000000000000815273ffffffffffffffffffffffffffffffffffffffff7f0000000000000000000000000000000000000000000000000000000000000000818116600484015260248301849052917f00000000000000000000000000000000000000000000000000000000000000009091169063095ea7b3906044016020604051808303815f875af11580156103c4573d5f803e3d5ffd5b505050506040513d601f19601f820116820180604052508101906103e89190610827565b506040517f08d11ceb000000000000000000000000000000000000000000000000000000008152600481018390527f0000000000000000000000000000000000000000000000000000000000000000602482015273ffffffffffffffffffffffffffffffffffffffff7f00000000000000000000000000000000000000000000000000000000000000008116604483015285811660648301528216906308d11ceb90349060840160206040518083038185885af11580156104ab573d5f803e3d5ffd5b50505050506040513d601f19601f820116820180604052508101906104d09190610810565b60408051848152602081018390529194507f150f183b90706f8bcb1e743821f7b880f2f10e814b776c0e7e79c54f3bc8be7f910160405180910390a15050919050565b61051c5f610599565b565b3373ffffffffffffffffffffffffffffffffffffffff7f0000000000000000000000000000000000000000000000000000000000000000161461058d576040517f51e2625e00000000000000000000000000000000000000000000000000000000815260040160405180910390fd5b61059681610599565b50565b73ffffffffffffffffffffffffffffffffffffffff81166105e6576040517f0d626a3200000000000000000000000000000000000000000000000000000000815260040160405180910390fd5b8073ffffffffffffffffffffffffffffffffffffffff163b5f03610636576040517f8d1e7cf400000000000000000000000000000000000000000000000000000000815260040160405180910390fd5b5f61065f7f360894a13ba1a3210667c828492db98dca3e2076cc3735a920a3ca505d382bbc5490565b90505f8273ffffffffffffffffffffffffffffffffffffffff166040515f60405180830381855af49150503d805f81146106b4576040519150601f19603f3d011682016040523d82523d5f602084013e6106b9565b606091505b50509050806106f4576040517fa27bfda200000000000000000000000000000000000000000000000000000000815260040160405180910390fd5b5f61071d7f360894a13ba1a3210667c828492db98dca3e2076cc3735a920a3ca505d382bbc5490565b90508073ffffffffffffffffffffffffffffffffffffffff168373ffffffffffffffffffffffffffffffffffffffff168573ffffffffffffffffffffffffffffffffffffffff167fe1b831b0e6f3aa16b4b1a6bd526b5cdeab4940744ca6e0251f5fe5f8caf1c81a60405160405180910390a460405173ffffffffffffffffffffffffffffffffffffffff8216907fbc7cd75a20ee27fd9adebab32041f755214dbc6bffa90cc0225b39da2e5c2d3b905f90a250505050565b5f602082840312156107e6575f80fd5b813573ffffffffffffffffffffffffffffffffffffffff81168114610809575f80fd5b9392505050565b5f60208284031215610820575f80fd5b5051919050565b5f60208284031215610837575f80fd5b81518015158114610809575f80fdfea2646970667358221220d909689df1c8acf2d616c9a442be2822c9f8bbe8c8e5a72af4bbdd2005e1dd8764736f6c634300081a003300000000000000000000000036f586a30502ae3afb555b8aa4dcc05d233c2ece000000000000000000000000d7298f620b0f752cf41bd818a16c756d9dcaa34f0000000000000000000000000000000000000000000000000000000000000001000000000000000000000000f2f1acbe0ba726fee8d75f3e32900526874740bb",
        "nonce": "0xc",
        "chainId": "0x18232"
      },
      "additionalContracts": [],
      "isFixedGasLimit": false
    },
    {
      "hash": "0x380e2c266461defc028959f89b8d1b58e0776ee0e9400d4aab7c6feef041e698",
      "transactionType": "CALL",
      "contractName": null,
      "contractAddress": "0xba5ed099633d3b313e4d5f7bdc1305d3c28ba5ed",
      "function": "deployCreate3(bytes32,bytes)",
      "arguments": [
        "0xf2f1acbe0ba726fee8d75f3e32900526874740bb008d03f8e727eaf836840d08",
        "0x60806040526040516103dd3803806103dd8339810160408190526100229161023c565b61002c8282610033565b5050610321565b61003c82610091565b6040516001600160a01b038316907fbc7cd75a20ee27fd9adebab32041f755214dbc6bffa90cc0225b39da2e5c2d3b905f90a280511561008557610080828261010c565b505050565b61008d61017f565b5050565b806001600160a01b03163b5f036100cb57604051634c9c8ce360e01b81526001600160a01b03821660048201526024015b60405180910390fd5b7f360894a13ba1a3210667c828492db98dca3e2076cc3735a920a3ca505d382bbc80546001600160a01b0319166001600160a01b0392909216919091179055565b60605f80846001600160a01b031684604051610128919061030b565b5f60405180830381855af49150503d805f8114610160576040519150601f19603f3d011682016040523d82523d5f602084013e610165565b606091505b5090925090506101768583836101a0565b95945050505050565b341561019e5760405163b398979f60e01b815260040160405180910390fd5b565b6060826101b5576101b0826101ff565b6101f8565b81511580156101cc57506001600160a01b0384163b155b156101f557604051639996b31560e01b81526001600160a01b03851660048201526024016100c2565b50805b9392505050565b80511561020f5780518082602001fd5b60405163d6bda27560e01b815260040160405180910390fd5b634e487b7160e01b5f52604160045260245ffd5b5f806040838503121561024d575f80fd5b82516001600160a01b0381168114610263575f80fd5b60208401519092506001600160401b0381111561027e575f80fd5b8301601f8101851361028e575f80fd5b80516001600160401b038111156102a7576102a7610228565b604051601f8201601f19908116603f011681016001600160401b03811182821017156102d5576102d5610228565b6040528181528282016020018710156102ec575f80fd5b8160208401602083015e5f602083830101528093505050509250929050565b5f82518060208501845e5f920191825250919050565b60b08061032d5f395ff3fe6080604052600a600c565b005b60186014601a565b605d565b565b5f60587f360894a13ba1a3210667c828492db98dca3e2076cc3735a920a3ca505d382bbc5473ffffffffffffffffffffffffffffffffffffffff1690565b905090565b365f80375f80365f845af43d5f803e8080156076573d5ff35b3d5ffdfea2646970667358221220235077aeb2ddadd8a33ba3e240b110e0341538b2f43ca3e7c2c8d7794680257a64736f6c634300081a0033000000000000000000000000bc1e1838889a9458acd7bb3378b489ce5e1d2c1a00000000000000000000000000000000000000000000000000000000000000400000000000000000000000000000000000000000000000000000000000000000"
      ],
      "transaction": {
        "from": "0xf2f1acbe0ba726fee8d75f3e32900526874740bb",
        "to": "0xba5ed099633d3b313e4d5f7bdc1305d3c28ba5ed",
        "gas": "0x3a84c",
        "value": "0x0",
        "input": "0x9c36a286f2f1acbe0ba726fee8d75f3e32900526874740bb008d03f8e727eaf836840d080000000000000000000000000000000000000000000000000000000000000040000000000000000000000000000000000000000000000000000000000000043d60806040526040516103dd3803806103dd8339810160408190526100229161023c565b61002c8282610033565b5050610321565b61003c82610091565b6040516001600160a01b038316907fbc7cd75a20ee27fd9adebab32041f755214dbc6bffa90cc0225b39da2e5c2d3b905f90a280511561008557610080828261010c565b505050565b61008d61017f565b5050565b806001600160a01b03163b5f036100cb57604051634c9c8ce360e01b81526001600160a01b03821660048201526024015b60405180910390fd5b7f360894a13ba1a3210667c828492db98dca3e2076cc3735a920a3ca505d382bbc80546001600160a01b0319166001600160a01b0392909216919091179055565b60605f80846001600160a01b031684604051610128919061030b565b5f60405180830381855af49150503d805f8114610160576040519150601f19603f3d011682016040523d82523d5f602084013e610165565b606091505b5090925090506101768583836101a0565b95945050505050565b341561019e5760405163b398979f60e01b815260040160405180910390fd5b565b6060826101b5576101b0826101ff565b6101f8565b81511580156101cc57506001600160a01b0384163b155b156101f557604051639996b31560e01b81526001600160a01b03851660048201526024016100c2565b50805b9392505050565b80511561020f5780518082602001fd5b60405163d6bda27560e01b815260040160405180910390fd5b634e487b7160e01b5f52604160045260245ffd5b5f806040838503121561024d575f80fd5b82516001600160a01b0381168114610263575f80fd5b60208401519092506001600160401b0381111561027e575f80fd5b8301601f8101851361028e575f80fd5b80516001600160401b038111156102a7576102a7610228565b604051601f8201601f19908116603f011681016001600160401b03811182821017156102d5576102d5610228565b6040528181528282016020018710156102ec575f80fd5b8160208401602083015e5f602083830101528093505050509250929050565b5f82518060208501845e5f920191825250919050565b60b08061032d5f395ff3fe6080604052600a600c565b005b60186014601a565b605d565b565b5f60587f360894a13ba1a3210667c828492db98dca3e2076cc3735a920a3ca505d382bbc5473ffffffffffffffffffffffffffffffffffffffff1690565b905090565b365f80375f80365f845af43d5f803e8080156076573d5ff35b3d5ffdfea2646970667358221220235077aeb2ddadd8a33ba3e240b110e0341538b2f43ca3e7c2c8d7794680257a64736f6c634300081a0033000000000000000000000000bc1e1838889a9458acd7bb3378b489ce5e1d2c1a00000000000000000000000000000000000000000000000000000000000000400000000000000000000000000000000000000000000000000000000000000000000000",
        "nonce": "0xd",
        "chainId": "0x18232"
      },
      "additionalContracts": [
        {
          "transactionType": "CREATE2",
          "address": "0x0a38ab7e6729a0b8ff1248decfe2c6fd3ed28c21",
          "initCode": "0x67363d3d37363d34f03d5260086018f3"
        },
        {
          "transactionType": "CREATE",
          "address": "0x3349e443068f76666789c4f76f00d9c4f38a4dde",
          "initCode": "0x60806040526040516103dd3803806103dd8339810160408190526100229161023c565b61002c8282610033565b5050610321565b61003c82610091565b6040516001600160a01b038316907fbc7cd75a20ee27fd9adebab32041f755214dbc6bffa90cc0225b39da2e5c2d3b905f90a280511561008557610080828261010c565b505050565b61008d61017f565b5050565b806001600160a01b03163b5f036100cb57604051634c9c8ce360e01b81526001600160a01b03821660048201526024015b60405180910390fd5b7f360894a13ba1a3210667c828492db98dca3e2076cc3735a920a3ca505d382bbc80546001600160a01b0319166001600160a01b0392909216919091179055565b60605f80846001600160a01b031684604051610128919061030b565b5f60405180830381855af49150503d805f8114610160576040519150601f19603f3d011682016040523d82523d5f602084013e610165565b606091505b5090925090506101768583836101a0565b95945050505050565b341561019e5760405163b398979f60e01b815260040160405180910390fd5b565b6060826101b5576101b0826101ff565b6101f8565b81511580156101cc57506001600160a01b0384163b155b156101f557604051639996b31560e01b81526001600160a01b03851660048201526024016100c2565b50805b9392505050565b80511561020f5780518082602001fd5b60405163d6bda27560e01b815260040160405180910390fd5b634e487b7160e01b5f52604160045260245ffd5b5f806040838503121561024d575f80fd5b82516001600160a01b0381168114610263575f80fd5b60208401519092506001600160401b0381111561027e575f80fd5b8301601f8101851361028e575f80fd5b80516001600160401b038111156102a7576102a7610228565b604051601f8201601f19908116603f011681016001600160401b03811182821017156102d5576102d5610228565b6040528181528282016020018710156102ec575f80fd5b8160208401602083015e5f602083830101528093505050509250929050565b5f82518060208501845e5f920191825250919050565b60b08061032d5f395ff3fe6080604052600a600c565b005b60186014601a565b605d565b565b5f60587f360894a13ba1a3210667c828492db98dca3e2076cc3735a920a3ca505d382bbc5473ffffffffffffffffffffffffffffffffffffffff1690565b905090565b365f80375f80365f845af43d5f803e8080156076573d5ff35b3d5ffdfea2646970667358221220235077aeb2ddadd8a33ba3e240b110e0341538b2f43ca3e7c2c8d7794680257a64736f6c634300081a0033000000000000000000000000bc1e1838889a9458acd7bb3378b489ce5e1d2c1a00000000000000000000000000000000000000000000000000000000000000400000000000000000000000000000000000000000000000000000000000000000"
        }
      ],
      "isFixedGasLimit": false
    },
    {
      "hash": "0x7c45d8e988399e8972ae413283997c41edbd90fa7875f5087b070b942047e890",
      "transactionType": "CALL",
      "contractName": null,
      "contractAddress": "0xf2f1acbe0ba726fee8d75f3e32900526874740bb",
      "function": null,
      "arguments": null,
      "transaction": {
        "from": "0xf2f1acbe0ba726fee8d75f3e32900526874740bb",
        "to": "0xf2f1acbe0ba726fee8d75f3e32900526874740bb",
        "gas": "0x714d",
        "value": "0x0",
        "input": "0x",
        "nonce": "0xe",
        "chainId": "0x18232"
      },
      "additionalContracts": [],
      "isFixedGasLimit": false
    },
    {
      "hash": "0x676587148c6090d06cd5469a8ad8d6ec55c5a0073dbbf18b20ff4eb6a976f2d5",
      "transactionType": "CALL",
      "contractName": null,
      "contractAddress": "0xf2f1acbe0ba726fee8d75f3e32900526874740bb",
      "function": null,
      "arguments": null,
      "transaction": {
        "from": "0xf2f1acbe0ba726fee8d75f3e32900526874740bb",
        "to": "0xf2f1acbe0ba726fee8d75f3e32900526874740bb",
        "gas": "0x714d",
        "value": "0x0",
        "input": "0x",
        "nonce": "0xf",
        "chainId": "0x18232"
      },
      "additionalContracts": [],
      "isFixedGasLimit": false
    },
    {
      "hash": "0x61d2845616043a44b67f3aa5c211bf386379cd85f4c1f52d78eb84dd15a1ffa1",
      "transactionType": "CALL",
      "contractName": null,
      "contractAddress": "0xf2f1acbe0ba726fee8d75f3e32900526874740bb",
      "function": null,
      "arguments": null,
      "transaction": {
        "from": "0xf2f1acbe0ba726fee8d75f3e32900526874740bb",
        "to": "0xf2f1acbe0ba726fee8d75f3e32900526874740bb",
        "gas": "0x714d",
        "value": "0x0",
        "input": "0x",
        "nonce": "0x10",
        "chainId": "0x18232"
      },
      "additionalContracts": [],
      "isFixedGasLimit": false
    },
    {
      "hash": "0x9bad86d9751d3efe203471d3e063e9b2da0c14761eaf78e009eb2a98c151437b",
      "transactionType": "CALL",
      "contractName": null,
      "contractAddress": "0xf2f1acbe0ba726fee8d75f3e32900526874740bb",
      "function": null,
      "arguments": null,
      "transaction": {
        "from": "0xf2f1acbe0ba726fee8d75f3e32900526874740bb",
        "to": "0xf2f1acbe0ba726fee8d75f3e32900526874740bb",
        "gas": "0x714d",
        "value": "0x0",
        "input": "0x",
        "nonce": "0x11",
        "chainId": "0x18232"
      },
      "additionalContracts": [],
      "isFixedGasLimit": false
    },
    {
      "hash": "0xf837cb262ddbfdf71027b056a521ab3fe4229517c5c2ea6d469c84a2c8f18a20",
      "transactionType": "CALL",
      "contractName": null,
      "contractAddress": "0xf2f1acbe0ba726fee8d75f3e32900526874740bb",
      "function": null,
      "arguments": null,
      "transaction": {
        "from": "0xf2f1acbe0ba726fee8d75f3e32900526874740bb",
        "to": "0xf2f1acbe0ba726fee8d75f3e32900526874740bb",
        "gas": "0x714d",
        "value": "0x0",
        "input": "0x",
        "nonce": "0x12",
        "chainId": "0x18232"
      },
      "additionalContracts": [],
      "isFixedGasLimit": false
    },
    {
      "hash": "0x33affe4c70f43326b9fcab67fca1121e187078f2e7ec2779db6c68c396377885",
      "transactionType": "CALL",
      "contractName": null,
      "contractAddress": "0xf2f1acbe0ba726fee8d75f3e32900526874740bb",
      "function": null,
      "arguments": null,
      "transaction": {
        "from": "0xf2f1acbe0ba726fee8d75f3e32900526874740bb",
        "to": "0xf2f1acbe0ba726fee8d75f3e32900526874740bb",
        "gas": "0x714d",
        "value": "0x0",
        "input": "0x",
        "nonce": "0x13",
        "chainId": "0x18232"
      },
      "additionalContracts": [],
      "isFixedGasLimit": false
    },
    {
      "hash": "0xaf7fed7318ca199da018b6a73f16c49f2e67bff56ec3b134a3317756ed662576",
      "transactionType": "CALL",
      "contractName": null,
      "contractAddress": "0xf2f1acbe0ba726fee8d75f3e32900526874740bb",
      "function": null,
      "arguments": null,
      "transaction": {
        "from": "0xf2f1acbe0ba726fee8d75f3e32900526874740bb",
        "to": "0xf2f1acbe0ba726fee8d75f3e32900526874740bb",
        "gas": "0x714d",
        "value": "0x0",
        "input": "0x",
        "nonce": "0x14",
        "chainId": "0x18232"
      },
      "additionalContracts": [],
      "isFixedGasLimit": false
    },
    {
      "hash": "0x9b33d0443697f5a9afc0e104acca3e50ec5d46c5417bdeff40aed59c31815022",
      "transactionType": "CALL",
      "contractName": null,
      "contractAddress": "0xf2f1acbe0ba726fee8d75f3e32900526874740bb",
      "function": null,
      "arguments": null,
      "transaction": {
        "from": "0xf2f1acbe0ba726fee8d75f3e32900526874740bb",
        "to": "0xf2f1acbe0ba726fee8d75f3e32900526874740bb",
        "gas": "0x714d",
        "value": "0x0",
        "input": "0x",
        "nonce": "0x15",
        "chainId": "0x18232"
      },
      "additionalContracts": [],
      "isFixedGasLimit": false
    },
    {
      "hash": "0x52a4f12da0ea5d1e1c2fe9167b1df213395d9590ad6bdc5a245d3a30899c7fc4",
      "transactionType": "CALL",
      "contractName": null,
      "contractAddress": "0xf2f1acbe0ba726fee8d75f3e32900526874740bb",
      "function": null,
      "arguments": null,
      "transaction": {
        "from": "0xf2f1acbe0ba726fee8d75f3e32900526874740bb",
        "to": "0xf2f1acbe0ba726fee8d75f3e32900526874740bb",
        "gas": "0x714d",
        "value": "0x0",
        "input": "0x",
        "nonce": "0x16",
        "chainId": "0x18232"
      },
      "additionalContracts": [],
      "isFixedGasLimit": false
    },
    {
      "hash": "0x9718f7784bfdfc5837d48db4adafeebc7f5277cf6c1720afa06d01761df9ffa1",
      "transactionType": "CALL",
      "contractName": null,
      "contractAddress": "0xf2f1acbe0ba726fee8d75f3e32900526874740bb",
      "function": null,
      "arguments": null,
      "transaction": {
        "from": "0xf2f1acbe0ba726fee8d75f3e32900526874740bb",
        "to": "0xf2f1acbe0ba726fee8d75f3e32900526874740bb",
        "gas": "0x714d",
        "value": "0x0",
        "input": "0x",
        "nonce": "0x17",
        "chainId": "0x18232"
      },
      "additionalContracts": [],
      "isFixedGasLimit": false
    },
    {
      "hash": "0xc022287a01b20dd654fbdd79b28b84005c9f3a3479d5c6e541420f901237a7c1",
      "transactionType": "CALL",
      "contractName": null,
      "contractAddress": "0xf2f1acbe0ba726fee8d75f3e32900526874740bb",
      "function": null,
      "arguments": null,
      "transaction": {
        "from": "0xf2f1acbe0ba726fee8d75f3e32900526874740bb",
        "to": "0xf2f1acbe0ba726fee8d75f3e32900526874740bb",
        "gas": "0x714d",
        "value": "0x0",
        "input": "0x",
        "nonce": "0x18",
        "chainId": "0x18232"
      },
      "additionalContracts": [],
      "isFixedGasLimit": false
    },
    {
      "hash": "0x14b56ea9ae9be1e0598e7d1c8839a60f665001b2e91d9e26f2cff8880d7efb37",
      "transactionType": "CALL",
      "contractName": null,
      "contractAddress": "0xf2f1acbe0ba726fee8d75f3e32900526874740bb",
      "function": null,
      "arguments": null,
      "transaction": {
        "from": "0xf2f1acbe0ba726fee8d75f3e32900526874740bb",
        "to": "0xf2f1acbe0ba726fee8d75f3e32900526874740bb",
        "gas": "0x714d",
        "value": "0x0",
        "input": "0x",
        "nonce": "0x19",
        "chainId": "0x18232"
      },
      "additionalContracts": [],
      "isFixedGasLimit": false
    },
    {
      "hash": "0xa470a5cc5a0bd3965b2c36d47df5ba761ca7edc536beb956fa7066b070c2cc5d",
      "transactionType": "CALL",
      "contractName": null,
      "contractAddress": "0xf2f1acbe0ba726fee8d75f3e32900526874740bb",
      "function": null,
      "arguments": null,
      "transaction": {
        "from": "0xf2f1acbe0ba726fee8d75f3e32900526874740bb",
        "to": "0xf2f1acbe0ba726fee8d75f3e32900526874740bb",
        "gas": "0x714d",
        "value": "0x0",
        "input": "0x",
        "nonce": "0x1a",
        "chainId": "0x18232"
      },
      "additionalContracts": [],
      "isFixedGasLimit": false
    },
    {
      "hash": "0xb599e30b06796874eecd88357c5c5666dce568c0401754fa2d3c9462a6008de3",
      "transactionType": "CALL",
      "contractName": null,
      "contractAddress": "0xf2f1acbe0ba726fee8d75f3e32900526874740bb",
      "function": null,
      "arguments": null,
      "transaction": {
        "from": "0xf2f1acbe0ba726fee8d75f3e32900526874740bb",
        "to": "0xf2f1acbe0ba726fee8d75f3e32900526874740bb",
        "gas": "0x714d",
        "value": "0x0",
        "input": "0x",
        "nonce": "0x1b",
        "chainId": "0x18232"
      },
      "additionalContracts": [],
      "isFixedGasLimit": false
    },
    {
      "hash": "0x4ffb7b7da19bf30eda6ab409a8a53f0875e7baad4a51864ba1781444942453db",
      "transactionType": "CALL",
      "contractName": null,
      "contractAddress": "0xf2f1acbe0ba726fee8d75f3e32900526874740bb",
      "function": null,
      "arguments": null,
      "transaction": {
        "from": "0xf2f1acbe0ba726fee8d75f3e32900526874740bb",
        "to": "0xf2f1acbe0ba726fee8d75f3e32900526874740bb",
        "gas": "0x714d",
        "value": "0x0",
        "input": "0x",
        "nonce": "0x1c",
        "chainId": "0x18232"
      },
      "additionalContracts": [],
      "isFixedGasLimit": false
    },
    {
      "hash": "0x67b9f721eeecefb240d08931437e431a3e71ccad90cee722d8479bcdfeb45161",
      "transactionType": "CALL",
      "contractName": null,
      "contractAddress": "0xf2f1acbe0ba726fee8d75f3e32900526874740bb",
      "function": null,
      "arguments": null,
      "transaction": {
        "from": "0xf2f1acbe0ba726fee8d75f3e32900526874740bb",
        "to": "0xf2f1acbe0ba726fee8d75f3e32900526874740bb",
        "gas": "0x714d",
        "value": "0x0",
        "input": "0x",
        "nonce": "0x1d",
        "chainId": "0x18232"
      },
      "additionalContracts": [],
      "isFixedGasLimit": false
    },
    {
      "hash": "0x1dfebaf5ca5b12d18a4133db116ca14807e774644515d9424f379028126d4eba",
      "transactionType": "CALL",
      "contractName": null,
      "contractAddress": "0xf2f1acbe0ba726fee8d75f3e32900526874740bb",
      "function": null,
      "arguments": null,
      "transaction": {
        "from": "0xf2f1acbe0ba726fee8d75f3e32900526874740bb",
        "to": "0xf2f1acbe0ba726fee8d75f3e32900526874740bb",
        "gas": "0x714d",
        "value": "0x0",
        "input": "0x",
        "nonce": "0x1e",
        "chainId": "0x18232"
      },
      "additionalContracts": [],
      "isFixedGasLimit": false
    },
    {
      "hash": "0x5cfa6bc98851486d4e45679986aa3b06c0633517b3760540a900f0f98716b940",
      "transactionType": "CALL",
      "contractName": null,
      "contractAddress": "0xf2f1acbe0ba726fee8d75f3e32900526874740bb",
      "function": null,
      "arguments": null,
      "transaction": {
        "from": "0xf2f1acbe0ba726fee8d75f3e32900526874740bb",
        "to": "0xf2f1acbe0ba726fee8d75f3e32900526874740bb",
        "gas": "0x714d",
        "value": "0x0",
        "input": "0x",
        "nonce": "0x1f",
        "chainId": "0x18232"
      },
      "additionalContracts": [],
      "isFixedGasLimit": false
    },
    {
      "hash": "0xb6c07174258d405f70a6e82a643d93e6c1f61f42ef5527981a196c19059b3a7e",
      "transactionType": "CALL",
      "contractName": null,
      "contractAddress": "0xf2f1acbe0ba726fee8d75f3e32900526874740bb",
      "function": null,
      "arguments": null,
      "transaction": {
        "from": "0xf2f1acbe0ba726fee8d75f3e32900526874740bb",
        "to": "0xf2f1acbe0ba726fee8d75f3e32900526874740bb",
        "gas": "0x714d",
        "value": "0x0",
        "input": "0x",
        "nonce": "0x20",
        "chainId": "0x18232"
      },
      "additionalContracts": [],
      "isFixedGasLimit": false
    },
    {
      "hash": "0x3b1b986b6ddf7f0156d887fba5b290ae34ce0279225ea0a6007d1b2d58080222",
      "transactionType": "CALL",
      "contractName": null,
      "contractAddress": "0xf2f1acbe0ba726fee8d75f3e32900526874740bb",
      "function": null,
      "arguments": null,
      "transaction": {
        "from": "0xf2f1acbe0ba726fee8d75f3e32900526874740bb",
        "to": "0xf2f1acbe0ba726fee8d75f3e32900526874740bb",
        "gas": "0x714d",
        "value": "0x0",
        "input": "0x",
        "nonce": "0x21",
        "chainId": "0x18232"
      },
      "additionalContracts": [],
      "isFixedGasLimit": false
    },
    {
      "hash": "0x7829d0efd4c90476bd0263396b62f65e5a728afd58f02d4a29d4a55a7dde69d7",
      "transactionType": "CALL",
      "contractName": null,
      "contractAddress": "0xf2f1acbe0ba726fee8d75f3e32900526874740bb",
      "function": null,
      "arguments": null,
      "transaction": {
        "from": "0xf2f1acbe0ba726fee8d75f3e32900526874740bb",
        "to": "0xf2f1acbe0ba726fee8d75f3e32900526874740bb",
        "gas": "0x714d",
        "value": "0x0",
        "input": "0x",
        "nonce": "0x22",
        "chainId": "0x18232"
      },
      "additionalContracts": [],
      "isFixedGasLimit": false
    },
    {
      "hash": "0x432c6c9d713df6089d8ae76394a1539b16e34879cc8d5e99a886782b9b0d7cec",
      "transactionType": "CALL",
      "contractName": null,
      "contractAddress": "0xf2f1acbe0ba726fee8d75f3e32900526874740bb",
      "function": null,
      "arguments": null,
      "transaction": {
        "from": "0xf2f1acbe0ba726fee8d75f3e32900526874740bb",
        "to": "0xf2f1acbe0ba726fee8d75f3e32900526874740bb",
        "gas": "0x714d",
        "value": "0x0",
        "input": "0x",
        "nonce": "0x23",
        "chainId": "0x18232"
      },
      "additionalContracts": [],
      "isFixedGasLimit": false
    },
    {
      "hash": "0x9d4049fba8f839f65a8638c6289a050a6bc61e4526dc5c42fa0315b9bdecd1d0",
      "transactionType": "CALL",
      "contractName": null,
      "contractAddress": "0xf2f1acbe0ba726fee8d75f3e32900526874740bb",
      "function": null,
      "arguments": null,
      "transaction": {
        "from": "0xf2f1acbe0ba726fee8d75f3e32900526874740bb",
        "to": "0xf2f1acbe0ba726fee8d75f3e32900526874740bb",
        "gas": "0x714d",
        "value": "0x0",
        "input": "0x",
        "nonce": "0x24",
        "chainId": "0x18232"
      },
      "additionalContracts": [],
      "isFixedGasLimit": false
    },
    {
      "hash": "0x1b8052ea765cd948ed9ca84b05b7c681819a3544c026fa54bbe96e92713127ef",
      "transactionType": "CALL",
      "contractName": null,
      "contractAddress": "0xf2f1acbe0ba726fee8d75f3e32900526874740bb",
      "function": null,
      "arguments": null,
      "transaction": {
        "from": "0xf2f1acbe0ba726fee8d75f3e32900526874740bb",
        "to": "0xf2f1acbe0ba726fee8d75f3e32900526874740bb",
        "gas": "0x714d",
        "value": "0x0",
        "input": "0x",
        "nonce": "0x25",
        "chainId": "0x18232"
      },
      "additionalContracts": [],
      "isFixedGasLimit": false
    },
    {
      "hash": "0xda2285d1d57f1787780360682fa2c11c23450d6f62d6eb6afc235b6638ae7257",
      "transactionType": "CALL",
      "contractName": null,
      "contractAddress": "0xf2f1acbe0ba726fee8d75f3e32900526874740bb",
      "function": null,
      "arguments": null,
      "transaction": {
        "from": "0xf2f1acbe0ba726fee8d75f3e32900526874740bb",
        "to": "0xf2f1acbe0ba726fee8d75f3e32900526874740bb",
        "gas": "0x714d",
        "value": "0x0",
        "input": "0x",
        "nonce": "0x26",
        "chainId": "0x18232"
      },
      "additionalContracts": [],
      "isFixedGasLimit": false
    },
    {
      "hash": "0x4c72394fa63b16835df92a18464cfa5b89ad0be29e5d34da001cb0f87696a348",
      "transactionType": "CREATE",
      "contractName": "WrappedMToken",
      "contractAddress": "0x813b926b1d096e117721bd1eb017fba122302da0",
      "function": null,
      "arguments": [
        "0x866A2BF4E572CbcF37D5071A7a58503Bfb36be1b",
        "0x119FbeeDD4F4f4298Fb59B720d5654442b81ae2c",
        "0x3349e443068F76666789C4f76F00D9c4F38A4DdE",
        "0xF2f1ACbe0BA726fEE8d75f3E32900526874740BB"
      ],
      "transaction": {
        "from": "0xf2f1acbe0ba726fee8d75f3e32900526874740bb",
        "gas": "0x4d6d0d",
        "value": "0x0",
        "input": "0x6101a0604052348015610010575f80fd5b50604051614ab2380380614ab283398101604081905261002f9161032c565b6040518060400160405280600f81526020016e0577261707065644d206279204d5e3608c1b81525060405180604001604052806002815260200161774d60f01b81525060068280806100868161016f60201b60201c565b60c0524660805261009561019f565b60a052506100a6915083905061016f565b6101005260ff1660e05250506001600160a01b0384166101408190526100df5760405163b01d5e2b60e01b815260040160405180910390fd5b6001600160a01b03831661016081905261010c576040516379a6314960e01b815260040160405180910390fd5b6001600160a01b0382166101808190526101395760405163c956307160e01b815260040160405180910390fd5b6001600160a01b0381166101208190526101665760405163ea0b51bb60e01b815260040160405180910390fd5b50505050610405565b5f81604051602001610181919061037d565b60405160208183030381529060405261019990610393565b92915050565b60c0515f907f8b73c3c69bb8fe3d512ecc4cf759cc79239f7b179b0ffacaa9a75d522b39400f906101cf90610239565b80516020918201206040805192830193909352918101919091527fc89efdaa54c0f20c7adf612882df0950f5a951637e0307cdcb4c672f298b8bc660608201524660808201523060a082015260c00160405160208183030381529060405280519060200120905090565b60605f5b60208110801561025e575082816020811061025a5761025a6103b9565b1a15155b156102735761026c816103cd565b905061023d565b5f816001600160401b0381111561028c5761028c6103f1565b6040519080825280601f01601f1916602001820160405280156102b6576020820181803683370190505b5090505f5b82811015610309578481602081106102d5576102d56103b9565b1a60f81b8282815181106102eb576102eb6103b9565b60200101906001600160f81b03191690815f1a9053506001016102bb565b509392505050565b80516001600160a01b0381168114610327575f80fd5b919050565b5f805f806080858703121561033f575f80fd5b61034885610311565b935061035660208601610311565b925061036460408601610311565b915061037260608601610311565b905092959194509250565b5f82518060208501845e5f920191825250919050565b805160208083015191908110156103b3575f198160200360031b1b821691505b50919050565b634e487b7160e01b5f52603260045260245ffd5b5f600182016103ea57634e487b7160e01b5f52601160045260245ffd5b5060010190565b634e487b7160e01b5f52604160045260245ffd5b60805160a05160c05160e05161010051610120516101405161016051610180516145b56104fd5f395f818161093a015261121301525f81816104700152818161177b015281816127e101528181612e4d0152612f2401525f8181610813015281816109b401528181610c020152818161124a0152818161140e015281816116450152818161194901528181611a0201528181611ab10152818161206b01528181612138015281816122ea0152818161235f015261245e01525f818161061401526116f501525f6112d101525f6104e901525f8181610a34015281816110d3015261222101525f610e3f01525f610e0f01526145b55ff3fe608060405234801561000f575f80fd5b506004361061037d575f3560e01c806384b0196e116101d4578063bf376c7a11610109578063d505accf116100a9578063e3ee160e11610079578063e3ee160e146108f5578063e94a010214610908578063e9ef148a14610935578063ef55bec61461095c575f80fd5b8063d505accf1461087e578063d916948714610891578063dd62ed3e146108b8578063ddeae033146108e2575f80fd5b8063c967891a116100e4578063c967891a1461083d578063ce5494bb14610845578063cf09299514610858578063d33627e51461086b575f80fd5b8063bf376c7a146107fb578063c3b6f9391461080e578063c9144ddb14610835575f80fd5b80639fd5a6cf11610174578063a8afc01f1161014f578063a8afc01f146107ba578063a9059cbb146107c2578063ace150a5146107d5578063b7b72899146107e8575f80fd5b80639fd5a6cf1461076d578063a08cb48b14610780578063a0cc6a6814610793575f80fd5b80638a75f238116101af5780638a75f238146107425780638d78bf7e146107555780638fd3ab801461075d57806395d89b4114610765575f80fd5b806384b0196e1461070a57806388b7ab63146107255780638a4a101714610738575f80fd5b806339f47693116102b557806370a08231116102555780637c3ab944116102255780637c3ab9441461065c5780637ecebe00146106995780637f2eecc3146106b857806384af270f146106df575f80fd5b806370a08231146105d957806374df25581461060f57806374edaa201461063657806375f26e6314610649575f80fd5b806356d59ed21161029057806356d59ed2146105845780635a049a701461058c5780635c60da1b1461059f5780635cf99384146105c6575f80fd5b806339f47693146105255780634c57a8fa14610538578063532992c514610571575f80fd5b806326987b60116103205780632c786163116102fb5780632c786163146104aa57806330adf81f146104bd578063313ce567146104e45780633644e5151461051d575f80fd5b806326987b601461042f578063281b229d146104585780632b20e3971461046b575f80fd5b8063174f6ce91161035b578063174f6ce9146103e957806318160ddd146103fe5780631ae2379c1461041457806323b872dd1461041c575f80fd5b8063023276f01461038157806306fdde03146103b1578063095ea7b3146103c6575b5f80fd5b61039461038f366004613db9565b61096f565b6040516001600160f01b0390911681526020015b60405180910390f35b6103b9610a2d565b6040516103a89190613e1e565b6103d96103d4366004613e30565b610a5d565b60405190151581526020016103a8565b6103fc6103f7366004613db9565b610a72565b005b610406610b91565b6040519081526020016103a8565b610394610bbd565b6103d961042a366004613e58565b610cb0565b610437610d87565b6040516fffffffffffffffffffffffffffffffff90911681526020016103a8565b600554610394906001600160f01b031681565b6104927f000000000000000000000000000000000000000000000000000000000000000081565b6040516001600160a01b0390911681526020016103a8565b6103946104b8366004613db9565b610da4565b6104067f6e71edae12b1b97f4d1f60370fef10105fa2faae0126114a169c64845d6126c981565b61050b7f000000000000000000000000000000000000000000000000000000000000000081565b60405160ff90911681526020016103a8565b610406610e0c565b610394610533366004613e30565b610e61565b600354610552906dffffffffffffffffffffffffffff1681565b6040516dffffffffffffffffffffffffffff90911681526020016103a8565b6103fc61057f366004613e92565b610e75565b610394610e9a565b6103fc61059a366004613ed8565b610ed8565b7f360894a13ba1a3210667c828492db98dca3e2076cc3735a920a3ca505d382bbc54610492565b6104066105d4366004613db9565b610eff565b6104066105e7366004613db9565b6001600160a01b03165f9081526006602052604090205461010090046001600160f01b031690565b6104927f000000000000000000000000000000000000000000000000000000000000000081565b6103fc610644366004613db9565b610f49565b610394610657366004613db9565b6110b6565b61043761066a366004613db9565b6001600160a01b03165f908152600660205260409020600101546fffffffffffffffffffffffffffffffff1690565b6104066106a7366004613db9565b5f6020819052908152604090205481565b6104067fd099cc98ef71107a616c4f0f941f04c322d8e254fe26b3c6668db87aae413de881565b6103d96106ed366004613db9565b6001600160a01b03165f9081526006602052604090205460ff1690565b6107126110c5565b6040516103a89796959493929190613f22565b6103fc6107333660046140c9565b61116d565b60075415156103d9565b600454610394906001600160f01b031681565b61039461119c565b6103fc6112b8565b6103b96112ca565b6103fc61077b366004614148565b6112f5565b6103fc61078e3660046141b5565b611305565b6104067f7c7c6cdb67a18743f49ec6fa9b35f50d52ed05cbed4cc592e13b44501c1a226781565b6103fc61132f565b6103d96107d0366004613e30565b6114ba565b6103fc6107e33660046141b5565b6114c6565b6103fc6107f6366004614217565b6114e6565b610394610809366004613e30565b611503565b6104927f000000000000000000000000000000000000000000000000000000000000000081565b6103d9611512565b6103fc61152b565b6103fc610853366004613db9565b6116ea565b6103fc6108663660046140c9565b611758565b610492610879366004613db9565b611778565b6103fc61088c36600461426a565b611860565b6104067f158b0a9edf7a828aad02f63cd515c68ef2f50ba807396f6d12842833a159742981565b6104066108c63660046142d0565b600260209081525f928352604080842090915290825290205481565b6103946108f0366004613db9565b611870565b6103fc610903366004614301565b611882565b6103d9610916366004613e30565b600160209081525f928352604080842090915290825290205460ff1681565b6104927f000000000000000000000000000000000000000000000000000000000000000081565b6103fc61096a366004614301565b6118ad565b6040517f70a0823100000000000000000000000000000000000000000000000000000000815233600482018190525f91610a2791908490610a22906001600160a01b037f000000000000000000000000000000000000000000000000000000000000000016906370a0823190602401602060405180830381865afa1580156109f9573d5f803e3d5ffd5b505050506040513d601f19601f82011682018060405250810190610a1d919061437c565b6118cd565b61190f565b92915050565b6060610a587f0000000000000000000000000000000000000000000000000000000000000000611b34565b905090565b5f610a69338484611c1d565b50600192915050565b610a7b81611c7d565b5f610a84610d87565b9050610a908282611cbd565b506001600160a01b0382165f908152600660205260409020805460ff16610ab657505050565b80547fffffffffffffffffffffffffffffffffffffffffffffffffffffffffffffff00168082556001820180547fffffffffffffffffffffffffffffffff0000000000000000000000000000000016905561010090046001600160f01b0316610b1f8184611ee8565b600580546001600160f01b038082168401167fffff0000000000000000000000000000000000000000000000000000000000009091161790556040516001600160a01b038516907f9467bac89b535c15fcd73b0e7b12e123a045fd17124952dfa868dfdf5e42d48d905f90a250505050565b6005546004545f91610baf916001600160f01b0391821691166143c0565b6001600160f01b0316905090565b5f80610bc7610d87565b6040517f70a082310000000000000000000000000000000000000000000000000000000081523060048201529091505f906001600160a01b037f000000000000000000000000000000000000000000000000000000000000000016906370a0823190602401602060405180830381865afa158015610c47573d5f803e3d5ffd5b505050506040513d601f19601f82011682018060405250810190610c6b919061437c565b90505f610c778361201c565b6005546001600160f01b0390811691909101915081811690831611610c9c575f610ca8565b610ca88183038461203b565b935050505090565b6001600160a01b0383165f9081526002602090815260408083203384529091528120547fffffffffffffffffffffffffffffffffffffffffffffffffffffffffffffffff8114610d715782811015610d49576040517f192b9e4e00000000000000000000000000000000000000000000000000000000815233600482015260248101829052604481018490526064015b60405180910390fd5b6001600160a01b0385165f908152600260209081526040808320338452909152902083820390555b610d7c8585856120f9565b506001949350505050565b5f610d90611512565b610d9c57610a58612114565b610a58612135565b6001600160a01b0381165f908152600660205260408120805460ff16610dcc57505f92915050565b80546001820154610e059161010090046001600160f01b0316906fffffffffffffffffffffffffffffffff16610e00610d87565b6121b6565b9392505050565b5f7f00000000000000000000000000000000000000000000000000000000000000004614610e3c57610a586121fa565b507f000000000000000000000000000000000000000000000000000000000000000090565b5f610e053384610e70856118cd565b6122af565b610e8a84610e8386866124d9565b8484612540565b610e948484612554565b50505050565b5f80610eac610ea7610d87565b61201c565b6004549091506001600160f01b03908116908216811015610ecf57808203610ed1565b5f5b9250505090565b610eee85610ee687876124d9565b8585856125d6565b610ef88585612554565b5050505050565b5f610f0982610da4565b6001600160f01b0316610f3f836001600160a01b03165f908152600660205260409020546001600160f01b036101009091041690565b610a2791906143df565b610f52816125e6565b610f5a611512565b610f90576040517fb019ea3500000000000000000000000000000000000000000000000000000000815260040160405180910390fd5b6001600160a01b0381165f908152600660205260409020805460ff1615610fb5575050565b5f610fbe612135565b825460017fffffffffffffffffffffffffffffffffffffffffffffffffffffffffffffff00909116811780855590840180547fffffffffffffffffffffffffffffffff00000000000000000000000000000000166fffffffffffffffffffffffffffffffff841617905590915061010090046001600160f01b03166110438183612625565b600580546001600160f01b03808216849003167fffff0000000000000000000000000000000000000000000000000000000000009091161790556040516001600160a01b038516907f8fbc5add0c3fc76c7a869df537ee9250843681f6bbc2ea9735d40c6dc259414c905f90a250505050565b5f610a273383610e7033610eff565b5f6060805f805f60606110f77f0000000000000000000000000000000000000000000000000000000000000000611b34565b604080515f8082526060820183526001602083019081527f3100000000000000000000000000000000000000000000000000000000000000938301939093527f0f000000000000000000000000000000000000000000000000000000000000009b939a5091985046975030965090945092509050565b6111858761117f8989898989896126b0565b8361272a565b611193878787878787612775565b50505050505050565b5f7f49ec4048a361156a5338ff734a59a750f44cb5753bbe0886c6f39289bec2a0146111c6610bbd565b6040516001600160f01b038216815290925060200160405180910390a16040517fa9059cbb0000000000000000000000000000000000000000000000000000000081526001600160a01b037f0000000000000000000000000000000000000000000000000000000000000000811660048301526001600160f01b03831660248301527f0000000000000000000000000000000000000000000000000000000000000000169063a9059cbb906044016020604051808303815f875af1158015611290573d5f803e3d5ffd5b505050506040513d601f19601f820116820180604052508101906112b491906143f2565b5090565b6112c86112c36127de565b6128cb565b565b6060610a587f0000000000000000000000000000000000000000000000000000000000000000611b34565b610ef88561117f87878787612aad565b61131788610e838a8a8a8a8a8a6126b0565b611325888888888888612775565b5050505050505050565b61133830611c7d565b611340611512565b611376576040517fb019ea3500000000000000000000000000000000000000000000000000000000815260040160405180910390fd5b5f61137f612135565b60078054600180820183555f9283527fa66cc928b5edb82af9bd49922954155ab7b0942694bea4ce44661d9a8736c68860028304018054919092166010026101000a6fffffffffffffffffffffffffffffffff8181021990921691851602179055604080517f9f8495f900000000000000000000000000000000000000000000000000000000815290519293507f00000000000000000000000000000000000000000000000000000000000000006001600160a01b031692639f8495f99260048084019391929182900301818387803b15801561145a575f80fd5b505af115801561146c573d5f803e3d5ffd5b50506040516fffffffffffffffffffffffffffffffff841681527fee580fdb4da10ea17aa673e6f5c8c2370b4166d6a94bc88900e5a96d0589e3ce925060200190505b60405180910390a150565b5f610a693384846120f9565b6114d888610e838a8a8a8a8a8a612b40565b611325888888888888612baf565b6114f48361117f85856124d9565b6114fe8383612554565b505050565b5f610e053384610a22856118cd565b6007545f906115239060029061443e565b600114905090565b611534306125e6565b61153c611512565b15611573576040517f7a42736800000000000000000000000000000000000000000000000000000000815260040160405180910390fd5b600754156115ad576040517f437b381f00000000000000000000000000000000000000000000000000000000815260040160405180910390fd5b5f6115b6612135565b60078054600180820183555f9283527fa66cc928b5edb82af9bd49922954155ab7b0942694bea4ce44661d9a8736c68860028304018054919092166010026101000a6fffffffffffffffffffffffffffffffff8181021990921691851602179055604080517fa36e40fc00000000000000000000000000000000000000000000000000000000815290519293507f00000000000000000000000000000000000000000000000000000000000000006001600160a01b03169263a36e40fc9260048084019391929182900301818387803b158015611691575f80fd5b505af11580156116a3573d5f803e3d5ffd5b50506040516fffffffffffffffffffffffffffffffff841681527f5098de6eb11dbd1127cf4dcd5e960e3944d48a7570b9b1939cff715cb35c5a18925060200190506114af565b336001600160a01b037f0000000000000000000000000000000000000000000000000000000000000000161461174c576040517f51e2625e00000000000000000000000000000000000000000000000000000000815260040160405180910390fd5b611755816128cb565b50565b61176a8761117f898989898989612b40565b611193878787878787612baf565b5f7f00000000000000000000000000000000000000000000000000000000000000006001600160a01b0316638eaa6ac07f776d5f636c61696d5f6f766572726964655f726563697069656e740000000000846040516020016117ed9291909182526001600160a01b0316602082015260400190565b604051602081830303815290604052805190602001206040518263ffffffff1660e01b815260040161182191815260200190565b602060405180830381865afa15801561183c573d5f803e3d5ffd5b505050506040513d601f19601f82011682018060405250810190610a27919061437c565b61119387610ee689898989612aad565b5f610a278261187d610d87565b611cbd565b61189489610ee68b8b8b8b8b8b612b40565b6118a2898989898989612baf565b505050505050505050565b6118bf89610ee68b8b8b8b8b8b6126b0565b6118a2898989898989612775565b5f6001600160f01b038211156112b4576040517f2a49c10d00000000000000000000000000000000000000000000000000000000815260040160405180910390fd5b6040517f70a082310000000000000000000000000000000000000000000000000000000081523060048201525f9081906001600160a01b037f000000000000000000000000000000000000000000000000000000000000000016906370a0823190602401602060405180830381865afa15801561198e573d5f803e3d5ffd5b505050506040513d601f19601f820116820180604052508101906119b2919061437c565b6040517f23b872dd0000000000000000000000000000000000000000000000000000000081526001600160a01b0387811660048301523060248301526001600160f01b03861660448301529192507f0000000000000000000000000000000000000000000000000000000000000000909116906323b872dd906064016020604051808303815f875af1158015611a4a573d5f803e3d5ffd5b505050506040513d601f19601f82011682018060405250810190611a6e91906143f2565b506040517f70a08231000000000000000000000000000000000000000000000000000000008152306004820152611b2c908590611b249084906001600160a01b037f000000000000000000000000000000000000000000000000000000000000000016906370a0823190602401602060405180830381865afa158015611af6573d5f803e3d5ffd5b505050506040513d601f19601f82011682018060405250810190611b1a919061437c565b610a1d9190614476565b935083612cbc565b509392505050565b60605f5b602081108015611b595750828160208110611b5557611b55614489565b1a15155b15611b6e57611b67816144b6565b9050611b38565b5f8167ffffffffffffffff811115611b8857611b88613fd4565b6040519080825280601f01601f191660200182016040528015611bb2576020820181803683370190505b5090505f5b82811015611b2c57848160208110611bd157611bd1614489565b1a60f81b828281518110611be757611be7614489565b60200101907effffffffffffffffffffffffffffffffffffffffffffffffffffffffffffff191690815f1a905350600101611bb7565b6001600160a01b038381165f8181526002602090815260408083209487168084529482529182902085905590518481527f8c5be1e5ebec7d5bd14f71427d1e84f3dd0314c0f7b2291e5b200ac8c7c3b925910160405180910390a3505050565b611c8681612dfb565b15611755576040517f8b19807700000000000000000000000000000000000000000000000000000000815260040160405180910390fd5b6001600160a01b0382165f908152600660205260408120805460ff16611ce6575f915050610a27565b60018101546fffffffffffffffffffffffffffffffff908116908416819003611d13575f92505050610a27565b815461010090046001600160f01b0316611d2e8183876121b6565b6001840180547fffffffffffffffffffffffffffffffff00000000000000000000000000000000166fffffffffffffffffffffffffffffffff881617905593506001600160f01b0384165f03611d89575f9350505050610a27565b82546001600160f01b038286018116610100027fff000000000000000000000000000000000000000000000000000000000000ff9092169190911784556004805480831687019092167fffff0000000000000000000000000000000000000000000000000000000000009092169190911790555f611e0687611778565b90505f6001600160a01b03821615611e1e5781611e20565b875b6040516001600160f01b03881681529091506001600160a01b0380831691908a16907f4f3dc01c04a512d8b0b3b29dd31108ec4a93696f6506c2e8e609aa77953da7599060200160405180910390a36040516001600160f01b03871681526001600160a01b038916905f907fddf252ad1be2c89b69c2b068fc378daa952ba7f163c4a11628f55a4df523b3ef9060200160405180910390a3876001600160a01b0316816001600160a01b031614611edd57611edd8882888a612f8d565b505050505092915050565b6004546001600160f01b0390811690831610611f52575050600480547fffff000000000000000000000000000000000000000000000000000000000000169055600380547fffffffffffffffffffffffffffffffffffff0000000000000000000000000000169055565b5f611f5d83836131c0565b6003549091506dffffffffffffffffffffffffffff90811690821611611f835780611f97565b6003546dffffffffffffffffffffffffffff165b600380547fffffffffffffffffffffffffffffffffffff000000000000000000000000000081166dffffffffffffffffffffffffffff91821693909303169190911790555050600480547fffff00000000000000000000000000000000000000000000000000000000000081166001600160f01b039182169390930316919091179055565b6003545f90610a27906dffffffffffffffffffffffffffff16836131cb565b6040517f84af270f0000000000000000000000000000000000000000000000000000000081523060048201525f907f00000000000000000000000000000000000000000000000000000000000000006001600160a01b0316906384af270f90602401602060405180830381865afa1580156120b8573d5f803e3d5ffd5b505050506040513d601f19601f820116820180604052508101906120dc91906143f2565b6120e65782610e05565b610e056120f384846131c0565b836131cb565b6114fe8383612107846118cd565b61210f610d87565b612f8d565b5f612120600754151590565b61212957505f90565b610a58600760016131fd565b5f7f00000000000000000000000000000000000000000000000000000000000000006001600160a01b03166326987b606040518163ffffffff1660e01b8152600401602060405180830381865afa158015612192573d5f803e3d5ffd5b505050506040513d601f19601f82011682018060405250810190610a5891906144ed565b5f806121cb6121c586866131c0565b846131cb565b9050846001600160f01b0316816001600160f01b031611156121ef578481036121f1565b5f5b95945050505050565b5f7f8b73c3c69bb8fe3d512ecc4cf759cc79239f7b179b0ffacaa9a75d522b39400f6122457f0000000000000000000000000000000000000000000000000000000000000000611b34565b80516020918201206040805192830193909352918101919091527fc89efdaa54c0f20c7adf612882df0950f5a951637e0307cdcb4c672f298b8bc660608201524660808201523060a082015260c00160405160208183030381529060405280519060200120905090565b5f6122ba848361323e565b6040517f70a082310000000000000000000000000000000000000000000000000000000081523060048201525f907f00000000000000000000000000000000000000000000000000000000000000006001600160a01b0316906370a0823190602401602060405180830381865afa158015612337573d5f803e3d5ffd5b505050506040513d601f19601f8201168201806040525081019061235b919061437c565b90507f00000000000000000000000000000000000000000000000000000000000000006001600160a01b031663a9059cbb8561239e86612399610d87565b61203b565b6040517fffffffff0000000000000000000000000000000000000000000000000000000060e085901b1681526001600160a01b0390921660048301526001600160f01b031660248201526044016020604051808303815f875af1158015612407573d5f803e3d5ffd5b505050506040513d601f19601f8201168201806040525081019061242b91906143f2565b506040517f70a082310000000000000000000000000000000000000000000000000000000081523060048201526121f1907f00000000000000000000000000000000000000000000000000000000000000006001600160a01b0316906370a0823190602401602060405180830381865afa1580156124ab573d5f803e3d5ffd5b505050506040513d601f19601f820116820180604052508101906124cf919061437c565b610a1d9083614476565b604080517f158b0a9edf7a828aad02f63cd515c68ef2f50ba807396f6d12842833a159742960208201526001600160a01b03841691810191909152606081018290525f90610e05906080015b604051602081830303815290604052805190602001206132e7565b610e9461254f85858585613348565b613383565b61255e8282613547565b6001600160a01b0382165f81815260016020818152604080842086855290915280832080547fffffffffffffffffffffffffffffffffffffffffffffffffffffffffffffff0016909217909155518392917f1cdd46ff242716cdaa72d159d339a485b3438398348d68f09d7c8c0a59353d8191a35050565b610ef861254f86868686866135ba565b6125ef81612dfb565b611755576040517fdd93dca800000000000000000000000000000000000000000000000000000000815260040160405180910390fd5b600480546001600160f01b038082168501167fffff0000000000000000000000000000000000000000000000000000000000009091161790556126688282613602565b600380547fffffffffffffffffffffffffffffffffffff000000000000000000000000000081166dffffffffffffffffffffffffffff91821693909301169190911790555050565b604080517fd099cc98ef71107a616c4f0f941f04c322d8e254fe26b3c6668db87aae413de860208201526001600160a01b038089169282019290925290861660608201526080810185905260a0810184905260c0810183905260e081018290525f9061271f9061010001612525565b979650505050505050565b5f61273684848461360d565b90505f81600581111561274b5761274b61451c565b036127565750505050565b612761848484613651565b1561276c5750505050565b610e9481613383565b336001600160a01b038616146127c8576040517f1c5939f30000000000000000000000000000000000000000000000000000000081523360048201526001600160a01b0386166024820152604401610d40565b6127d6868686868686612baf565b505050505050565b5f7f00000000000000000000000000000000000000000000000000000000000000006001600160a01b0316638eaa6ac07f776d5f6d69677261746f725f7631000000000000000000000000000000000000306040516020016128539291909182526001600160a01b0316602082015260400190565b604051602081830303815290604052805190602001206040518263ffffffff1660e01b815260040161288791815260200190565b602060405180830381865afa1580156128a2573d5f803e3d5ffd5b505050506040513d601f19601f820116820180604052508101906128c6919061437c565b919050565b6001600160a01b03811661290b576040517f0d626a3200000000000000000000000000000000000000000000000000000000815260040160405180910390fd5b806001600160a01b03163b5f0361294e576040517f8d1e7cf400000000000000000000000000000000000000000000000000000000815260040160405180910390fd5b5f6129777f360894a13ba1a3210667c828492db98dca3e2076cc3735a920a3ca505d382bbc5490565b90505f826001600160a01b03166040515f60405180830381855af49150503d805f81146129bf576040519150601f19603f3d011682016040523d82523d5f602084013e6129c4565b606091505b50509050806129ff576040517fa27bfda200000000000000000000000000000000000000000000000000000000815260040160405180910390fd5b5f612a287f360894a13ba1a3210667c828492db98dca3e2076cc3735a920a3ca505d382bbc5490565b9050806001600160a01b0316836001600160a01b0316856001600160a01b03167fe1b831b0e6f3aa16b4b1a6bd526b5cdeab4940744ca6e0251f5fe5f8caf1c81a60405160405180910390a46040516001600160a01b038216907fbc7cd75a20ee27fd9adebab32041f755214dbc6bffa90cc0225b39da2e5c2d3b905f90a250505050565b5f612ab78261378c565b612ac2858585611c1d565b6001600160a01b038581165f818152602081815260409182902080546001810190915582517f6e71edae12b1b97f4d1f60370fef10105fa2faae0126114a169c64845d6126c9928101929092529181019290925291861660608201526080810185905260a081019190915260c081018390526121f19060e001612525565b604080517f7c7c6cdb67a18743f49ec6fa9b35f50d52ed05cbed4cc592e13b44501c1a226760208201526001600160a01b038089169282019290925290861660608201526080810185905260a0810184905260c0810183905260e081018290525f9061271f9061010001612525565b824211612bf1576040517f498ff9a200000000000000000000000000000000000000000000000000000000815242600482015260248101849052604401610d40565b814210612c33576040517fb3fcd33e00000000000000000000000000000000000000000000000000000000815242600482015260248101839052604401610d40565b612c3d8682613547565b6001600160a01b0386165f81815260016020818152604080842086855290915280832080547fffffffffffffffffffffffffffffffffffffffffffffffffffffffffffffff0016909217909155518392917f98de503528ee59b575ef0c0a2576a82497bfc029a5685b209e9ec333479b10a591a36127d68686866120f9565b612cce816001600160f01b03166137cf565b612cd78261380b565b6001600160a01b0382165f9081526006602052604090205460ff1615612d1e575f612d00610d87565b9050612d0c8382611cbd565b50612d18838383613856565b50612dad565b6001600160a01b0382165f90815260066020526040902080547fff000000000000000000000000000000000000000000000000000000000000ff8116610100918290046001600160f01b039081168501811690920217909155600580547fffff000000000000000000000000000000000000000000000000000000000000811690831684019092169190911790555b6040516001600160f01b03821681526001600160a01b038316905f907fddf252ad1be2c89b69c2b068fc378daa952ba7f163c4a11628f55a4df523b3ef906020015b60405180910390a35050565b6040517f8eaa6ac00000000000000000000000000000000000000000000000000000000081527f6561726e6572735f6c6973745f69676e6f72656400000000000000000000000060048201525f9081907f00000000000000000000000000000000000000000000000000000000000000006001600160a01b031690638eaa6ac090602401602060405180830381865afa158015612e9a573d5f803e3d5ffd5b505050506040513d601f19601f82011682018060405250810190612ebe919061437c565b141580610a2757506040517fd7d1c1c00000000000000000000000000000000000000000000000000000000081527f6561726e6572730000000000000000000000000000000000000000000000000060048201526001600160a01b0383811660248301527f0000000000000000000000000000000000000000000000000000000000000000169063d7d1c1c090604401602060405180830381865afa158015612f69573d5f803e3d5ffd5b505050506040513d601f19601f82011682018060405250810190610a2791906143f2565b612f968361380b565b612fa08482611cbd565b50612fab8382611cbd565b506040516001600160f01b03831681526001600160a01b0380851691908616907fddf252ad1be2c89b69c2b068fc378daa952ba7f163c4a11628f55a4df523b3ef9060200160405180910390a36001600160a01b038085165f90815260066020526040808220928616825290208054825460ff918216151591161515036130f65781546001600160f01b03610100909104811690851681101561309c576040517f03629ea10000000000000000000000000000000000000000000000000000000081526001600160a01b03881660048201526001600160f01b03808316602483015286166044820152606401610d40565b82546001600160f01b039186900382166101009081027fff000000000000000000000000000000000000000000000000000000000000ff928316179094558254848104831687019092169093029216919091179055610e94565b815460ff1661310e5761310986856138b6565b613119565b6131198685856139b4565b805460ff166131b5576001600160a01b0385165f90815260066020526040902080547fff000000000000000000000000000000000000000000000000000000000000ff8116610100918290046001600160f01b039081168801811690920217909155600580547fffff000000000000000000000000000000000000000000000000000000000000811690831687019092169190911790556127d6565b6127d6858585613856565b5f610e058383613a7c565b5f64e8d4a510006fffffffffffffffffffffffffffffffff83166dffffffffffffffffffffffffffff85160204610e05565b5f828152602090206002820401547fffffffffffffffffffffffffffffffffffffffffffffffffffffffffffffffff6001831601610a275760801c92915050565b613250816001600160f01b03166137cf565b6001600160a01b0382165f9081526006602052604090205460ff1615613297575f613279610d87565b90506132858382611cbd565b506132918383836139b4565b506132a1565b6132a182826138b6565b6040516001600160f01b03821681525f906001600160a01b038416907fddf252ad1be2c89b69c2b068fc378daa952ba7f163c4a11628f55a4df523b3ef90602001612def565b5f6132f0610e0c565b6040517f19010000000000000000000000000000000000000000000000000000000000006020820152602281019190915260428101839052606201604051602081830303815290604052805190602001209050919050565b5f805f613356868686613b02565b90925090505f82600581111561336e5761336e61451c565b14613379578161271f565b61271f8782613b49565b5f8160058111156133965761339661451c565b0361339e5750565b60018160058111156133b2576133b261451c565b036133e9576040517f8baa579f00000000000000000000000000000000000000000000000000000000815260040160405180910390fd5b60028160058111156133fd576133fd61451c565b03613434576040517f4be6321b00000000000000000000000000000000000000000000000000000000815260040160405180910390fd5b60038160058111156134485761344861451c565b0361347f576040517fbf4bf5b800000000000000000000000000000000000000000000000000000000815260040160405180910390fd5b60048160058111156134935761349361451c565b036134ca576040517fff551e8900000000000000000000000000000000000000000000000000000000815260040160405180910390fd5b60058160058111156134de576134de61451c565b03613515576040517f10c74b0300000000000000000000000000000000000000000000000000000000815260040160405180910390fd5b6040517f8baa579f00000000000000000000000000000000000000000000000000000000815260040160405180910390fd5b6001600160a01b0382165f90815260016020908152604080832084845290915290205460ff16156135b6576040517fd309466d0000000000000000000000000000000000000000000000000000000081526001600160a01b038316600482015260248101829052604401610d40565b5050565b5f805f6135c987878787613b72565b90925090505f8260058111156135e1576135e161451c565b146135ec57816135f6565b6135f68882613b49565b98975050505050505050565b5f610e058383613c72565b5f805f61361a8585613d16565b90925090505f8260058111156136325761363261451c565b1461363d5781613647565b6136478682613b49565b9695505050505050565b5f805f856001600160a01b03168585604051602401613671929190614549565b604080517fffffffffffffffffffffffffffffffffffffffffffffffffffffffffffffffe08184030181529181526020820180517bffffffffffffffffffffffffffffffffffffffffffffffffffffffff167f1626ba7e00000000000000000000000000000000000000000000000000000000179052516136f29190614569565b5f60405180830381855afa9150503d805f811461372a576040519150601f19603f3d011682016040523d82523d5f602084013e61372f565b606091505b509150915081801561374357506020815110155b8015613647575080517f1626ba7e0000000000000000000000000000000000000000000000000000000090613781908301602090810190840161437c565b149695505050505050565b80421115611755576040517ff88f049000000000000000000000000000000000000000000000000000000000815260048101829052426024820152604401610d40565b805f03611755576040517f77b8dde300000000000000000000000000000000000000000000000000000000815260048101829052602401610d40565b6001600160a01b038116611755576040517f17858bbe0000000000000000000000000000000000000000000000000000000081526001600160a01b0382166004820152602401610d40565b6001600160a01b0383165f90815260066020526040902080546001600160f01b0361010080830482168601909116027fff000000000000000000000000000000000000000000000000000000000000ff9091161790556114fe8282612625565b6001600160a01b0382165f90815260066020526040902080546001600160f01b03610100909104811690831681101561393d576040517f03629ea10000000000000000000000000000000000000000000000000000000081526001600160a01b03851660048201526001600160f01b03808316602483015284166044820152606401610d40565b81546001600160f01b03918490038216610100027fff000000000000000000000000000000000000000000000000000000000000ff9091161790915560058054808316939093039091167fffff00000000000000000000000000000000000000000000000000000000000090921691909117905550565b6001600160a01b0383165f90815260066020526040902080546001600160f01b036101009091048116908416811015613a3b576040517f03629ea10000000000000000000000000000000000000000000000000000000081526001600160a01b03861660048201526001600160f01b03808316602483015285166044820152606401610d40565b81547fff000000000000000000000000000000000000000000000000000000000000ff166101008583036001600160f01b031602178255610ef88484611ee8565b5f816fffffffffffffffffffffffffffffffff165f03613ac8576040517f23d359a300000000000000000000000000000000000000000000000000000000815260040160405180910390fd5b610e056fffffffffffffffffffffffffffffffff83166001600160f01b03851664e8d4a510000281613afc57613afc614411565b04613d5a565b5f80601b60ff84901c017f7fffffffffffffffffffffffffffffffffffffffffffffffffffffffffffffff8416613b3b87838884613b72565b935093505050935093915050565b5f816001600160a01b0316836001600160a01b031614613b6a576005610e05565b505f92915050565b5f807f7fffffffffffffffffffffffffffffff5d576e7357a4501ddfe92f46681b20a0831115613ba75750600390505f613c69565b8460ff16601b14158015613bbf57508460ff16601c14155b15613bcf5750600490505f613c69565b604080515f81526020810180835288905260ff871691810191909152606081018590526080810184905260019060a0016020604051602081039080840390855afa158015613c1f573d5f803e3d5ffd5b50506040517fffffffffffffffffffffffffffffffffffffffffffffffffffffffffffffffe001519150506001600160a01b03811615613c60575f81613c64565b60015f5b915091505b94509492505050565b5f816fffffffffffffffffffffffffffffffff165f03613cbe576040517f23d359a300000000000000000000000000000000000000000000000000000000815260040160405180910390fd5b610e056fffffffffffffffffffffffffffffffff83167fffffffffffffffffffffffffffffffffffffffffffffffffffffffffffffffff6001600160f01b03861664e8d4a510000282010181613afc57613afc614411565b5f808251604114613d2c5750600290505f613d53565b6020830151604084015160608501515f1a9190613d4b87848484613b72565b945094505050505b9250929050565b5f6dffffffffffffffffffffffffffff8211156112b4576040517fca21dbd100000000000000000000000000000000000000000000000000000000815260040160405180910390fd5b80356001600160a01b03811681146128c6575f80fd5b5f60208284031215613dc9575f80fd5b610e0582613da3565b5f81518084528060208401602086015e5f6020828601015260207fffffffffffffffffffffffffffffffffffffffffffffffffffffffffffffffe0601f83011685010191505092915050565b602081525f610e056020830184613dd2565b5f8060408385031215613e41575f80fd5b613e4a83613da3565b946020939093013593505050565b5f805f60608486031215613e6a575f80fd5b613e7384613da3565b9250613e8160208501613da3565b929592945050506040919091013590565b5f805f8060808587031215613ea5575f80fd5b613eae85613da3565b966020860135965060408601359560600135945092505050565b803560ff811681146128c6575f80fd5b5f805f805f60a08688031215613eec575f80fd5b613ef586613da3565b945060208601359350613f0a60408701613ec8565b94979396509394606081013594506080013592915050565b7fff000000000000000000000000000000000000000000000000000000000000008816815260e060208201525f613f5c60e0830189613dd2565b8281036040840152613f6e8189613dd2565b606084018890526001600160a01b038716608085015260a0840186905283810360c0850152845180825260208087019350909101905f5b81811015613fc3578351835260209384019390920191600101613fa5565b50909b9a5050505050505050505050565b7f4e487b71000000000000000000000000000000000000000000000000000000005f52604160045260245ffd5b5f82601f830112614010575f80fd5b813567ffffffffffffffff81111561402a5761402a613fd4565b6040517fffffffffffffffffffffffffffffffffffffffffffffffffffffffffffffffe0603f7fffffffffffffffffffffffffffffffffffffffffffffffffffffffffffffffe0601f8501160116810181811067ffffffffffffffff8211171561409657614096613fd4565b6040528181528382016020018510156140ad575f80fd5b816020850160208301375f918101602001919091529392505050565b5f805f805f805f60e0888a0312156140df575f80fd5b6140e888613da3565b96506140f660208901613da3565b955060408801359450606088013593506080880135925060a0880135915060c088013567ffffffffffffffff81111561412d575f80fd5b6141398a828b01614001565b91505092959891949750929550565b5f805f805f60a0868803121561415c575f80fd5b61416586613da3565b945061417360208701613da3565b93506040860135925060608601359150608086013567ffffffffffffffff81111561419c575f80fd5b6141a888828901614001565b9150509295509295909350565b5f805f805f805f80610100898b0312156141cd575f80fd5b6141d689613da3565b97506141e460208a01613da3565b979a9799505050506040860135956060810135956080820135955060a0820135945060c0820135935060e0909101359150565b5f805f60608486031215614229575f80fd5b61423284613da3565b925060208401359150604084013567ffffffffffffffff811115614254575f80fd5b61426086828701614001565b9150509250925092565b5f805f805f805f60e0888a031215614280575f80fd5b61428988613da3565b965061429760208901613da3565b955060408801359450606088013593506142b360808901613ec8565b9699959850939692959460a0840135945060c09093013592915050565b5f80604083850312156142e1575f80fd5b6142ea83613da3565b91506142f860208401613da3565b90509250929050565b5f805f805f805f805f6101208a8c03121561431a575f80fd5b6143238a613da3565b985061433160208b01613da3565b975060408a0135965060608a0135955060808a0135945060a08a0135935061435b60c08b01613ec8565b989b979a50959894979396929550929360e081013593506101000135919050565b5f6020828403121561438c575f80fd5b5051919050565b7f4e487b71000000000000000000000000000000000000000000000000000000005f52601160045260245ffd5b6001600160f01b038181168382160190811115610a2757610a27614393565b80820180821115610a2757610a27614393565b5f60208284031215614402575f80fd5b81518015158114610e05575f80fd5b7f4e487b71000000000000000000000000000000000000000000000000000000005f52601260045260245ffd5b5f82614471577f4e487b71000000000000000000000000000000000000000000000000000000005f52601260045260245ffd5b500690565b81810381811115610a2757610a27614393565b7f4e487b71000000000000000000000000000000000000000000000000000000005f52603260045260245ffd5b5f7fffffffffffffffffffffffffffffffffffffffffffffffffffffffffffffffff82036144e6576144e6614393565b5060010190565b5f602082840312156144fd575f80fd5b81516fffffffffffffffffffffffffffffffff81168114610e05575f80fd5b7f4e487b71000000000000000000000000000000000000000000000000000000005f52602160045260245ffd5b828152604060208201525f6145616040830184613dd2565b949350505050565b5f82518060208501845e5f92019182525091905056fea264697066735822122056496cc4000dca783e427bd70d6a1ccda1a9cb949121293f29fd40d4e5d7f98a64736f6c634300081a0033000000000000000000000000866a2bf4e572cbcf37d5071a7a58503bfb36be1b000000000000000000000000119fbeedd4f4f4298fb59b720d5654442b81ae2c0000000000000000000000003349e443068f76666789c4f76f00d9c4f38a4dde000000000000000000000000f2f1acbe0ba726fee8d75f3e32900526874740bb",
        "nonce": "0x27",
        "chainId": "0x18232"
      },
      "additionalContracts": [],
      "isFixedGasLimit": false
    },
    {
      "hash": "0x08165c951f8ceeebeb0e9b2881144447536152d2c67626c5449d410088ca8a50",
      "transactionType": "CREATE",
      "contractName": "ERC1967Proxy",
      "contractAddress": "0x437cc33344a0b27a429f795ff6b469c72698b291",
      "function": null,
      "arguments": [
        "0x813B926B1D096e117721bD1Eb017FbA122302DA0",
        "0x"
      ],
      "transaction": {
        "from": "0xf2f1acbe0ba726fee8d75f3e32900526874740bb",
        "gas": "0x29aa8",
        "value": "0x0",
        "input": "0x60806040526040516103dd3803806103dd8339810160408190526100229161023c565b61002c8282610033565b5050610321565b61003c82610091565b6040516001600160a01b038316907fbc7cd75a20ee27fd9adebab32041f755214dbc6bffa90cc0225b39da2e5c2d3b905f90a280511561008557610080828261010c565b505050565b61008d61017f565b5050565b806001600160a01b03163b5f036100cb57604051634c9c8ce360e01b81526001600160a01b03821660048201526024015b60405180910390fd5b7f360894a13ba1a3210667c828492db98dca3e2076cc3735a920a3ca505d382bbc80546001600160a01b0319166001600160a01b0392909216919091179055565b60605f80846001600160a01b031684604051610128919061030b565b5f60405180830381855af49150503d805f8114610160576040519150601f19603f3d011682016040523d82523d5f602084013e610165565b606091505b5090925090506101768583836101a0565b95945050505050565b341561019e5760405163b398979f60e01b815260040160405180910390fd5b565b6060826101b5576101b0826101ff565b6101f8565b81511580156101cc57506001600160a01b0384163b155b156101f557604051639996b31560e01b81526001600160a01b03851660048201526024016100c2565b50805b9392505050565b80511561020f5780518082602001fd5b60405163d6bda27560e01b815260040160405180910390fd5b634e487b7160e01b5f52604160045260245ffd5b5f806040838503121561024d575f80fd5b82516001600160a01b0381168114610263575f80fd5b60208401519092506001600160401b0381111561027e575f80fd5b8301601f8101851361028e575f80fd5b80516001600160401b038111156102a7576102a7610228565b604051601f8201601f19908116603f011681016001600160401b03811182821017156102d5576102d5610228565b6040528181528282016020018710156102ec575f80fd5b8160208401602083015e5f602083830101528093505050509250929050565b5f82518060208501845e5f920191825250919050565b60b08061032d5f395ff3fe6080604052600a600c565b005b60186014601a565b605d565b565b5f60587f360894a13ba1a3210667c828492db98dca3e2076cc3735a920a3ca505d382bbc5473ffffffffffffffffffffffffffffffffffffffff1690565b905090565b365f80375f80365f845af43d5f803e8080156076573d5ff35b3d5ffdfea2646970667358221220235077aeb2ddadd8a33ba3e240b110e0341538b2f43ca3e7c2c8d7794680257a64736f6c634300081a0033000000000000000000000000813b926b1d096e117721bd1eb017fba122302da000000000000000000000000000000000000000000000000000000000000000400000000000000000000000000000000000000000000000000000000000000000",
        "nonce": "0x28",
        "chainId": "0x18232"
      },
      "additionalContracts": [],
      "isFixedGasLimit": false
    }
  ],
  "receipts": [
    {
      "status": "0x1",
      "cumulativeGasUsed": "0x82acc",
      "logs": [],
      "logsBloom": "0x00000000000000000000000000000000000000000000000000000000000000000000000000000000000000000000000000000000000000000000000000000000000000000000000000000000000000000000000000000000000000000000000000000000000000000000000000000000000000000000000000000000000000000000000000000000000000000000000000000000000000000000000000000000000000000000000000000000000000000000000000000000000000000000000000000000000000000000000000000000000000000000000000000000000000000000000000000000000000000000000000000000000000000000000000000000",
      "type": "0x2",
      "transactionHash": "0xca15603150c080651a8d8d53e9df37b7923106e6da6eed533fbd76ab8a594549",
      "transactionIndex": "0x1",
      "blockHash": "0xee3a86071cc1c6d8da2d01b4cf9b474db037e7e9ce92fa618fc2ec320083c467",
      "blockNumber": "0x34f73d",
      "gasUsed": "0x82acc",
      "effectiveGasPrice": "0xe8d4a51000",
      "from": "0xf2f1acbe0ba726fee8d75f3e32900526874740bb",
      "to": null,
      "contractAddress": "0xbc1e1838889a9458acd7bb3378b489ce5e1d2c1a",
      "gasUsedForL1": "0x0",
      "l1BlockNumber": "0x15991ae"
    },
    {
      "status": "0x1",
      "cumulativeGasUsed": "0x2a5de",
      "logs": [
        {
          "address": "0xba5ed099633d3b313e4d5f7bdc1305d3c28ba5ed",
          "topics": [
            "0x2feea65dd4e9f9cbd86b74b7734210c59a1b2981b5b137bd0ee3e208200c9067",
            "0x0000000000000000000000000a38ab7e6729a0b8ff1248decfe2c6fd3ed28c21",
            "0x87b0e898fc5a0fe0916bdceaba4204794c142356248bbbbb8746a6aead999f4f"
          ],
          "data": "0x",
          "blockHash": "0xad1bed8753a377e6df1baf449819b676c6660b66514d6fe7ff0915ffc3e7680f",
          "blockNumber": "0x34f73e",
          "transactionHash": "0x380e2c266461defc028959f89b8d1b58e0776ee0e9400d4aab7c6feef041e698",
          "transactionIndex": "0x1",
          "logIndex": "0x0",
          "removed": false
        },
        {
          "address": "0x3349e443068f76666789c4f76f00d9c4f38a4dde",
          "topics": [
            "0xbc7cd75a20ee27fd9adebab32041f755214dbc6bffa90cc0225b39da2e5c2d3b",
            "0x000000000000000000000000bc1e1838889a9458acd7bb3378b489ce5e1d2c1a"
          ],
          "data": "0x",
          "blockHash": "0xad1bed8753a377e6df1baf449819b676c6660b66514d6fe7ff0915ffc3e7680f",
          "blockNumber": "0x34f73e",
          "transactionHash": "0x380e2c266461defc028959f89b8d1b58e0776ee0e9400d4aab7c6feef041e698",
          "transactionIndex": "0x1",
          "logIndex": "0x1",
          "removed": false
        },
        {
          "address": "0xba5ed099633d3b313e4d5f7bdc1305d3c28ba5ed",
          "topics": [
            "0x4db17dd5e4732fb6da34a148104a592783ca119a1e7bb8829eba6cbadef0b511",
            "0x0000000000000000000000003349e443068f76666789c4f76f00d9c4f38a4dde"
          ],
          "data": "0x",
          "blockHash": "0xad1bed8753a377e6df1baf449819b676c6660b66514d6fe7ff0915ffc3e7680f",
          "blockNumber": "0x34f73e",
          "transactionHash": "0x380e2c266461defc028959f89b8d1b58e0776ee0e9400d4aab7c6feef041e698",
          "transactionIndex": "0x1",
          "logIndex": "0x2",
          "removed": false
        }
      ],
      "logsBloom": "0x00020000000000000000000000800000c00000000000000000000000200000000000000000000000000000000000000000000000000004000000000000400000000000000000000000000400020002000000000000000000000000000000040000000000000000000000000000000000004003000022000000000000000000000000000000000000000000000000000000000000000000000000004000040000000000000000000000000000000000000000000000000020000000000000000000000020000000004200000000000000000000002000000001000000100000000000000000000200000000000000000000000000000000040000000000000000",
      "type": "0x2",
      "transactionHash": "0x380e2c266461defc028959f89b8d1b58e0776ee0e9400d4aab7c6feef041e698",
      "transactionIndex": "0x1",
      "blockHash": "0xad1bed8753a377e6df1baf449819b676c6660b66514d6fe7ff0915ffc3e7680f",
      "blockNumber": "0x34f73e",
      "gasUsed": "0x2a5de",
      "effectiveGasPrice": "0xe8d4a51000",
      "from": "0xf2f1acbe0ba726fee8d75f3e32900526874740bb",
      "to": "0xba5ed099633d3b313e4d5f7bdc1305d3c28ba5ed",
      "contractAddress": null,
      "gasUsedForL1": "0x0",
      "l1BlockNumber": "0x15991ae"
    },
    {
      "status": "0x1",
      "cumulativeGasUsed": "0x5208",
      "logs": [],
      "logsBloom": "0x00000000000000000000000000000000000000000000000000000000000000000000000000000000000000000000000000000000000000000000000000000000000000000000000000000000000000000000000000000000000000000000000000000000000000000000000000000000000000000000000000000000000000000000000000000000000000000000000000000000000000000000000000000000000000000000000000000000000000000000000000000000000000000000000000000000000000000000000000000000000000000000000000000000000000000000000000000000000000000000000000000000000000000000000000000000",
      "type": "0x2",
      "transactionHash": "0x7c45d8e988399e8972ae413283997c41edbd90fa7875f5087b070b942047e890",
      "transactionIndex": "0x1",
      "blockHash": "0x72abf5d2f0f815d2f951d9f6a8af69ab2fd852688dec1436a121da3665cddf7b",
      "blockNumber": "0x34f73f",
      "gasUsed": "0x5208",
      "effectiveGasPrice": "0xe8d4a51000",
      "from": "0xf2f1acbe0ba726fee8d75f3e32900526874740bb",
      "to": "0xf2f1acbe0ba726fee8d75f3e32900526874740bb",
      "contractAddress": null,
      "gasUsedForL1": "0x0",
      "l1BlockNumber": "0x15991ae"
    },
    {
      "status": "0x1",
      "cumulativeGasUsed": "0x5208",
      "logs": [],
      "logsBloom": "0x00000000000000000000000000000000000000000000000000000000000000000000000000000000000000000000000000000000000000000000000000000000000000000000000000000000000000000000000000000000000000000000000000000000000000000000000000000000000000000000000000000000000000000000000000000000000000000000000000000000000000000000000000000000000000000000000000000000000000000000000000000000000000000000000000000000000000000000000000000000000000000000000000000000000000000000000000000000000000000000000000000000000000000000000000000000",
      "type": "0x2",
      "transactionHash": "0x676587148c6090d06cd5469a8ad8d6ec55c5a0073dbbf18b20ff4eb6a976f2d5",
      "transactionIndex": "0x1",
      "blockHash": "0x21102ed1d3b363ca6eea1ba9820e3783b843ca884ec7cbcaa80dc98e39473be0",
      "blockNumber": "0x34f740",
      "gasUsed": "0x5208",
      "effectiveGasPrice": "0xe8d4a51000",
      "from": "0xf2f1acbe0ba726fee8d75f3e32900526874740bb",
      "to": "0xf2f1acbe0ba726fee8d75f3e32900526874740bb",
      "contractAddress": null,
      "gasUsedForL1": "0x0",
      "l1BlockNumber": "0x15991ae"
    },
    {
      "status": "0x1",
      "cumulativeGasUsed": "0x5208",
      "logs": [],
      "logsBloom": "0x00000000000000000000000000000000000000000000000000000000000000000000000000000000000000000000000000000000000000000000000000000000000000000000000000000000000000000000000000000000000000000000000000000000000000000000000000000000000000000000000000000000000000000000000000000000000000000000000000000000000000000000000000000000000000000000000000000000000000000000000000000000000000000000000000000000000000000000000000000000000000000000000000000000000000000000000000000000000000000000000000000000000000000000000000000000",
      "type": "0x2",
      "transactionHash": "0x61d2845616043a44b67f3aa5c211bf386379cd85f4c1f52d78eb84dd15a1ffa1",
      "transactionIndex": "0x1",
      "blockHash": "0xd9ee9af09a6883b6756abc7a9a9e0d0c4af4563e189737352de85059f632faa8",
      "blockNumber": "0x34f742",
      "gasUsed": "0x5208",
      "effectiveGasPrice": "0xe8d4a51000",
      "from": "0xf2f1acbe0ba726fee8d75f3e32900526874740bb",
      "to": "0xf2f1acbe0ba726fee8d75f3e32900526874740bb",
      "contractAddress": null,
      "gasUsedForL1": "0x0",
      "l1BlockNumber": "0x15991ae"
    },
    {
      "status": "0x1",
      "cumulativeGasUsed": "0x5208",
      "logs": [],
      "logsBloom": "0x00000000000000000000000000000000000000000000000000000000000000000000000000000000000000000000000000000000000000000000000000000000000000000000000000000000000000000000000000000000000000000000000000000000000000000000000000000000000000000000000000000000000000000000000000000000000000000000000000000000000000000000000000000000000000000000000000000000000000000000000000000000000000000000000000000000000000000000000000000000000000000000000000000000000000000000000000000000000000000000000000000000000000000000000000000000",
      "type": "0x2",
      "transactionHash": "0x9bad86d9751d3efe203471d3e063e9b2da0c14761eaf78e009eb2a98c151437b",
      "transactionIndex": "0x1",
      "blockHash": "0xc0af30b0ffd961f4ca3417286ed27bf673ee27616e93c778ff793e13d71ca6fe",
      "blockNumber": "0x34f744",
      "gasUsed": "0x5208",
      "effectiveGasPrice": "0xe8d4a51000",
      "from": "0xf2f1acbe0ba726fee8d75f3e32900526874740bb",
      "to": "0xf2f1acbe0ba726fee8d75f3e32900526874740bb",
      "contractAddress": null,
      "gasUsedForL1": "0x0",
      "l1BlockNumber": "0x15991ae"
    },
    {
      "status": "0x1",
      "cumulativeGasUsed": "0x5208",
      "logs": [],
      "logsBloom": "0x00000000000000000000000000000000000000000000000000000000000000000000000000000000000000000000000000000000000000000000000000000000000000000000000000000000000000000000000000000000000000000000000000000000000000000000000000000000000000000000000000000000000000000000000000000000000000000000000000000000000000000000000000000000000000000000000000000000000000000000000000000000000000000000000000000000000000000000000000000000000000000000000000000000000000000000000000000000000000000000000000000000000000000000000000000000",
      "type": "0x2",
      "transactionHash": "0xf837cb262ddbfdf71027b056a521ab3fe4229517c5c2ea6d469c84a2c8f18a20",
      "transactionIndex": "0x1",
      "blockHash": "0x84e69ba4e4e891ddc2e6a819ddf2ac58c02785698ff00e5c4c35d2deb05a649b",
      "blockNumber": "0x34f745",
      "gasUsed": "0x5208",
      "effectiveGasPrice": "0xe8d4a51000",
      "from": "0xf2f1acbe0ba726fee8d75f3e32900526874740bb",
      "to": "0xf2f1acbe0ba726fee8d75f3e32900526874740bb",
      "contractAddress": null,
      "gasUsedForL1": "0x0",
      "l1BlockNumber": "0x15991ae"
    },
    {
      "status": "0x1",
      "cumulativeGasUsed": "0x5208",
      "logs": [],
      "logsBloom": "0x00000000000000000000000000000000000000000000000000000000000000000000000000000000000000000000000000000000000000000000000000000000000000000000000000000000000000000000000000000000000000000000000000000000000000000000000000000000000000000000000000000000000000000000000000000000000000000000000000000000000000000000000000000000000000000000000000000000000000000000000000000000000000000000000000000000000000000000000000000000000000000000000000000000000000000000000000000000000000000000000000000000000000000000000000000000",
      "type": "0x2",
      "transactionHash": "0x33affe4c70f43326b9fcab67fca1121e187078f2e7ec2779db6c68c396377885",
      "transactionIndex": "0x1",
      "blockHash": "0x101023785bb3f5e11822cc9076c0f1a9cf27b2d3b3442875d1d286ead6becd03",
      "blockNumber": "0x34f746",
      "gasUsed": "0x5208",
      "effectiveGasPrice": "0xe8d4a51000",
      "from": "0xf2f1acbe0ba726fee8d75f3e32900526874740bb",
      "to": "0xf2f1acbe0ba726fee8d75f3e32900526874740bb",
      "contractAddress": null,
      "gasUsedForL1": "0x0",
      "l1BlockNumber": "0x15991ae"
    },
    {
      "status": "0x1",
      "cumulativeGasUsed": "0x5208",
      "logs": [],
      "logsBloom": "0x00000000000000000000000000000000000000000000000000000000000000000000000000000000000000000000000000000000000000000000000000000000000000000000000000000000000000000000000000000000000000000000000000000000000000000000000000000000000000000000000000000000000000000000000000000000000000000000000000000000000000000000000000000000000000000000000000000000000000000000000000000000000000000000000000000000000000000000000000000000000000000000000000000000000000000000000000000000000000000000000000000000000000000000000000000000",
      "type": "0x2",
      "transactionHash": "0xaf7fed7318ca199da018b6a73f16c49f2e67bff56ec3b134a3317756ed662576",
      "transactionIndex": "0x1",
      "blockHash": "0xffc7c9442431c135a88477e379cff26778288ed6804e49109baf9818815ff77f",
      "blockNumber": "0x34f748",
      "gasUsed": "0x5208",
      "effectiveGasPrice": "0xe8d4a51000",
      "from": "0xf2f1acbe0ba726fee8d75f3e32900526874740bb",
      "to": "0xf2f1acbe0ba726fee8d75f3e32900526874740bb",
      "contractAddress": null,
      "gasUsedForL1": "0x0",
      "l1BlockNumber": "0x15991ae"
    },
    {
      "status": "0x1",
      "cumulativeGasUsed": "0x5208",
      "logs": [],
      "logsBloom": "0x00000000000000000000000000000000000000000000000000000000000000000000000000000000000000000000000000000000000000000000000000000000000000000000000000000000000000000000000000000000000000000000000000000000000000000000000000000000000000000000000000000000000000000000000000000000000000000000000000000000000000000000000000000000000000000000000000000000000000000000000000000000000000000000000000000000000000000000000000000000000000000000000000000000000000000000000000000000000000000000000000000000000000000000000000000000",
      "type": "0x2",
      "transactionHash": "0x9b33d0443697f5a9afc0e104acca3e50ec5d46c5417bdeff40aed59c31815022",
      "transactionIndex": "0x1",
      "blockHash": "0x28d73c97e6a0984650a8b35213e3847b8b6e1046d5fc9203ec99a33df13e4e5c",
      "blockNumber": "0x34f74a",
      "gasUsed": "0x5208",
      "effectiveGasPrice": "0xe8d4a51000",
      "from": "0xf2f1acbe0ba726fee8d75f3e32900526874740bb",
      "to": "0xf2f1acbe0ba726fee8d75f3e32900526874740bb",
      "contractAddress": null,
      "gasUsedForL1": "0x0",
      "l1BlockNumber": "0x15991ae"
    },
    {
      "status": "0x1",
      "cumulativeGasUsed": "0x5208",
      "logs": [],
      "logsBloom": "0x00000000000000000000000000000000000000000000000000000000000000000000000000000000000000000000000000000000000000000000000000000000000000000000000000000000000000000000000000000000000000000000000000000000000000000000000000000000000000000000000000000000000000000000000000000000000000000000000000000000000000000000000000000000000000000000000000000000000000000000000000000000000000000000000000000000000000000000000000000000000000000000000000000000000000000000000000000000000000000000000000000000000000000000000000000000",
      "type": "0x2",
      "transactionHash": "0x52a4f12da0ea5d1e1c2fe9167b1df213395d9590ad6bdc5a245d3a30899c7fc4",
      "transactionIndex": "0x1",
      "blockHash": "0x467e23787b790aa4eb88c96d77a10721821972e81715f39f1380ed756b6a7a93",
      "blockNumber": "0x34f74c",
      "gasUsed": "0x5208",
      "effectiveGasPrice": "0xe8d4a51000",
      "from": "0xf2f1acbe0ba726fee8d75f3e32900526874740bb",
      "to": "0xf2f1acbe0ba726fee8d75f3e32900526874740bb",
      "contractAddress": null,
      "gasUsedForL1": "0x0",
      "l1BlockNumber": "0x15991ae"
    },
    {
      "status": "0x1",
      "cumulativeGasUsed": "0x5208",
      "logs": [],
      "logsBloom": "0x00000000000000000000000000000000000000000000000000000000000000000000000000000000000000000000000000000000000000000000000000000000000000000000000000000000000000000000000000000000000000000000000000000000000000000000000000000000000000000000000000000000000000000000000000000000000000000000000000000000000000000000000000000000000000000000000000000000000000000000000000000000000000000000000000000000000000000000000000000000000000000000000000000000000000000000000000000000000000000000000000000000000000000000000000000000",
      "type": "0x2",
      "transactionHash": "0x9718f7784bfdfc5837d48db4adafeebc7f5277cf6c1720afa06d01761df9ffa1",
      "transactionIndex": "0x1",
      "blockHash": "0xa2fbe053c40db5514d3396ce9149534577327d265ee6898e09dcfa2f08317d3b",
      "blockNumber": "0x34f74e",
      "gasUsed": "0x5208",
      "effectiveGasPrice": "0xe8d4a51000",
      "from": "0xf2f1acbe0ba726fee8d75f3e32900526874740bb",
      "to": "0xf2f1acbe0ba726fee8d75f3e32900526874740bb",
      "contractAddress": null,
      "gasUsedForL1": "0x0",
      "l1BlockNumber": "0x15991ae"
    },
    {
      "status": "0x1",
      "cumulativeGasUsed": "0x5208",
      "logs": [],
      "logsBloom": "0x00000000000000000000000000000000000000000000000000000000000000000000000000000000000000000000000000000000000000000000000000000000000000000000000000000000000000000000000000000000000000000000000000000000000000000000000000000000000000000000000000000000000000000000000000000000000000000000000000000000000000000000000000000000000000000000000000000000000000000000000000000000000000000000000000000000000000000000000000000000000000000000000000000000000000000000000000000000000000000000000000000000000000000000000000000000",
      "type": "0x2",
      "transactionHash": "0xc022287a01b20dd654fbdd79b28b84005c9f3a3479d5c6e541420f901237a7c1",
      "transactionIndex": "0x1",
      "blockHash": "0x5d226088d6860dc620426940180c42e8030b2546147d50c2383cbd1323efcf65",
      "blockNumber": "0x34f750",
      "gasUsed": "0x5208",
      "effectiveGasPrice": "0xe8d4a51000",
      "from": "0xf2f1acbe0ba726fee8d75f3e32900526874740bb",
      "to": "0xf2f1acbe0ba726fee8d75f3e32900526874740bb",
      "contractAddress": null,
      "gasUsedForL1": "0x0",
      "l1BlockNumber": "0x15991ae"
    },
    {
      "status": "0x1",
      "cumulativeGasUsed": "0x5208",
      "logs": [],
      "logsBloom": "0x00000000000000000000000000000000000000000000000000000000000000000000000000000000000000000000000000000000000000000000000000000000000000000000000000000000000000000000000000000000000000000000000000000000000000000000000000000000000000000000000000000000000000000000000000000000000000000000000000000000000000000000000000000000000000000000000000000000000000000000000000000000000000000000000000000000000000000000000000000000000000000000000000000000000000000000000000000000000000000000000000000000000000000000000000000000",
      "type": "0x2",
      "transactionHash": "0x14b56ea9ae9be1e0598e7d1c8839a60f665001b2e91d9e26f2cff8880d7efb37",
      "transactionIndex": "0x1",
      "blockHash": "0xb90e2f4516544954cd6b9c3b8072600cc44a422809642100ee9b3c7fd2c76aab",
      "blockNumber": "0x34f752",
      "gasUsed": "0x5208",
      "effectiveGasPrice": "0xe8d4a51000",
      "from": "0xf2f1acbe0ba726fee8d75f3e32900526874740bb",
      "to": "0xf2f1acbe0ba726fee8d75f3e32900526874740bb",
      "contractAddress": null,
      "gasUsedForL1": "0x0",
      "l1BlockNumber": "0x15991ae"
    },
    {
      "status": "0x1",
      "cumulativeGasUsed": "0x5208",
      "logs": [],
      "logsBloom": "0x00000000000000000000000000000000000000000000000000000000000000000000000000000000000000000000000000000000000000000000000000000000000000000000000000000000000000000000000000000000000000000000000000000000000000000000000000000000000000000000000000000000000000000000000000000000000000000000000000000000000000000000000000000000000000000000000000000000000000000000000000000000000000000000000000000000000000000000000000000000000000000000000000000000000000000000000000000000000000000000000000000000000000000000000000000000",
      "type": "0x2",
      "transactionHash": "0xa470a5cc5a0bd3965b2c36d47df5ba761ca7edc536beb956fa7066b070c2cc5d",
      "transactionIndex": "0x1",
      "blockHash": "0xe17b6bc20222a1bf05a6a006c4a273c3642ad9217ded2ada7d52d31d3bb1a62b",
      "blockNumber": "0x34f753",
      "gasUsed": "0x5208",
      "effectiveGasPrice": "0xe8d4a51000",
      "from": "0xf2f1acbe0ba726fee8d75f3e32900526874740bb",
      "to": "0xf2f1acbe0ba726fee8d75f3e32900526874740bb",
      "contractAddress": null,
      "gasUsedForL1": "0x0",
      "l1BlockNumber": "0x15991ae"
    },
    {
      "status": "0x1",
      "cumulativeGasUsed": "0x5208",
      "logs": [],
      "logsBloom": "0x00000000000000000000000000000000000000000000000000000000000000000000000000000000000000000000000000000000000000000000000000000000000000000000000000000000000000000000000000000000000000000000000000000000000000000000000000000000000000000000000000000000000000000000000000000000000000000000000000000000000000000000000000000000000000000000000000000000000000000000000000000000000000000000000000000000000000000000000000000000000000000000000000000000000000000000000000000000000000000000000000000000000000000000000000000000",
      "type": "0x2",
      "transactionHash": "0xb599e30b06796874eecd88357c5c5666dce568c0401754fa2d3c9462a6008de3",
      "transactionIndex": "0x1",
      "blockHash": "0xa4a6917674d49f38ff57577dabb9e16de0f19a15587db78651f54ca63ef8774d",
      "blockNumber": "0x34f755",
      "gasUsed": "0x5208",
      "effectiveGasPrice": "0xe8d4a51000",
      "from": "0xf2f1acbe0ba726fee8d75f3e32900526874740bb",
      "to": "0xf2f1acbe0ba726fee8d75f3e32900526874740bb",
      "contractAddress": null,
      "gasUsedForL1": "0x0",
      "l1BlockNumber": "0x15991ae"
    },
    {
      "status": "0x1",
      "cumulativeGasUsed": "0x5208",
      "logs": [],
      "logsBloom": "0x00000000000000000000000000000000000000000000000000000000000000000000000000000000000000000000000000000000000000000000000000000000000000000000000000000000000000000000000000000000000000000000000000000000000000000000000000000000000000000000000000000000000000000000000000000000000000000000000000000000000000000000000000000000000000000000000000000000000000000000000000000000000000000000000000000000000000000000000000000000000000000000000000000000000000000000000000000000000000000000000000000000000000000000000000000000",
      "type": "0x2",
      "transactionHash": "0x4ffb7b7da19bf30eda6ab409a8a53f0875e7baad4a51864ba1781444942453db",
      "transactionIndex": "0x1",
      "blockHash": "0xfb095c81f4b5d1c6aa9f1102be5b7874da1c6c6d050db60c4809c3ea53dfa953",
      "blockNumber": "0x34f757",
      "gasUsed": "0x5208",
      "effectiveGasPrice": "0xe8d4a51000",
      "from": "0xf2f1acbe0ba726fee8d75f3e32900526874740bb",
      "to": "0xf2f1acbe0ba726fee8d75f3e32900526874740bb",
      "contractAddress": null,
      "gasUsedForL1": "0x0",
      "l1BlockNumber": "0x15991ae"
    },
    {
      "status": "0x1",
      "cumulativeGasUsed": "0x5208",
      "logs": [],
      "logsBloom": "0x00000000000000000000000000000000000000000000000000000000000000000000000000000000000000000000000000000000000000000000000000000000000000000000000000000000000000000000000000000000000000000000000000000000000000000000000000000000000000000000000000000000000000000000000000000000000000000000000000000000000000000000000000000000000000000000000000000000000000000000000000000000000000000000000000000000000000000000000000000000000000000000000000000000000000000000000000000000000000000000000000000000000000000000000000000000",
      "type": "0x2",
      "transactionHash": "0x67b9f721eeecefb240d08931437e431a3e71ccad90cee722d8479bcdfeb45161",
      "transactionIndex": "0x1",
      "blockHash": "0x462ab4561fa1537c21379806395125bab2e10da4c5bac7f91d2d976f908b5359",
      "blockNumber": "0x34f758",
      "gasUsed": "0x5208",
      "effectiveGasPrice": "0xe8d4a51000",
      "from": "0xf2f1acbe0ba726fee8d75f3e32900526874740bb",
      "to": "0xf2f1acbe0ba726fee8d75f3e32900526874740bb",
      "contractAddress": null,
      "gasUsedForL1": "0x0",
      "l1BlockNumber": "0x15991b0"
    },
    {
      "status": "0x1",
      "cumulativeGasUsed": "0x5208",
      "logs": [],
      "logsBloom": "0x00000000000000000000000000000000000000000000000000000000000000000000000000000000000000000000000000000000000000000000000000000000000000000000000000000000000000000000000000000000000000000000000000000000000000000000000000000000000000000000000000000000000000000000000000000000000000000000000000000000000000000000000000000000000000000000000000000000000000000000000000000000000000000000000000000000000000000000000000000000000000000000000000000000000000000000000000000000000000000000000000000000000000000000000000000000",
      "type": "0x2",
      "transactionHash": "0x1dfebaf5ca5b12d18a4133db116ca14807e774644515d9424f379028126d4eba",
      "transactionIndex": "0x1",
      "blockHash": "0x9319925d4f5793a378fbc11bb8524eaac5e345a2f83a6762e0574bbdc3e8139a",
      "blockNumber": "0x34f75a",
      "gasUsed": "0x5208",
      "effectiveGasPrice": "0xe8d4a51000",
      "from": "0xf2f1acbe0ba726fee8d75f3e32900526874740bb",
      "to": "0xf2f1acbe0ba726fee8d75f3e32900526874740bb",
      "contractAddress": null,
      "gasUsedForL1": "0x0",
      "l1BlockNumber": "0x15991b0"
    },
    {
      "status": "0x1",
      "cumulativeGasUsed": "0x5208",
      "logs": [],
      "logsBloom": "0x00000000000000000000000000000000000000000000000000000000000000000000000000000000000000000000000000000000000000000000000000000000000000000000000000000000000000000000000000000000000000000000000000000000000000000000000000000000000000000000000000000000000000000000000000000000000000000000000000000000000000000000000000000000000000000000000000000000000000000000000000000000000000000000000000000000000000000000000000000000000000000000000000000000000000000000000000000000000000000000000000000000000000000000000000000000",
      "type": "0x2",
      "transactionHash": "0x5cfa6bc98851486d4e45679986aa3b06c0633517b3760540a900f0f98716b940",
      "transactionIndex": "0x1",
      "blockHash": "0x6ac98c10a11f067350b554e81bde03e0db2d8f7d12053e3970dd1c6b924bb485",
      "blockNumber": "0x34f75b",
      "gasUsed": "0x5208",
      "effectiveGasPrice": "0xe8d4a51000",
      "from": "0xf2f1acbe0ba726fee8d75f3e32900526874740bb",
      "to": "0xf2f1acbe0ba726fee8d75f3e32900526874740bb",
      "contractAddress": null,
      "gasUsedForL1": "0x0",
      "l1BlockNumber": "0x15991b0"
    },
    {
      "status": "0x1",
      "cumulativeGasUsed": "0x5208",
      "logs": [],
      "logsBloom": "0x00000000000000000000000000000000000000000000000000000000000000000000000000000000000000000000000000000000000000000000000000000000000000000000000000000000000000000000000000000000000000000000000000000000000000000000000000000000000000000000000000000000000000000000000000000000000000000000000000000000000000000000000000000000000000000000000000000000000000000000000000000000000000000000000000000000000000000000000000000000000000000000000000000000000000000000000000000000000000000000000000000000000000000000000000000000",
      "type": "0x2",
      "transactionHash": "0xb6c07174258d405f70a6e82a643d93e6c1f61f42ef5527981a196c19059b3a7e",
      "transactionIndex": "0x1",
      "blockHash": "0x88bc7c63002d0026d051a402a95e4addd0e0bdbaaeb93f0901a01de54bfc3e12",
      "blockNumber": "0x34f75c",
      "gasUsed": "0x5208",
      "effectiveGasPrice": "0xe8d4a51000",
      "from": "0xf2f1acbe0ba726fee8d75f3e32900526874740bb",
      "to": "0xf2f1acbe0ba726fee8d75f3e32900526874740bb",
      "contractAddress": null,
      "gasUsedForL1": "0x0",
      "l1BlockNumber": "0x15991b0"
    },
    {
      "status": "0x1",
      "cumulativeGasUsed": "0xa4b1",
      "logs": [],
      "logsBloom": "0x00000000000000000000000000000000000000000000000000000000000000000000000000000000000000000000000000000000000000000000000000000000000000000000000000000000000000000000000000000000000000000000000000000000000000000000000000000000000000000000000000000000000000000000000000000000000000000000000000000000000000000000000000000000000000000000000000000000000000000000000000000000000000000000000000000000000000000000000000000000000000000000000000000000000000000000000000000000000000000000000000000000000000000000000000000000",
      "type": "0x2",
      "transactionHash": "0x3b1b986b6ddf7f0156d887fba5b290ae34ce0279225ea0a6007d1b2d58080222",
      "transactionIndex": "0x2",
      "blockHash": "0x2a65e101d5b9e421aaa87ffbaa87f8dc8cacbd46fec0ed7e03c27a08a1886e04",
      "blockNumber": "0x34f75e",
      "gasUsed": "0x5208",
      "effectiveGasPrice": "0xe8d4a51000",
      "from": "0xf2f1acbe0ba726fee8d75f3e32900526874740bb",
      "to": "0xf2f1acbe0ba726fee8d75f3e32900526874740bb",
      "contractAddress": null,
      "gasUsedForL1": "0x0",
      "l1BlockNumber": "0x15991b0"
    },
    {
      "status": "0x1",
      "cumulativeGasUsed": "0x5208",
      "logs": [],
      "logsBloom": "0x00000000000000000000000000000000000000000000000000000000000000000000000000000000000000000000000000000000000000000000000000000000000000000000000000000000000000000000000000000000000000000000000000000000000000000000000000000000000000000000000000000000000000000000000000000000000000000000000000000000000000000000000000000000000000000000000000000000000000000000000000000000000000000000000000000000000000000000000000000000000000000000000000000000000000000000000000000000000000000000000000000000000000000000000000000000",
      "type": "0x2",
      "transactionHash": "0x7829d0efd4c90476bd0263396b62f65e5a728afd58f02d4a29d4a55a7dde69d7",
      "transactionIndex": "0x1",
      "blockHash": "0x919452e6a641d3995edcf893b3f3af13316bacbfdf7c62c9d2c9181d8da2b91a",
      "blockNumber": "0x34f760",
      "gasUsed": "0x5208",
      "effectiveGasPrice": "0xe8d4a51000",
      "from": "0xf2f1acbe0ba726fee8d75f3e32900526874740bb",
      "to": "0xf2f1acbe0ba726fee8d75f3e32900526874740bb",
      "contractAddress": null,
      "gasUsedForL1": "0x0",
      "l1BlockNumber": "0x15991b0"
    },
    {
      "status": "0x1",
      "cumulativeGasUsed": "0x5208",
      "logs": [],
      "logsBloom": "0x00000000000000000000000000000000000000000000000000000000000000000000000000000000000000000000000000000000000000000000000000000000000000000000000000000000000000000000000000000000000000000000000000000000000000000000000000000000000000000000000000000000000000000000000000000000000000000000000000000000000000000000000000000000000000000000000000000000000000000000000000000000000000000000000000000000000000000000000000000000000000000000000000000000000000000000000000000000000000000000000000000000000000000000000000000000",
      "type": "0x2",
      "transactionHash": "0x432c6c9d713df6089d8ae76394a1539b16e34879cc8d5e99a886782b9b0d7cec",
      "transactionIndex": "0x1",
      "blockHash": "0x2056620a2313767f47df4bf9c6942ff46b8dc642f496850074d68684c8b57a08",
      "blockNumber": "0x34f762",
      "gasUsed": "0x5208",
      "effectiveGasPrice": "0xe8d4a51000",
      "from": "0xf2f1acbe0ba726fee8d75f3e32900526874740bb",
      "to": "0xf2f1acbe0ba726fee8d75f3e32900526874740bb",
      "contractAddress": null,
      "gasUsedForL1": "0x0",
      "l1BlockNumber": "0x15991b0"
    },
    {
      "status": "0x1",
      "cumulativeGasUsed": "0x5208",
      "logs": [],
      "logsBloom": "0x00000000000000000000000000000000000000000000000000000000000000000000000000000000000000000000000000000000000000000000000000000000000000000000000000000000000000000000000000000000000000000000000000000000000000000000000000000000000000000000000000000000000000000000000000000000000000000000000000000000000000000000000000000000000000000000000000000000000000000000000000000000000000000000000000000000000000000000000000000000000000000000000000000000000000000000000000000000000000000000000000000000000000000000000000000000",
      "type": "0x2",
      "transactionHash": "0x9d4049fba8f839f65a8638c6289a050a6bc61e4526dc5c42fa0315b9bdecd1d0",
      "transactionIndex": "0x1",
      "blockHash": "0x5a520a26a95e125ccf354922d8aa2f66c47461e423ceb20b220b5fe0442229bb",
      "blockNumber": "0x34f764",
      "gasUsed": "0x5208",
      "effectiveGasPrice": "0xe8d4a51000",
      "from": "0xf2f1acbe0ba726fee8d75f3e32900526874740bb",
      "to": "0xf2f1acbe0ba726fee8d75f3e32900526874740bb",
      "contractAddress": null,
      "gasUsedForL1": "0x0",
      "l1BlockNumber": "0x15991b0"
    },
    {
      "status": "0x1",
      "cumulativeGasUsed": "0x7fac8",
      "logs": [],
      "logsBloom": "0x00000000000000000000000000000000000000000000000000000000000000000000000000000000000000000000000000000000000000000000000000000000000000000000000000000000000000000000000000000000000000000000000000000000000000000000000000000000000000000000000000000000000000000000000000000000000000000000000000000000000000000000000000000000000000000000000000000000000000000000000000000000000000000000000000000000000000000000000000000000000000000000000000000000000000000000000000000000000000000000000000000000000000000000000000000000",
      "type": "0x2",
      "transactionHash": "0x1b8052ea765cd948ed9ca84b05b7c681819a3544c026fa54bbe96e92713127ef",
      "transactionIndex": "0x2",
      "blockHash": "0x3e18c7491e4e5672bb859e8f1c2d102dcbf812d9c3bd9b21ea19175e677f26fb",
      "blockNumber": "0x34f766",
      "gasUsed": "0x5208",
      "effectiveGasPrice": "0xe8d4a51000",
      "from": "0xf2f1acbe0ba726fee8d75f3e32900526874740bb",
      "to": "0xf2f1acbe0ba726fee8d75f3e32900526874740bb",
      "contractAddress": null,
      "gasUsedForL1": "0x0",
      "l1BlockNumber": "0x15991b0"
    },
    {
      "status": "0x1",
      "cumulativeGasUsed": "0x5208",
      "logs": [],
      "logsBloom": "0x00000000000000000000000000000000000000000000000000000000000000000000000000000000000000000000000000000000000000000000000000000000000000000000000000000000000000000000000000000000000000000000000000000000000000000000000000000000000000000000000000000000000000000000000000000000000000000000000000000000000000000000000000000000000000000000000000000000000000000000000000000000000000000000000000000000000000000000000000000000000000000000000000000000000000000000000000000000000000000000000000000000000000000000000000000000",
      "type": "0x2",
      "transactionHash": "0xda2285d1d57f1787780360682fa2c11c23450d6f62d6eb6afc235b6638ae7257",
      "transactionIndex": "0x1",
      "blockHash": "0xe0619b01e5c1e2634d07b5e7832196e5fad5492bca54ca9eee2a6e29b9a4f9cb",
      "blockNumber": "0x34f768",
      "gasUsed": "0x5208",
      "effectiveGasPrice": "0xe8d4a51000",
      "from": "0xf2f1acbe0ba726fee8d75f3e32900526874740bb",
      "to": "0xf2f1acbe0ba726fee8d75f3e32900526874740bb",
      "contractAddress": null,
      "gasUsedForL1": "0x0",
      "l1BlockNumber": "0x15991b0"
    },
    {
      "status": "0x1",
      "cumulativeGasUsed": "0x3b8ef7",
      "logs": [],
      "logsBloom": "0x00000000000000000000000000000000000000000000000000000000000000000000000000000000000000000000000000000000000000000000000000000000000000000000000000000000000000000000000000000000000000000000000000000000000000000000000000000000000000000000000000000000000000000000000000000000000000000000000000000000000000000000000000000000000000000000000000000000000000000000000000000000000000000000000000000000000000000000000000000000000000000000000000000000000000000000000000000000000000000000000000000000000000000000000000000000",
      "type": "0x2",
      "transactionHash": "0x4c72394fa63b16835df92a18464cfa5b89ad0be29e5d34da001cb0f87696a348",
      "transactionIndex": "0x1",
      "blockHash": "0xc59c4f671adf5441c8a1decf9d64a0d2807afc64bf8dd13e979135045c3851b6",
      "blockNumber": "0x34f76a",
      "gasUsed": "0x3b8ef7",
      "effectiveGasPrice": "0xe8d4a51000",
      "from": "0xf2f1acbe0ba726fee8d75f3e32900526874740bb",
      "to": null,
      "contractAddress": "0x813b926b1d096e117721bd1eb017fba122302da0",
      "gasUsedForL1": "0x0",
      "l1BlockNumber": "0x15991b0"
    },
    {
      "status": "0x1",
      "cumulativeGasUsed": "0x200d0",
      "logs": [
        {
          "address": "0x437cc33344a0b27a429f795ff6b469c72698b291",
          "topics": [
            "0xbc7cd75a20ee27fd9adebab32041f755214dbc6bffa90cc0225b39da2e5c2d3b",
            "0x000000000000000000000000813b926b1d096e117721bd1eb017fba122302da0"
          ],
          "data": "0x",
          "blockHash": "0x73f25232624d28c78b6cc11550cb3c1f881e966ad466ee1e7a3f76ab890b07b7",
          "blockNumber": "0x34f76c",
          "transactionHash": "0x08165c951f8ceeebeb0e9b2881144447536152d2c67626c5449d410088ca8a50",
          "transactionIndex": "0x1",
          "logIndex": "0x0",
          "removed": false
        }
      ],
      "logsBloom": "0x00000000000000000000000000000000400000000080000000000000000000000000000400000000000000000000000000000000000000000000000000000000000000000000000000000000000002000000000000000000000000000000000000000000000002000000000000000000000000000100000000000000000000000000000000000000000000000000000000000000000000000000000000000000000000000000000000000000000000000000000000000000000000000000000000000020000000000000000000000000000200000000000008000000000000000000000000000000000000000000000000000000000000000000000000000000",
      "type": "0x2",
      "transactionHash": "0x08165c951f8ceeebeb0e9b2881144447536152d2c67626c5449d410088ca8a50",
      "transactionIndex": "0x1",
      "blockHash": "0x73f25232624d28c78b6cc11550cb3c1f881e966ad466ee1e7a3f76ab890b07b7",
      "blockNumber": "0x34f76c",
      "gasUsed": "0x200d0",
      "effectiveGasPrice": "0xe8d4a51000",
      "from": "0xf2f1acbe0ba726fee8d75f3e32900526874740bb",
      "to": null,
      "contractAddress": "0x437cc33344a0b27a429f795ff6b469c72698b291",
      "gasUsedForL1": "0x0",
      "l1BlockNumber": "0x15991b0"
    }
  ],
  "libraries": [],
  "pending": [],
  "returns": {},
  "timestamp": 1749233152,
  "chain": 98866,
  "commit": "eb1806d"
}