{
  "transactions": [
    {
      "hash": "0x0c9a48ab52ff536eaf64957a7e694c25faf4485e1dfc290564b99902b3a7db25",
      "transactionType": "CALL",
      "contractName": null,
      "contractAddress": "0x51dce104e5ba88fabc19a2c519f955bb834b0dc3",
      "function": "setPeer(uint256,bytes32)",
      "arguments": [
        "999",
        "0x00000000000000000000000051dce104e5ba88fabc19a2c519f955bb834b0dc3"
      ],
      "transaction": {
        "from": "0xf2f1acbe0ba726fee8d75f3e32900526874740bb",
        "to": "0x51dce104e5ba88fabc19a2c519f955bb834b0dc3",
        "gas": "0x100d8",
        "value": "0x0",
        "input": "0xbc9e848700000000000000000000000000000000000000000000000000000000000003e700000000000000000000000051dce104e5ba88fabc19a2c519f955bb834b0dc3",
        "nonce": "0x72",
        "chainId": "0x1"
      },
      "additionalContracts": [],
      "isFixedGasLimit": false
    },
    {
      "hash": "0x91146c37a3d9de024e062692bb094dd96d1ed7e9b12bcb71473a34f09fc8ab17",
      "transactionType": "CALL",
      "contractName": null,
      "contractAddress": "0x36f586a30502ae3afb555b8aa4dcc05d233c2ece",
      "function": "setDestinationMToken(uint256,address)",
      "arguments": [
        "999",
        "0x866A2BF4E572CbcF37D5071A7a58503Bfb36be1b"
      ],
      "transaction": {
        "from": "0xf2f1acbe0ba726fee8d75f3e32900526874740bb",
        "to": "0x36f586a30502ae3afb555b8aa4dcc05d233c2ece",
        "gas": "0x12dbc",
        "value": "0x0",
        "input": "0xe80f94cf00000000000000000000000000000000000000000000000000000000000003e7000000000000000000000000866a2bf4e572cbcf37d5071a7a58503bfb36be1b",
        "nonce": "0x73",
        "chainId": "0x1"
      },
      "additionalContracts": [],
      "isFixedGasLimit": false
    },
    {
      "hash": "0xb28da1a39122620b1f0e60784d7678a5104285ffafd8ce7545f735a1823d16a2",
      "transactionType": "CALL",
      "contractName": null,
      "contractAddress": "0x36f586a30502ae3afb555b8aa4dcc05d233c2ece",
      "function": "setPayloadGasLimit(uint256,uint8,uint256)",
      "arguments": [
        "999",
        "0",
        "100000"
      ],
      "transaction": {
        "from": "0xf2f1acbe0ba726fee8d75f3e32900526874740bb",
        "to": "0x36f586a30502ae3afb555b8aa4dcc05d233c2ece",
        "gas": "0x11f32",
        "value": "0x0",
        "input": "0x515c494600000000000000000000000000000000000000000000000000000000000003e7000000000000000000000000000000000000000000000000000000000000000000000000000000000000000000000000000000000000000000000000000186a0",
        "nonce": "0x74",
        "chainId": "0x1"
      },
      "additionalContracts": [],
      "isFixedGasLimit": false
    },
    {
      "hash": "0xf38dedb7ce707e705018b555ef9a8b3cf99c9c0cdb022cd45b500e6a853fd311",
      "transactionType": "CALL",
      "contractName": null,
      "contractAddress": "0x36f586a30502ae3afb555b8aa4dcc05d233c2ece",
      "function": "setPayloadGasLimit(uint256,uint8,uint256)",
      "arguments": [
        "999",
        "1",
        "50000"
      ],
      "transaction": {
        "from": "0xf2f1acbe0ba726fee8d75f3e32900526874740bb",
        "to": "0x36f586a30502ae3afb555b8aa4dcc05d233c2ece",
        "gas": "0x11f32",
        "value": "0x0",
        "input": "0x515c494600000000000000000000000000000000000000000000000000000000000003e70000000000000000000000000000000000000000000000000000000000000001000000000000000000000000000000000000000000000000000000000000c350",
        "nonce": "0x75",
        "chainId": "0x1"
      },
      "additionalContracts": [],
      "isFixedGasLimit": false
    },
    {
      "hash": "0x03545953aa62875a36d49b9cd138fc567e494369ee794f9f76a93707ed21b5b9",
      "transactionType": "CALL",
      "contractName": null,
      "contractAddress": "0x36f586a30502ae3afb555b8aa4dcc05d233c2ece",
      "function": "setPayloadGasLimit(uint256,uint8,uint256)",
      "arguments": [
        "999",
        "2",
        "50000"
      ],
      "transaction": {
        "from": "0xf2f1acbe0ba726fee8d75f3e32900526874740bb",
        "to": "0x36f586a30502ae3afb555b8aa4dcc05d233c2ece",
        "gas": "0x11f32",
        "value": "0x0",
        "input": "0x515c494600000000000000000000000000000000000000000000000000000000000003e70000000000000000000000000000000000000000000000000000000000000002000000000000000000000000000000000000000000000000000000000000c350",
        "nonce": "0x76",
        "chainId": "0x1"
      },
      "additionalContracts": [],
      "isFixedGasLimit": false
    },
    {
      "hash": "0xc3da1d719b50729c32016a9ccdc14e4e9711e80b6216915558be86ba9bb57676",
      "transactionType": "CALL",
      "contractName": null,
      "contractAddress": "0x36f586a30502ae3afb555b8aa4dcc05d233c2ece",
      "function": "setPayloadGasLimit(uint256,uint8,uint256)",
      "arguments": [
        "999",
        "3",
        "50000"
      ],
      "transaction": {
        "from": "0xf2f1acbe0ba726fee8d75f3e32900526874740bb",
        "to": "0x36f586a30502ae3afb555b8aa4dcc05d233c2ece",
        "gas": "0x11f32",
        "value": "0x0",
        "input": "0x515c494600000000000000000000000000000000000000000000000000000000000003e70000000000000000000000000000000000000000000000000000000000000003000000000000000000000000000000000000000000000000000000000000c350",
        "nonce": "0x77",
        "chainId": "0x1"
      },
      "additionalContracts": [],
      "isFixedGasLimit": false
    },
    {
      "hash": "0x110692319d8a33dbaac9b7e4c8161123c9a8bf800396a82e289c349f508b9ac8",
      "transactionType": "CALL",
      "contractName": null,
      "contractAddress": "0x36f586a30502ae3afb555b8aa4dcc05d233c2ece",
      "function": "setSupportedBridgingPath(address,uint256,address,bool)",
      "arguments": [
        "0x866A2BF4E572CbcF37D5071A7a58503Bfb36be1b",
        "999",
        "0x866A2BF4E572CbcF37D5071A7a58503Bfb36be1b",
        "true"
      ],
      "transaction": {
        "from": "0xf2f1acbe0ba726fee8d75f3e32900526874740bb",
        "to": "0x36f586a30502ae3afb555b8aa4dcc05d233c2ece",
        "gas": "0x125b6",
        "value": "0x0",
        "input": "0xb3c2c214000000000000000000000000866a2bf4e572cbcf37d5071a7a58503bfb36be1b00000000000000000000000000000000000000000000000000000000000003e7000000000000000000000000866a2bf4e572cbcf37d5071a7a58503bfb36be1b0000000000000000000000000000000000000000000000000000000000000001",
        "nonce": "0x78",
        "chainId": "0x1"
      },
      "additionalContracts": [],
      "isFixedGasLimit": false
    }
  ],
  "receipts": [
    {
      "status": "0x1",
      "cumulativeGasUsed": "0xe45b22",
      "logs": [
        {
          "address": "0x51dce104e5ba88fabc19a2c519f955bb834b0dc3",
          "topics": [
            "0x91d4c3fec14758a2444d9091d55188dabf0093da924e5a6cd831fa01a0547dc7"
          ],
          "data": "0x00000000000000000000000000000000000000000000000000000000000003e700000000000000000000000051dce104e5ba88fabc19a2c519f955bb834b0dc3",
          "blockHash": "0xe680f598ea37a96abf48d4b69094ed96acb86f5d75fc69a168b5aee7ecd32599",
          "blockNumber": "0x157cf9f",
          "blockTimestamp": "0x682de98b",
          "transactionHash": "0x0c9a48ab52ff536eaf64957a7e694c25faf4485e1dfc290564b99902b3a7db25",
          "transactionIndex": "0x8f",
          "logIndex": "0x19b",
          "removed": false
        }
      ],
      "logsBloom": "0x00000000000000000000000000000000000000000000000000000000000000000000000000000000000000000000000000020000000000000000000000000000010000000000000000000000000000000000000000000000000000000000000000000000000000000000000000000000000010000000000000000000000000000000000000000000000000000000000000000000000000000000000000000000000000000000000000000000000000000800000000000000000000000000000000000000000000004000000000000000000000000000000000000000000000000000000000000000000000000000000000000002000000000000000000000000",
      "type": "0x2",
      "transactionHash": "0x0c9a48ab52ff536eaf64957a7e694c25faf4485e1dfc290564b99902b3a7db25",
      "transactionIndex": "0x8f",
      "blockHash": "0xe680f598ea37a96abf48d4b69094ed96acb86f5d75fc69a168b5aee7ecd32599",
      "blockNumber": "0x157cf9f",
      "gasUsed": "0xb9f4",
      "effectiveGasPrice": "0x10ac69885",
      "from": "0xf2f1acbe0ba726fee8d75f3e32900526874740bb",
      "to": "0x51dce104e5ba88fabc19a2c519f955bb834b0dc3",
      "contractAddress": null
    },
    {
      "status": "0x1",
      "cumulativeGasUsed": "0x15c3d03",
      "logs": [
        {
          "address": "0x36f586a30502ae3afb555b8aa4dcc05d233c2ece",
          "topics": [
            "0xe1f5ca8210e2b8950e4626ed9e65573e6a90daf4c4f5d098ad4b7665a08992cb",
            "0x00000000000000000000000000000000000000000000000000000000000003e7"
          ],
          "data": "0x000000000000000000000000866a2bf4e572cbcf37d5071a7a58503bfb36be1b",
          "blockHash": "0x372a2d1abbd1aa90da40e389422561d936f2bba7395212e6836af144c20ddc82",
          "blockNumber": "0x157cfa0",
          "blockTimestamp": "0x682de997",
          "transactionHash": "0x91146c37a3d9de024e062692bb094dd96d1ed7e9b12bcb71473a34f09fc8ab17",
          "transactionIndex": "0xe4",
          "logIndex": "0x269",
          "removed": false
        }
      ],
      "logsBloom": "0x00000000000000000000000000000000000000000000000000000000000000000000000000000000000000000000000000000000000000000000000000000000000020000000000000000000000000000000000000000000005000080000000000000000000000000000000000000000000000000000000000000000000000000000000000000000000000000000000000000000000000000000000080000000000000000000000000100000000000000000000200000000000000000000000000000000000000000000000000000000000020000000000000000000000000000000000000000000000000000000000000000000000000000000000004000000",
      "type": "0x2",
      "transactionHash": "0x91146c37a3d9de024e062692bb094dd96d1ed7e9b12bcb71473a34f09fc8ab17",
      "transactionIndex": "0xe4",
      "blockHash": "0x372a2d1abbd1aa90da40e389422561d936f2bba7395212e6836af144c20ddc82",
      "blockNumber": "0x157cfa0",
      "gasUsed": "0xce51",
      "effectiveGasPrice": "0x10f8acbb7",
      "from": "0xf2f1acbe0ba726fee8d75f3e32900526874740bb",
      "to": "0x36f586a30502ae3afb555b8aa4dcc05d233c2ece",
      "contractAddress": null
    },
    {
      "status": "0x1",
      "cumulativeGasUsed": "0xb8e6d3",
      "logs": [
        {
          "address": "0x36f586a30502ae3afb555b8aa4dcc05d233c2ece",
          "topics": [
            "0x1a5992a751b521ef246a1a59ba188f21a01ef4df77a46061eacc5604768157e2",
            "0x00000000000000000000000000000000000000000000000000000000000003e7",
            "0x0000000000000000000000000000000000000000000000000000000000000000"
          ],
          "data": "0x00000000000000000000000000000000000000000000000000000000000186a0",
          "blockHash": "0xb42c4e4f98a1bc1ca0fe3e50233f48ec2dff4950631b9830fbcb99caccac9790",
          "blockNumber": "0x157cfa1",
          "blockTimestamp": "0x682de9a3",
          "transactionHash": "0xb28da1a39122620b1f0e60784d7678a5104285ffafd8ce7545f735a1823d16a2",
          "transactionIndex": "0x91",
          "logIndex": "0xf7",
          "removed": false
        }
      ],
      "logsBloom": "0x00000000000000000000000000100000000000000000000000000000000000000000000000000000000000000000000000000000000000000000000000000000000000000000000000000000000000000000000000000000005000080000000000000000020000000000000000000800000000000000000000000000000000010000000000000000000000000000000000000000000000000000000080000000000000000000000000100400000000000000000200000000000000000000000000000000000000000000000000000000000000000000000000000000000020000000000000000000000000000000000000000000000000000000000000000000",
      "type": "0x2",
      "transactionHash": "0xb28da1a39122620b1f0e60784d7678a5104285ffafd8ce7545f735a1823d16a2",
      "transactionIndex": "0x91",
      "blockHash": "0xb42c4e4f98a1bc1ca0fe3e50233f48ec2dff4950631b9830fbcb99caccac9790",
      "blockNumber": "0x157cfa1",
      "gasUsed": "0xcfee",
      "effectiveGasPrice": "0x11fc5eafc",
      "from": "0xf2f1acbe0ba726fee8d75f3e32900526874740bb",
      "to": "0x36f586a30502ae3afb555b8aa4dcc05d233c2ece",
      "contractAddress": null
    },
    {
      "status": "0x1",
      "cumulativeGasUsed": "0x1355e5b",
      "logs": [
        {
          "address": "0x36f586a30502ae3afb555b8aa4dcc05d233c2ece",
          "topics": [
            "0x1a5992a751b521ef246a1a59ba188f21a01ef4df77a46061eacc5604768157e2",
            "0x00000000000000000000000000000000000000000000000000000000000003e7",
            "0x0000000000000000000000000000000000000000000000000000000000000001"
          ],
          "data": "0x000000000000000000000000000000000000000000000000000000000000c350",
          "blockHash": "0x4d547806c0dcf174b10be77486ea1320d9444ffb058bd94779f27bc464c939e4",
          "blockNumber": "0x157cfa2",
          "blockTimestamp": "0x682de9af",
          "transactionHash": "0xf38dedb7ce707e705018b555ef9a8b3cf99c9c0cdb022cd45b500e6a853fd311",
          "transactionIndex": "0xce",
          "logIndex": "0x1e6",
          "removed": false
        }
      ],
      "logsBloom": "0x00000000000000000000000000100000000000000000000000000000000000000000000000000000000000000000000000000000000000000000000000040000000000000000000000000000000000000000000000040000005000080000000000000000000000000000000000000000000000000000000000000000000000010000000000000000000000000000000000000000000000000000000080000000000000000000000000100400000000000000000200000000000000000000000000000000000000000000000000000000000000000000000000000000000040000000000000000000000000000000000000000000000000000000000000000000",
      "type": "0x2",
      "transactionHash": "0xf38dedb7ce707e705018b555ef9a8b3cf99c9c0cdb022cd45b500e6a853fd311",
      "transactionIndex": "0xce",
      "blockHash": "0x4d547806c0dcf174b10be77486ea1320d9444ffb058bd94779f27bc464c939e4",
      "blockNumber": "0x157cfa2",
      "gasUsed": "0xcfee",
      "effectiveGasPrice": "0x117b0ca7f",
      "from": "0xf2f1acbe0ba726fee8d75f3e32900526874740bb",
      "to": "0x36f586a30502ae3afb555b8aa4dcc05d233c2ece",
      "contractAddress": null
    },
    {
      "status": "0x1",
      "cumulativeGasUsed": "0x1050064",
      "logs": [
        {
          "address": "0x36f586a30502ae3afb555b8aa4dcc05d233c2ece",
          "topics": [
            "0x1a5992a751b521ef246a1a59ba188f21a01ef4df77a46061eacc5604768157e2",
            "0x00000000000000000000000000000000000000000000000000000000000003e7",
            "0x0000000000000000000000000000000000000000000000000000000000000002"
          ],
          "data": "0x000000000000000000000000000000000000000000000000000000000000c350",
          "blockHash": "0x6feb446b1fd991fa4de9f8a99f50fd675d3c3617d8c3423dd1098da5b4b50ab9",
          "blockNumber": "0x157cfa3",
          "blockTimestamp": "0x682de9bb",
          "transactionHash": "0x03545953aa62875a36d49b9cd138fc567e494369ee794f9f76a93707ed21b5b9",
          "transactionIndex": "0xac",
          "logIndex": "0x1b8",
          "removed": false
        }
      ],
      "logsBloom": "0x04000000000000000000000000100000000000000000000000000000000000000000000000000000000000000000000000000000000000000000000000000000000000000000000000000000000000000000000000000000005000080000000000000000000000000000000000000000000000000000000000000000000000010000000000000000000000000000000000000000000000000000000080000000000000000000000000100500000000000000000200000000000000000000000000000000000000000000000000000000000000000000000000000000000000000000000000000000000000000000000000000000008000000000000000000000",
      "type": "0x2",
      "transactionHash": "0x03545953aa62875a36d49b9cd138fc567e494369ee794f9f76a93707ed21b5b9",
      "transactionIndex": "0xac",
      "blockHash": "0x6feb446b1fd991fa4de9f8a99f50fd675d3c3617d8c3423dd1098da5b4b50ab9",
      "blockNumber": "0x157cfa3",
      "gasUsed": "0xcfee",
      "effectiveGasPrice": "0x12012d97d",
      "from": "0xf2f1acbe0ba726fee8d75f3e32900526874740bb",
      "to": "0x36f586a30502ae3afb555b8aa4dcc05d233c2ece",
      "contractAddress": null
    },
    {
      "status": "0x1",
      "cumulativeGasUsed": "0xe4e2e8",
      "logs": [
        {
          "address": "0x36f586a30502ae3afb555b8aa4dcc05d233c2ece",
          "topics": [
            "0x1a5992a751b521ef246a1a59ba188f21a01ef4df77a46061eacc5604768157e2",
            "0x00000000000000000000000000000000000000000000000000000000000003e7",
            "0x0000000000000000000000000000000000000000000000000000000000000003"
          ],
          "data": "0x000000000000000000000000000000000000000000000000000000000000c350",
          "blockHash": "0xdc0a6649e512c42b55c547eccad557bd513713371251a730cd3a6419f948b27f",
          "blockNumber": "0x157cfa4",
          "blockTimestamp": "0x682de9c7",
          "transactionHash": "0xc3da1d719b50729c32016a9ccdc14e4e9711e80b6216915558be86ba9bb57676",
          "transactionIndex": "0x86",
          "logIndex": "0x1c9",
          "removed": false
        }
      ],
      "logsBloom": "0x00000000000000000000000000100000000000000000000000000000000000000000000000000000000000000000000000000000020000000000000000000000000000000000000000000000000000000000000000000000005000080000000000000000000000000000000000000000000000000000000000000000000000010000000000000000000000000000000000000000000000000000000080000000000000000000000000100400000000000000000200800000000000000000400000000000000000000000000000000000000000000000000000000000000000000000000000000000000000000000000000000000000000000000000000000000",
      "type": "0x2",
      "transactionHash": "0xc3da1d719b50729c32016a9ccdc14e4e9711e80b6216915558be86ba9bb57676",
      "transactionIndex": "0x86",
      "blockHash": "0xdc0a6649e512c42b55c547eccad557bd513713371251a730cd3a6419f948b27f",
      "blockNumber": "0x157cfa4",
      "gasUsed": "0xcfee",
      "effectiveGasPrice": "0x12e0095b2",
      "from": "0xf2f1acbe0ba726fee8d75f3e32900526874740bb",
      "to": "0x36f586a30502ae3afb555b8aa4dcc05d233c2ece",
      "contractAddress": null
    },
    {
      "status": "0x1",
      "cumulativeGasUsed": "0xc8f899",
      "logs": [
        {
          "address": "0x36f586a30502ae3afb555b8aa4dcc05d233c2ece",
          "topics": [
            "0xb30eec013773a40f5bfc408b77c3eb479af144a816a0250387480ba905a06f95",
            "0x000000000000000000000000866a2bf4e572cbcf37d5071a7a58503bfb36be1b",
            "0x00000000000000000000000000000000000000000000000000000000000003e7",
            "0x000000000000000000000000866a2bf4e572cbcf37d5071a7a58503bfb36be1b"
          ],
          "data": "0x0000000000000000000000000000000000000000000000000000000000000001",
          "blockHash": "0x7b00dabb11b1e6308ec59dcbe9e65c7ffd64969b02f3ca950737f9d512e53d44",
          "blockNumber": "0x157cfa5",
          "blockTimestamp": "0x682de9d3",
          "transactionHash": "0x110692319d8a33dbaac9b7e4c8161123c9a8bf800396a82e289c349f508b9ac8",
          "transactionIndex": "0x8d",
          "logIndex": "0x191",
          "removed": false
        }
      ],
      "logsBloom": "0x00000000000000000000000000000000000000000000000000000000000000000000000000000000000000000000000000000000000000000000000000000000000000000000000000000000000000000000000000000000005000080000000000000000000000000000000000000000000000000000000100000000000000000000000000000000000000000040000000000000000000000000000080000000000000000000000000100000400000000000000200000000000000000000000000080000000400000000000000000000000000000000000000000000000000000000000000000000000000000000000000000000000000000000000000000010",
      "type": "0x2",
      "transactionHash": "0x110692319d8a33dbaac9b7e4c8161123c9a8bf800396a82e289c349f508b9ac8",
      "transactionIndex": "0x8d",
      "blockHash": "0x7b00dabb11b1e6308ec59dcbe9e65c7ffd64969b02f3ca950737f9d512e53d44",
      "blockNumber": "0x157cfa5",
      "gasUsed": "0xd4a5",
      "effectiveGasPrice": "0x12e0d2afe",
      "from": "0xf2f1acbe0ba726fee8d75f3e32900526874740bb",
      "to": "0x36f586a30502ae3afb555b8aa4dcc05d233c2ece",
      "contractAddress": null
    }
  ],
  "libraries": [],
  "pending": [],
  "returns": {},
  "timestamp": 1747839445,
  "chain": 1,
  "commit": "055be1a"
}