{
  "transactions": [
    {
      "hash": "0x21914d0c2a121e83c8b8b861a7507b8b423cfd913800926832476a8084e9432c",
      "transactionType": "CALL",
      "contractName": null,
      "contractAddress": "0x36f586a30502ae3afb555b8aa4dcc05d233c2ece",
      "function": "setSupportedBridgingPath(address,uint256,address,bool)",
      "arguments": [
        "0x866A2BF4E572CbcF37D5071A7a58503Bfb36be1b",
        "999",
        "0x437cc33344a0B27A429f795ff6B469C72698B291",
        "true"
      ],
      "transaction": {
        "from": "0xf2f1acbe0ba726fee8d75f3e32900526874740bb",
        "to": "0x36f586a30502ae3afb555b8aa4dcc05d233c2ece",
        "gas": "0x125b6",
        "value": "0x0",
        "input": "0xb3c2c214000000000000000000000000866a2bf4e572cbcf37d5071a7a58503bfb36be1b00000000000000000000000000000000000000000000000000000000000003e7000000000000000000000000437cc33344a0b27a429f795ff6b469c72698b2910000000000000000000000000000000000000000000000000000000000000001",
        "nonce": "0x7b",
        "chainId": "0x1"
      },
      "additionalContracts": [],
      "isFixedGasLimit": false
    },
    {
      "hash": "0x936c6f9fe2737fa3ab2369893c1b41f6de339f1c5e52b0230653de7278eeb7af",
      "transactionType": "CALL",
      "contractName": null,
      "contractAddress": "0x36f586a30502ae3afb555b8aa4dcc05d233c2ece",
      "function": "setSupportedBridgingPath(address,uint256,address,bool)",
      "arguments": [
        "0x437cc33344a0B27A429f795ff6B469C72698B291",
        "999",
        "0x437cc33344a0B27A429f795ff6B469C72698B291",
        "true"
      ],
      "transaction": {
        "from": "0xf2f1acbe0ba726fee8d75f3e32900526874740bb",
        "to": "0x36f586a30502ae3afb555b8aa4dcc05d233c2ece",
        "gas": "0x125b6",
        "value": "0x0",
        "input": "0xb3c2c214000000000000000000000000437cc33344a0b27a429f795ff6b469c72698b29100000000000000000000000000000000000000000000000000000000000003e7000000000000000000000000437cc33344a0b27a429f795ff6b469c72698b2910000000000000000000000000000000000000000000000000000000000000001",
        "nonce": "0x7c",
        "chainId": "0x1"
      },
      "additionalContracts": [],
      "isFixedGasLimit": false
    }
  ],
  "receipts": [
    {
      "status": "0x1",
      "cumulativeGasUsed": "0xb2150c",
      "logs": [
        {
          "address": "0x36f586a30502ae3afb555b8aa4dcc05d233c2ece",
          "topics": [
            "0xb30eec013773a40f5bfc408b77c3eb479af144a816a0250387480ba905a06f95",
            "0x000000000000000000000000866a2bf4e572cbcf37d5071a7a58503bfb36be1b",
            "0x00000000000000000000000000000000000000000000000000000000000003e7",
            "0x000000000000000000000000437cc33344a0b27a429f795ff6b469c72698b291"
          ],
          "data": "0x0000000000000000000000000000000000000000000000000000000000000001",
          "blockHash": "0x6cc0d3861321a29e1a241828c969c34c6bd9a7de707de46e2dad4d0d6ba6a66e",
          "blockNumber": "0x158f701",
          "blockTimestamp": "0x683bddd7",
          "transactionHash": "0x21914d0c2a121e83c8b8b861a7507b8b423cfd913800926832476a8084e9432c",
          "transactionIndex": "0x75",
          "logIndex": "0x14d",
          "removed": false
        }
      ],
      "logsBloom": "0x00000000000002000000000000000000000000000000000000000000000000000000000000000000000000000000000000000000000000000000000000000000000000000000000000000000000000000000000000000000005000080000000000000000000000000000000000000000000000000000000100000000000000000000000000000000000000000040000000000000000000000000000080000000000000000000000000100000400000000000000200020000000000000000000000080000000400000000000000000000000000000000000000000000000000200000000000000000000000000000000000000000000000000000000000000010",
      "type": "0x2",
      "transactionHash": "0x21914d0c2a121e83c8b8b861a7507b8b423cfd913800926832476a8084e9432c",
      "transactionIndex": "0x75",
      "blockHash": "0x6cc0d3861321a29e1a241828c969c34c6bd9a7de707de46e2dad4d0d6ba6a66e",
      "blockNumber": "0x158f701",
      "gasUsed": "0xd4a5",
      "effectiveGasPrice": "0x29604c47",
      "from": "0xf2f1acbe0ba726fee8d75f3e32900526874740bb",
      "to": "0x36f586a30502ae3afb555b8aa4dcc05d233c2ece",
      "contractAddress": null
    },
    {
      "status": "0x1",
      "cumulativeGasUsed": "0x10ad9ba",
      "logs": [
        {
          "address": "0x36f586a30502ae3afb555b8aa4dcc05d233c2ece",
          "topics": [
            "0xb30eec013773a40f5bfc408b77c3eb479af144a816a0250387480ba905a06f95",
            "0x000000000000000000000000437cc33344a0b27a429f795ff6b469c72698b291",
            "0x00000000000000000000000000000000000000000000000000000000000003e7",
            "0x000000000000000000000000437cc33344a0b27a429f795ff6b469c72698b291"
          ],
          "data": "0x0000000000000000000000000000000000000000000000000000000000000001",
          "blockHash": "0xa027ecfce7007bdb9ad114ce0a1578e7c4700720dad88ae993fa2b0de1c3a45c",
          "blockNumber": "0x158f702",
          "blockTimestamp": "0x683bdde3",
          "transactionHash": "0x936c6f9fe2737fa3ab2369893c1b41f6de339f1c5e52b0230653de7278eeb7af",
          "transactionIndex": "0x8f",
          "logIndex": "0x167",
          "removed": false
        }
      ],
      "logsBloom": "0x00000000000002000000000000000000000000000000000000000000000000000000000000000000000000000000000000000000000000000000000000000000000000000000000000000000000000000000000000000000005000080000000000000000000000000000000000000000000000000000000000000000000000000000000000000000000000000000000000000000000000000000000080000000000000000000000000100000400000000000000200020000000000000000000000080000000000000000000000000000000000000000000000000000000000200000000000000000000000000000000000000000000000000000000000000010",
      "type": "0x2",
      "transactionHash": "0x936c6f9fe2737fa3ab2369893c1b41f6de339f1c5e52b0230653de7278eeb7af",
      "transactionIndex": "0x8f",
      "blockHash": "0xa027ecfce7007bdb9ad114ce0a1578e7c4700720dad88ae993fa2b0de1c3a45c",
      "blockNumber": "0x158f702",
      "gasUsed": "0xd4a5",
      "effectiveGasPrice": "0x27b22766",
      "from": "0xf2f1acbe0ba726fee8d75f3e32900526874740bb",
      "to": "0x36f586a30502ae3afb555b8aa4dcc05d233c2ece",
      "contractAddress": null
    }
  ],
  "libraries": [],
  "pending": [],
  "returns": {},
  "timestamp": 1748753894,
  "chain": 1,
  "commit": "8f3961a"
}