{
  "transactions": [
    {
      "hash": "0xfeb9bb5aabafb532e0b2aeedbc80f85aee66c635abbec22f3dc41971ff9c5a66",
      "transactionType": "CALL",
      "contractName": null,
      "contractAddress": "0x51dce104e5ba88fabc19a2c519f955bb834b0dc3",
      "function": "setPeer(uint256,bytes32)",
      "arguments": [
        "98866",
        "0x00000000000000000000000051dce104e5ba88fabc19a2c519f955bb834b0dc3"
      ],
      "transaction": {
        "from": "0xf2f1acbe0ba726fee8d75f3e32900526874740bb",
        "to": "0x51dce104e5ba88fabc19a2c519f955bb834b0dc3",
        "gas": "0x100e9",
        "value": "0x0",
        "input": "0xbc9e8487000000000000000000000000000000000000000000000000000000000001823200000000000000000000000051dce104e5ba88fabc19a2c519f955bb834b0dc3",
        "nonce": "0x82",
        "chainId": "0x1"
      },
      "additionalContracts": [],
      "isFixedGasLimit": false
    },
    {
      "hash": "0x5598138ed9e4df58f150e11554e14ae62200453114507994217489d2e515ee93",
      "transactionType": "CALL",
      "contractName": null,
      "contractAddress": "0x36f586a30502ae3afb555b8aa4dcc05d233c2ece",
      "function": "setDestinationMToken(uint256,address)",
      "arguments": [
        "98866",
        "0x866A2BF4E572CbcF37D5071A7a58503Bfb36be1b"
      ],
      "transaction": {
        "from": "0xf2f1acbe0ba726fee8d75f3e32900526874740bb",
        "to": "0x36f586a30502ae3afb555b8aa4dcc05d233c2ece",
        "gas": "0x11d09",
        "value": "0x0",
        "input": "0xe80f94cf0000000000000000000000000000000000000000000000000000000000018232000000000000000000000000866a2bf4e572cbcf37d5071a7a58503bfb36be1b",
        "nonce": "0x83",
        "chainId": "0x1"
      },
      "additionalContracts": [],
      "isFixedGasLimit": false
    },
    {
      "hash": "0x2ff64c74f2e090c5a521666115f78d575e63c1ca479783626e3b64004d0fdd47",
      "transactionType": "CALL",
      "contractName": null,
      "contractAddress": "0x36f586a30502ae3afb555b8aa4dcc05d233c2ece",
      "function": "setPayloadGasLimit(uint256,uint8,uint256)",
      "arguments": [
        "98866",
        "0",
        "100000"
      ],
      "transaction": {
        "from": "0xf2f1acbe0ba726fee8d75f3e32900526874740bb",
        "to": "0x36f586a30502ae3afb555b8aa4dcc05d233c2ece",
        "gas": "0x1302a",
        "value": "0x0",
        "input": "0x515c49460000000000000000000000000000000000000000000000000000000000018232000000000000000000000000000000000000000000000000000000000000000000000000000000000000000000000000000000000000000000000000000186a0",
        "nonce": "0x84",
        "chainId": "0x1"
      },
      "additionalContracts": [],
      "isFixedGasLimit": false
    },
    {
      "hash": "0x561ed24458d2da59a70b33ebe02a9cfef4763bd1d65ec1cccc1134857bc41601",
      "transactionType": "CALL",
      "contractName": null,
      "contractAddress": "0x36f586a30502ae3afb555b8aa4dcc05d233c2ece",
      "function": "setPayloadGasLimit(uint256,uint8,uint256)",
      "arguments": [
        "98866",
        "1",
        "50000"
      ],
      "transaction": {
        "from": "0xf2f1acbe0ba726fee8d75f3e32900526874740bb",
        "to": "0x36f586a30502ae3afb555b8aa4dcc05d233c2ece",
        "gas": "0x1302a",
        "value": "0x0",
        "input": "0x515c494600000000000000000000000000000000000000000000000000000000000182320000000000000000000000000000000000000000000000000000000000000001000000000000000000000000000000000000000000000000000000000000c350",
        "nonce": "0x85",
        "chainId": "0x1"
      },
      "additionalContracts": [],
      "isFixedGasLimit": false
    },
    {
      "hash": "0xc21e6f2cfbb4895775561f346a9583d81642ebef1a0ef4f710f9ac9a0c26bd7c",
      "transactionType": "CALL",
      "contractName": null,
      "contractAddress": "0x36f586a30502ae3afb555b8aa4dcc05d233c2ece",
      "function": "setPayloadGasLimit(uint256,uint8,uint256)",
      "arguments": [
        "98866",
        "2",
        "50000"
      ],
      "transaction": {
        "from": "0xf2f1acbe0ba726fee8d75f3e32900526874740bb",
        "to": "0x36f586a30502ae3afb555b8aa4dcc05d233c2ece",
        "gas": "0x1302a",
        "value": "0x0",
        "input": "0x515c494600000000000000000000000000000000000000000000000000000000000182320000000000000000000000000000000000000000000000000000000000000002000000000000000000000000000000000000000000000000000000000000c350",
        "nonce": "0x86",
        "chainId": "0x1"
      },
      "additionalContracts": [],
      "isFixedGasLimit": false
    },
    {
      "hash": "0x6c27cfd9136781615252ca6d7929c61c2cc2733143bb693f07fe669384636170",
      "transactionType": "CALL",
      "contractName": null,
      "contractAddress": "0x36f586a30502ae3afb555b8aa4dcc05d233c2ece",
      "function": "setPayloadGasLimit(uint256,uint8,uint256)",
      "arguments": [
        "98866",
        "3",
        "50000"
      ],
      "transaction": {
        "from": "0xf2f1acbe0ba726fee8d75f3e32900526874740bb",
        "to": "0x36f586a30502ae3afb555b8aa4dcc05d233c2ece",
        "gas": "0x1302a",
        "value": "0x0",
        "input": "0x515c494600000000000000000000000000000000000000000000000000000000000182320000000000000000000000000000000000000000000000000000000000000003000000000000000000000000000000000000000000000000000000000000c350",
        "nonce": "0x87",
        "chainId": "0x1"
      },
      "additionalContracts": [],
      "isFixedGasLimit": false
    },
    {
      "hash": "0x593c5daac325cb59fd135a568a5bd6cada863d584e38d33146b3c733a515b20b",
      "transactionType": "CALL",
      "contractName": null,
      "contractAddress": "0x36f586a30502ae3afb555b8aa4dcc05d233c2ece",
      "function": "setSupportedBridgingPath(address,uint256,address,bool)",
      "arguments": [
        "0x866A2BF4E572CbcF37D5071A7a58503Bfb36be1b",
        "98866",
        "0x866A2BF4E572CbcF37D5071A7a58503Bfb36be1b",
        "true"
      ],
      "transaction": {
        "from": "0xf2f1acbe0ba726fee8d75f3e32900526874740bb",
        "to": "0x36f586a30502ae3afb555b8aa4dcc05d233c2ece",
        "gas": "0x1370f",
        "value": "0x0",
        "input": "0xb3c2c214000000000000000000000000866a2bf4e572cbcf37d5071a7a58503bfb36be1b0000000000000000000000000000000000000000000000000000000000018232000000000000000000000000866a2bf4e572cbcf37d5071a7a58503bfb36be1b0000000000000000000000000000000000000000000000000000000000000001",
        "nonce": "0x88",
        "chainId": "0x1"
      },
      "additionalContracts": [],
      "isFixedGasLimit": false
    },
    {
      "hash": "0x4027c379096dc1330c351876a7a3f0aa3fa8bfc037dfcad0d64b7a43e8ef4458",
      "transactionType": "CALL",
      "contractName": null,
      "contractAddress": "0x36f586a30502ae3afb555b8aa4dcc05d233c2ece",
      "function": "setSupportedBridgingPath(address,uint256,address,bool)",
      "arguments": [
        "0x866A2BF4E572CbcF37D5071A7a58503Bfb36be1b",
        "98866",
        "0x437cc33344a0B27A429f795ff6B469C72698B291",
        "true"
      ],
      "transaction": {
        "from": "0xf2f1acbe0ba726fee8d75f3e32900526874740bb",
        "to": "0x36f586a30502ae3afb555b8aa4dcc05d233c2ece",
        "gas": "0x1370f",
        "value": "0x0",
        "input": "0xb3c2c214000000000000000000000000866a2bf4e572cbcf37d5071a7a58503bfb36be1b0000000000000000000000000000000000000000000000000000000000018232000000000000000000000000437cc33344a0b27a429f795ff6b469c72698b2910000000000000000000000000000000000000000000000000000000000000001",
        "nonce": "0x89",
        "chainId": "0x1"
      },
      "additionalContracts": [],
      "isFixedGasLimit": false
    },
    {
      "hash": "0xb56b7e4e7388077308d26f453beb8bcd792a0f5a0c0136bdf5707b8da58661ec",
      "transactionType": "CALL",
      "contractName": null,
      "contractAddress": "0x36f586a30502ae3afb555b8aa4dcc05d233c2ece",
      "function": "setSupportedBridgingPath(address,uint256,address,bool)",
      "arguments": [
        "0x437cc33344a0B27A429f795ff6B469C72698B291",
        "98866",
        "0x866A2BF4E572CbcF37D5071A7a58503Bfb36be1b",
        "true"
      ],
      "transaction": {
        "from": "0xf2f1acbe0ba726fee8d75f3e32900526874740bb",
        "to": "0x36f586a30502ae3afb555b8aa4dcc05d233c2ece",
        "gas": "0x1370f",
        "value": "0x0",
        "input": "0xb3c2c214000000000000000000000000437cc33344a0b27a429f795ff6b469c72698b2910000000000000000000000000000000000000000000000000000000000018232000000000000000000000000866a2bf4e572cbcf37d5071a7a58503bfb36be1b0000000000000000000000000000000000000000000000000000000000000001",
        "nonce": "0x8a",
        "chainId": "0x1"
      },
      "additionalContracts": [],
      "isFixedGasLimit": false
    },
    {
      "hash": "0x8a5f6b4d5b35c5b955c626a70789a5a1130f8d57a75214972fddcd23324dd6aa",
      "transactionType": "CALL",
      "contractName": null,
      "contractAddress": "0x36f586a30502ae3afb555b8aa4dcc05d233c2ece",
      "function": "setSupportedBridgingPath(address,uint256,address,bool)",
      "arguments": [
        "0x437cc33344a0B27A429f795ff6B469C72698B291",
        "98866",
        "0x437cc33344a0B27A429f795ff6B469C72698B291",
        "true"
      ],
      "transaction": {
        "from": "0xf2f1acbe0ba726fee8d75f3e32900526874740bb",
        "to": "0x36f586a30502ae3afb555b8aa4dcc05d233c2ece",
        "gas": "0x1370f",
        "value": "0x0",
        "input": "0xb3c2c214000000000000000000000000437cc33344a0b27a429f795ff6b469c72698b2910000000000000000000000000000000000000000000000000000000000018232000000000000000000000000437cc33344a0b27a429f795ff6b469c72698b2910000000000000000000000000000000000000000000000000000000000000001",
        "nonce": "0x8b",
        "chainId": "0x1"
      },
      "additionalContracts": [],
      "isFixedGasLimit": false
    }
  ],
  "receipts": [
    {
      "status": "0x1",
      "cumulativeGasUsed": "0x10c23be",
      "logs": [
        {
          "address": "0x51dce104e5ba88fabc19a2c519f955bb834b0dc3",
          "topics": [
            "0x91d4c3fec14758a2444d9091d55188dabf0093da924e5a6cd831fa01a0547dc7"
          ],
          "data": "0x000000000000000000000000000000000000000000000000000000000001823200000000000000000000000051dce104e5ba88fabc19a2c519f955bb834b0dc3",
          "blockHash": "0x43f66b053bda69d056d6d431d61f271023c2486799618c33f58e842703d380f5",
          "blockNumber": "0x15991cd",
          "blockTimestamp": "0x68432f0f",
          "transactionHash": "0xfeb9bb5aabafb532e0b2aeedbc80f85aee66c635abbec22f3dc41971ff9c5a66",
          "transactionIndex": "0xa2",
          "logIndex": "0x1be",
          "removed": false
        }
      ],
      "logsBloom": "0x00000000000000000000000000000000000000000000000000000000000000000000000000000000000000000000000000020000000000000000000000000000010000000000000000000000000000000000000000000000000000000000000000000000000000000000000000000000000010000000000000000000000000000000000000000000000000000000000000000000000000000000000000000000000000000000000000000000000000000800000000000000000000000000000000000000000000004000000000000000000000000000000000000000000000000000000000000000000000000000000000000002000000000000000000000000",
      "type": "0x2",
      "transactionHash": "0xfeb9bb5aabafb532e0b2aeedbc80f85aee66c635abbec22f3dc41971ff9c5a66",
      "transactionIndex": "0xa2",
      "blockHash": "0x43f66b053bda69d056d6d431d61f271023c2486799618c33f58e842703d380f5",
      "blockNumber": "0x15991cd",
      "gasUsed": "0xba00",
      "effectiveGasPrice": "0x6fb78858",
      "from": "0xf2f1acbe0ba726fee8d75f3e32900526874740bb",
      "to": "0x51dce104e5ba88fabc19a2c519f955bb834b0dc3",
      "contractAddress": null
    },
    {
      "status": "0x1",
      "cumulativeGasUsed": "0x1e70826",
      "logs": [
        {
          "address": "0x36f586a30502ae3afb555b8aa4dcc05d233c2ece",
          "topics": [
            "0xe1f5ca8210e2b8950e4626ed9e65573e6a90daf4c4f5d098ad4b7665a08992cb",
            "0x0000000000000000000000000000000000000000000000000000000000018232"
          ],
          "data": "0x000000000000000000000000866a2bf4e572cbcf37d5071a7a58503bfb36be1b",
          "blockHash": "0xc90bc5df4ff93a66f4666f3fd5426b24ba672fb2cc302f41e27309bef3721105",
          "blockNumber": "0x15991ce",
          "blockTimestamp": "0x68432f1b",
          "transactionHash": "0x5598138ed9e4df58f150e11554e14ae62200453114507994217489d2e515ee93",
          "transactionIndex": "0xc6",
          "logIndex": "0x5b1",
          "removed": false
        }
      ],
      "logsBloom": "0x10000002000000000000000000000000000000000000000000000000000000000000000000000000000000000000000000000000000000000000000000000000000020000000000000000000000000000000000000000000001000000000000000000000000000000000000000000000000000000000000000000000000000000000000000000000000000000000000000000000000000000000000080000000000000000000000000000000000000000000000200000000000000000000000000000000000000000000000000000000000020000000000000000000000000000000000000000000002000000000000000000000000000000000000004000000",
      "type": "0x2",
      "transactionHash": "0x5598138ed9e4df58f150e11554e14ae62200453114507994217489d2e515ee93",
      "transactionIndex": "0xc6",
      "blockHash": "0xc90bc5df4ff93a66f4666f3fd5426b24ba672fb2cc302f41e27309bef3721105",
      "blockNumber": "0x15991ce",
      "gasUsed": "0xce5d",
      "effectiveGasPrice": "0x71ff81f7",
      "from": "0xf2f1acbe0ba726fee8d75f3e32900526874740bb",
      "to": "0x36f586a30502ae3afb555b8aa4dcc05d233c2ece",
      "contractAddress": null
    },
    {
      "status": "0x1",
      "cumulativeGasUsed": "0xb84386",
      "logs": [
        {
          "address": "0x36f586a30502ae3afb555b8aa4dcc05d233c2ece",
          "topics": [
            "0x1a5992a751b521ef246a1a59ba188f21a01ef4df77a46061eacc5604768157e2",
            "0x0000000000000000000000000000000000000000000000000000000000018232",
            "0x0000000000000000000000000000000000000000000000000000000000000000"
          ],
          "data": "0x00000000000000000000000000000000000000000000000000000000000186a0",
          "blockHash": "0x474095252252b42a4ddf66139051d348a8c13a9c05151cbcce1fa80d15f8f6e4",
          "blockNumber": "0x15991cf",
          "blockTimestamp": "0x68432f33",
          "transactionHash": "0x2ff64c74f2e090c5a521666115f78d575e63c1ca479783626e3b64004d0fdd47",
          "transactionIndex": "0x92",
          "logIndex": "0x13b",
          "removed": false
        }
      ],
      "logsBloom": "0x10000002000000000000000000100000000000000000000000000000000000000000000000000000000000000000000000000000000000000000000000000000000000000000000000000000000000000000000000000000001000000000000000000000020000000000000000000800000000000000000000000000000000010000000000000000000000000000000000000000000000000000000080000000000000000000000000000400000000000000000200000000000000000000000000000000000000000000000000000000000000000000000000000000000020000000000000000000002000000000000000000000000000000000000000000000",
      "type": "0x2",
      "transactionHash": "0x2ff64c74f2e090c5a521666115f78d575e63c1ca479783626e3b64004d0fdd47",
      "transactionIndex": "0x92",
      "blockHash": "0x474095252252b42a4ddf66139051d348a8c13a9c05151cbcce1fa80d15f8f6e4",
      "blockNumber": "0x15991cf",
      "gasUsed": "0xcffa",
      "effectiveGasPrice": "0x7fa4e0fa",
      "from": "0xf2f1acbe0ba726fee8d75f3e32900526874740bb",
      "to": "0x36f586a30502ae3afb555b8aa4dcc05d233c2ece",
      "contractAddress": null
    },
    {
      "status": "0x1",
      "cumulativeGasUsed": "0x10dab4d",
      "logs": [
        {
          "address": "0x36f586a30502ae3afb555b8aa4dcc05d233c2ece",
          "topics": [
            "0x1a5992a751b521ef246a1a59ba188f21a01ef4df77a46061eacc5604768157e2",
            "0x0000000000000000000000000000000000000000000000000000000000018232",
            "0x0000000000000000000000000000000000000000000000000000000000000001"
          ],
          "data": "0x000000000000000000000000000000000000000000000000000000000000c350",
          "blockHash": "0x8945c3653c2b2b949a7c67e88b84205a65f8022eb8a33efc1f57a19dd6d6ba6b",
          "blockNumber": "0x15991d0",
          "blockTimestamp": "0x68432f3f",
          "transactionHash": "0x561ed24458d2da59a70b33ebe02a9cfef4763bd1d65ec1cccc1134857bc41601",
          "transactionIndex": "0x107",
          "logIndex": "0x1ac",
          "removed": false
        }
      ],
      "logsBloom": "0x10000002000000000000000000100000000000000000000000000000000000000000000000000000000000000000000000000000000000000000000000040000000000000000000000000000000000000000000000040000001000000000000000000000000000000000000000000000000000000000000000000000000000010000000000000000000000000000000000000000000000000000000080000000000000000000000000000400000000000000000200000000000000000000000000000000000000000000000000000000000000000000000000000000000040000000000000000000002000000000000000000000000000000000000000000000",
      "type": "0x2",
      "transactionHash": "0x561ed24458d2da59a70b33ebe02a9cfef4763bd1d65ec1cccc1134857bc41601",
      "transactionIndex": "0x107",
      "blockHash": "0x8945c3653c2b2b949a7c67e88b84205a65f8022eb8a33efc1f57a19dd6d6ba6b",
      "blockNumber": "0x15991d0",
      "gasUsed": "0xcffa",
      "effectiveGasPrice": "0x817d0f34",
      "from": "0xf2f1acbe0ba726fee8d75f3e32900526874740bb",
      "to": "0x36f586a30502ae3afb555b8aa4dcc05d233c2ece",
      "contractAddress": null
    },
    {
      "status": "0x1",
      "cumulativeGasUsed": "0x964ca8",
      "logs": [
        {
          "address": "0x36f586a30502ae3afb555b8aa4dcc05d233c2ece",
          "topics": [
            "0x1a5992a751b521ef246a1a59ba188f21a01ef4df77a46061eacc5604768157e2",
            "0x0000000000000000000000000000000000000000000000000000000000018232",
            "0x0000000000000000000000000000000000000000000000000000000000000002"
          ],
          "data": "0x000000000000000000000000000000000000000000000000000000000000c350",
          "blockHash": "0xfd41cfc165f7179935fb098375f04ef4fade9548acd429842aee1753c54da1d1",
          "blockNumber": "0x15991d1",
          "blockTimestamp": "0x68432f4b",
          "transactionHash": "0xc21e6f2cfbb4895775561f346a9583d81642ebef1a0ef4f710f9ac9a0c26bd7c",
          "transactionIndex": "0x6b",
          "logIndex": "0xf9",
          "removed": false
        }
      ],
      "logsBloom": "0x14000002000000000000000000100000000000000000000000000000000000000000000000000000000000000000000000000000000000000000000000000000000000000000000000000000000000000000000000000000001000000000000000000000000000000000000000000000000000000000000000000000000000010000000000000000000000000000000000000000000000000000000080000000000000000000000000000500000000000000000200000000000000000000000000000000000000000000000000000000000000000000000000000000000000000000000000000000002000000000000000000000008000000000000000000000",
      "type": "0x2",
      "transactionHash": "0xc21e6f2cfbb4895775561f346a9583d81642ebef1a0ef4f710f9ac9a0c26bd7c",
      "transactionIndex": "0x6b",
      "blockHash": "0xfd41cfc165f7179935fb098375f04ef4fade9548acd429842aee1753c54da1d1",
      "blockNumber": "0x15991d1",
      "gasUsed": "0xcffa",
      "effectiveGasPrice": "0x877502bb",
      "from": "0xf2f1acbe0ba726fee8d75f3e32900526874740bb",
      "to": "0x36f586a30502ae3afb555b8aa4dcc05d233c2ece",
      "contractAddress": null
    },
    {
      "status": "0x1",
      "cumulativeGasUsed": "0x3a2bc7",
      "logs": [
        {
          "address": "0x36f586a30502ae3afb555b8aa4dcc05d233c2ece",
          "topics": [
            "0x1a5992a751b521ef246a1a59ba188f21a01ef4df77a46061eacc5604768157e2",
            "0x0000000000000000000000000000000000000000000000000000000000018232",
            "0x0000000000000000000000000000000000000000000000000000000000000003"
          ],
          "data": "0x000000000000000000000000000000000000000000000000000000000000c350",
          "blockHash": "0xbf99d1871059cf8ce8a54a3fe7bf1c41016fa2482f8cb46a22c789da81202731",
          "blockNumber": "0x15991d2",
          "blockTimestamp": "0x68432f57",
          "transactionHash": "0x6c27cfd9136781615252ca6d7929c61c2cc2733143bb693f07fe669384636170",
          "transactionIndex": "0x30",
          "logIndex": "0x5d",
          "removed": false
        }
      ],
      "logsBloom": "0x10000002000000000000000000100000000000000000000000000000000000000000000000000000000000000000000000000000020000000000000000000000000000000000000000000000000000000000000000000000001000000000000000000000000000000000000000000000000000000000000000000000000000010000000000000000000000000000000000000000000000000000000080000000000000000000000000000400000000000000000200800000000000000000400000000000000000000000000000000000000000000000000000000000000000000000000000000000002000000000000000000000000000000000000000000000",
      "type": "0x2",
      "transactionHash": "0x6c27cfd9136781615252ca6d7929c61c2cc2733143bb693f07fe669384636170",
      "transactionIndex": "0x30",
      "blockHash": "0xbf99d1871059cf8ce8a54a3fe7bf1c41016fa2482f8cb46a22c789da81202731",
      "blockNumber": "0x15991d2",
      "gasUsed": "0xcffa",
      "effectiveGasPrice": "0x84271f2c",
      "from": "0xf2f1acbe0ba726fee8d75f3e32900526874740bb",
      "to": "0x36f586a30502ae3afb555b8aa4dcc05d233c2ece",
      "contractAddress": null
    },
    {
      "status": "0x1",
      "cumulativeGasUsed": "0xfd231c",
      "logs": [
        {
          "address": "0x36f586a30502ae3afb555b8aa4dcc05d233c2ece",
          "topics": [
            "0xb30eec013773a40f5bfc408b77c3eb479af144a816a0250387480ba905a06f95",
            "0x000000000000000000000000866a2bf4e572cbcf37d5071a7a58503bfb36be1b",
            "0x0000000000000000000000000000000000000000000000000000000000018232",
            "0x000000000000000000000000866a2bf4e572cbcf37d5071a7a58503bfb36be1b"
          ],
          "data": "0x0000000000000000000000000000000000000000000000000000000000000001",
          "blockHash": "0x43c70e85531286c7766909fa6657b712db7f918c8a411da53a7b24672041ea0d",
          "blockNumber": "0x15991d3",
          "blockTimestamp": "0x68432f63",
          "transactionHash": "0x593c5daac325cb59fd135a568a5bd6cada863d584e38d33146b3c733a515b20b",
          "transactionIndex": "0xb0",
          "logIndex": "0x1a3",
          "removed": false
        }
      ],
      "logsBloom": "0x10000002000000000000000000000000000000000000000000000000000000000000000000000000000000000000000000000000000000000000000000000000000000000000000000000000000000000000000000000000001000000000000000000000000000000000000000000000000000000000000100000000000000000000000000000000000000000040000000000000000000000000000080000000000000000000000000000000400000000000000200000000000000000000000000080000000400000000000000000000000000000000000000000000000000000000000000000000002000000000000000000000000000000000000000000010",
      "type": "0x2",
      "transactionHash": "0x593c5daac325cb59fd135a568a5bd6cada863d584e38d33146b3c733a515b20b",
      "transactionIndex": "0xb0",
      "blockHash": "0x43c70e85531286c7766909fa6657b712db7f918c8a411da53a7b24672041ea0d",
      "blockNumber": "0x15991d3",
      "gasUsed": "0xd4b1",
      "effectiveGasPrice": "0x80bc6ca6",
      "from": "0xf2f1acbe0ba726fee8d75f3e32900526874740bb",
      "to": "0x36f586a30502ae3afb555b8aa4dcc05d233c2ece",
      "contractAddress": null
    },
    {
      "status": "0x1",
      "cumulativeGasUsed": "0xa9e31a",
      "logs": [
        {
          "address": "0x36f586a30502ae3afb555b8aa4dcc05d233c2ece",
          "topics": [
            "0xb30eec013773a40f5bfc408b77c3eb479af144a816a0250387480ba905a06f95",
            "0x000000000000000000000000866a2bf4e572cbcf37d5071a7a58503bfb36be1b",
            "0x0000000000000000000000000000000000000000000000000000000000018232",
            "0x000000000000000000000000437cc33344a0b27a429f795ff6b469c72698b291"
          ],
          "data": "0x0000000000000000000000000000000000000000000000000000000000000001",
          "blockHash": "0x531e681864a0af93cdb4023b0ab45fad6315e8b3d2283c2f6372fc1a8676c94c",
          "blockNumber": "0x15991d4",
          "blockTimestamp": "0x68432f6f",
          "transactionHash": "0x4027c379096dc1330c351876a7a3f0aa3fa8bfc037dfcad0d64b7a43e8ef4458",
          "transactionIndex": "0x7c",
          "logIndex": "0x12c",
          "removed": false
        }
      ],
      "logsBloom": "0x10000002000002000000000000000000000000000000000000000000000000000000000000000000000000000000000000000000000000000000000000000000000000000000000000000000000000000000000000000000001000000000000000000000000000000000000000000000000000000000000100000000000000000000000000000000000000000040000000000000000000000000000080000000000000000000000000000000400000000000000200020000000000000000000000080000000400000000000000000000000000000000000000000000000000200000000000000000002000000000000000000000000000000000000000000010",
      "type": "0x2",
      "transactionHash": "0x4027c379096dc1330c351876a7a3f0aa3fa8bfc037dfcad0d64b7a43e8ef4458",
      "transactionIndex": "0x7c",
      "blockHash": "0x531e681864a0af93cdb4023b0ab45fad6315e8b3d2283c2f6372fc1a8676c94c",
      "blockNumber": "0x15991d4",
      "gasUsed": "0xd4b1",
      "effectiveGasPrice": "0x824b5d10",
      "from": "0xf2f1acbe0ba726fee8d75f3e32900526874740bb",
      "to": "0x36f586a30502ae3afb555b8aa4dcc05d233c2ece",
      "contractAddress": null
    },
    {
      "status": "0x1",
      "cumulativeGasUsed": "0x7f1653",
      "logs": [
        {
          "address": "0x36f586a30502ae3afb555b8aa4dcc05d233c2ece",
          "topics": [
            "0xb30eec013773a40f5bfc408b77c3eb479af144a816a0250387480ba905a06f95",
            "0x000000000000000000000000437cc33344a0b27a429f795ff6b469c72698b291",
            "0x0000000000000000000000000000000000000000000000000000000000018232",
            "0x000000000000000000000000866a2bf4e572cbcf37d5071a7a58503bfb36be1b"
          ],
          "data": "0x0000000000000000000000000000000000000000000000000000000000000001",
          "blockHash": "0x4b6f9e569a6ac5fe8b7fbd22a9cb3c278d22c668c939dc97c738f4222d91ff21",
          "blockNumber": "0x15991d5",
          "blockTimestamp": "0x68432f7b",
          "transactionHash": "0xb56b7e4e7388077308d26f453beb8bcd792a0f5a0c0136bdf5707b8da58661ec",
          "transactionIndex": "0x5d",
          "logIndex": "0xff",
          "removed": false
        }
      ],
      "logsBloom": "0x10000002000002000000000000000000000000000000000000000000000000000000000000000000000000000000000000000000000000000000000000000000000000000000000000000000000000000000000000000000001000000000000000000000000000000000000000000000000000000000000100000000000000000000000000000000000000000040000000000000000000000000000080000000000000000000000000000000400000000000000200020000000000000000000000080000000400000000000000000000000000000000000000000000000000200000000000000000002000000000000000000000000000000000000000000010",
      "type": "0x2",
      "transactionHash": "0xb56b7e4e7388077308d26f453beb8bcd792a0f5a0c0136bdf5707b8da58661ec",
      "transactionIndex": "0x5d",
      "blockHash": "0x4b6f9e569a6ac5fe8b7fbd22a9cb3c278d22c668c939dc97c738f4222d91ff21",
      "blockNumber": "0x15991d5",
      "gasUsed": "0xd4b1",
      "effectiveGasPrice": "0x7dd432db",
      "from": "0xf2f1acbe0ba726fee8d75f3e32900526874740bb",
      "to": "0x36f586a30502ae3afb555b8aa4dcc05d233c2ece",
      "contractAddress": null
    },
    {
      "status": "0x1",
      "cumulativeGasUsed": "0x16831d8",
      "logs": [
        {
          "address": "0x36f586a30502ae3afb555b8aa4dcc05d233c2ece",
          "topics": [
            "0xb30eec013773a40f5bfc408b77c3eb479af144a816a0250387480ba905a06f95",
            "0x000000000000000000000000437cc33344a0b27a429f795ff6b469c72698b291",
            "0x0000000000000000000000000000000000000000000000000000000000018232",
            "0x000000000000000000000000437cc33344a0b27a429f795ff6b469c72698b291"
          ],
          "data": "0x0000000000000000000000000000000000000000000000000000000000000001",
          "blockHash": "0x707ca78d8785aaaf8978b02521487b21f6e180ca41a05c97c2c15aa248fc89d8",
          "blockNumber": "0x15991d6",
          "blockTimestamp": "0x68432f87",
          "transactionHash": "0x8a5f6b4d5b35c5b955c626a70789a5a1130f8d57a75214972fddcd23324dd6aa",
          "transactionIndex": "0xe3",
          "logIndex": "0x23c",
          "removed": false
        }
      ],
      "logsBloom": "0x10000002000002000000000000000000000000000000000000000000000000000000000000000000000000000000000000000000000000000000000000000000000000000000000000000000000000000000000000000000001000000000000000000000000000000000000000000000000000000000000000000000000000000000000000000000000000000000000000000000000000000000000080000000000000000000000000000000400000000000000200020000000000000000000000080000000000000000000000000000000000000000000000000000000000200000000000000000002000000000000000000000000000000000000000000010",
      "type": "0x2",
      "transactionHash": "0x8a5f6b4d5b35c5b955c626a70789a5a1130f8d57a75214972fddcd23324dd6aa",
      "transactionIndex": "0xe3",
      "blockHash": "0x707ca78d8785aaaf8978b02521487b21f6e180ca41a05c97c2c15aa248fc89d8",
      "blockNumber": "0x15991d6",
      "gasUsed": "0xd4b1",
      "effectiveGasPrice": "0x79181cb4",
      "from": "0xf2f1acbe0ba726fee8d75f3e32900526874740bb",
      "to": "0x36f586a30502ae3afb555b8aa4dcc05d233c2ece",
      "contractAddress": null
    }
  ],
  "libraries": [],
  "pending": [],
  "returns": {},
  "timestamp": 1749233545,
  "chain": 1,
  "commit": "eb1806d"
}