{
  "transactions": [
    {
      "hash": "0xb403a837a396ef53c170aedfa2cd7283188b816cbdf7c8913a3b962e11fefa4b",
      "transactionType": "CALL",
      "contractName": null,
      "contractAddress": "0xf9647b9af5bc199a58a8d6374c84099c2f313d98",
      "function": "setPeer(uint256,bytes32)",
      "arguments": [
        "11155111",
        "0x000000000000000000000000f9647b9af5bc199a58a8d6374c84099c2f313d98"
      ],
      "transaction": {
        "from": "0x4a76ce857517ed9ad21efdec6ad6217827660430",
        "to": "0xf9647b9af5bc199a58a8d6374c84099c2f313d98",
        "gas": "0x10fc4",
        "value": "0x0",
        "input": "0xbc9e84870000000000000000000000000000000000000000000000000000000000aa36a7000000000000000000000000f9647b9af5bc199a58a8d6374c84099c2f313d98",
        "nonce": "0xc",
        "chainId": "0x3e6"
      },
      "additionalContracts": [],
      "isFixedGasLimit": false
    },
    {
      "hash": "0x40cf215cf3dc36318c895e32488bfc77f9ad55a1b5a5b4678d64f6d3ec7b452d",
      "transactionType": "CALL",
      "contractName": null,
      "contractAddress": "0x6daf7bec65748dc13f886c47c131f3b49afdb954",
      "function": "setDestinationMToken(uint256,address)",
      "arguments": [
        "11155111",
        "0x866A2BF4E572CbcF37D5071A7a58503Bfb36be1b"
      ],
      "transaction": {
        "from": "0x4a76ce857517ed9ad21efdec6ad6217827660430",
        "to": "0x6daf7bec65748dc13f886c47c131f3b49afdb954",
        "gas": "0x11d07",
        "value": "0x0",
        "input": "0xe80f94cf0000000000000000000000000000000000000000000000000000000000aa36a7000000000000000000000000866a2bf4e572cbcf37d5071a7a58503bfb36be1b",
        "nonce": "0xd",
        "chainId": "0x3e6"
      },
      "additionalContracts": [],
      "isFixedGasLimit": false
    },
    {
      "hash": "0x7b5fa49869bc743c45da8cf03aa03a57ff354a2d2ade3659a2cb972537aa6397",
      "transactionType": "CALL",
      "contractName": null,
      "contractAddress": "0x6daf7bec65748dc13f886c47c131f3b49afdb954",
      "function": "setSupportedBridgingPath(address,uint256,address,bool)",
      "arguments": [
        "0x62934b194D78f9efE0a2455Ef30f38FaE94Bb543",
        "11155111",
        "0x866A2BF4E572CbcF37D5071A7a58503Bfb36be1b",
        "true"
      ],
      "transaction": {
        "from": "0x4a76ce857517ed9ad21efdec6ad6217827660430",
        "to": "0x6daf7bec65748dc13f886c47c131f3b49afdb954",
        "gas": "0x125e4",
        "value": "0x0",
        "input": "0xb3c2c21400000000000000000000000062934b194d78f9efe0a2455ef30f38fae94bb5430000000000000000000000000000000000000000000000000000000000aa36a7000000000000000000000000866a2bf4e572cbcf37d5071a7a58503bfb36be1b0000000000000000000000000000000000000000000000000000000000000001",
        "nonce": "0xe",
        "chainId": "0x3e6"
      },
      "additionalContracts": [],
      "isFixedGasLimit": false
    }
  ],
  "receipts": [
    {
      "status": "0x1",
      "cumulativeGasUsed": "0xb9d3",
      "logs": [
        {
          "address": "0xf9647b9af5bc199a58a8d6374c84099c2f313d98",
          "topics": [
            "0x91d4c3fec14758a2444d9091d55188dabf0093da924e5a6cd831fa01a0547dc7"
          ],
          "data": "0x0000000000000000000000000000000000000000000000000000000000aa36a7000000000000000000000000f9647b9af5bc199a58a8d6374c84099c2f313d98",
          "blockHash": "0x9b661a018c1971ffc01a63b2a34b47f1705fb348c0b877894c3c2a35f9e571e1",
          "blockNumber": "0x1512a49",
          "blockTimestamp": "0x68216ef8",
          "transactionHash": "0xb403a837a396ef53c170aedfa2cd7283188b816cbdf7c8913a3b962e11fefa4b",
          "transactionIndex": "0x0",
          "logIndex": "0x0",
          "removed": false
        }
      ],
      "logsBloom": "0x00000000000000000000000000000000000000000000000000000000000000000000000000000000000000000000000000000000000000000000000000000000010000000000000000000000000000000000000000000000000000000000000000000000000000000000000000000040000000000000000000000000000000000000000000000080000000000000000000000000000000000000000000000000000000000000000000000000000000000800000000000000000000000000000000000000000000004400000000000000000000000000000000000000000000000000000000000000000000000000000000000000000000000000000000000000",
      "type": "0x2",
      "transactionHash": "0xb403a837a396ef53c170aedfa2cd7283188b816cbdf7c8913a3b962e11fefa4b",
      "transactionIndex": "0x0",
      "blockHash": "0x9b661a018c1971ffc01a63b2a34b47f1705fb348c0b877894c3c2a35f9e571e1",
      "blockNumber": "0x1512a49",
      "gasUsed": "0xb9d3",
      "effectiveGasPrice": "0x5f5e101",
      "from": "0x4a76ce857517ed9ad21efdec6ad6217827660430",
      "to": "0xf9647b9af5bc199a58a8d6374c84099c2f313d98",
      "contractAddress": null
    },
    {
      "status": "0x1",
      "cumulativeGasUsed": "0xce5c",
      "logs": [
        {
          "address": "0x6daf7bec65748dc13f886c47c131f3b49afdb954",
          "topics": [
            "0xe1f5ca8210e2b8950e4626ed9e65573e6a90daf4c4f5d098ad4b7665a08992cb",
            "0x0000000000000000000000000000000000000000000000000000000000aa36a7"
          ],
          "data": "0x000000000000000000000000866a2bf4e572cbcf37d5071a7a58503bfb36be1b",
          "blockHash": "0x6b481560dea27e622dfa72bbffe5c5c17cb42da4d237334bd482f12de1aae69f",
          "blockNumber": "0x1512a68",
          "blockTimestamp": "0x68216f34",
          "transactionHash": "0x40cf215cf3dc36318c895e32488bfc77f9ad55a1b5a5b4678d64f6d3ec7b452d",
          "transactionIndex": "0x0",
          "logIndex": "0x0",
          "removed": false
        }
      ],
      "logsBloom": "0x00000000000000000000080000000000000000000000000000000000000000000000000000000000000000000000000002000000000000000000000000000000000020000000000000000000000000000000000000000000000000000000000000008000000000000000000000000000000000000000000000000000000000000000000000000000000000000000000000000000000000000000000000000000000000000000000000000000000000000000000000000000000000000200000000000000008000000000000000000000100020000000000000000000000000000000000000000000000000000000000000000000000000000000000004000000",
      "type": "0x2",
      "transactionHash": "0x40cf215cf3dc36318c895e32488bfc77f9ad55a1b5a5b4678d64f6d3ec7b452d",
      "transactionIndex": "0x0",
      "blockHash": "0x6b481560dea27e622dfa72bbffe5c5c17cb42da4d237334bd482f12de1aae69f",
      "blockNumber": "0x1512a68",
      "gasUsed": "0xce5c",
      "effectiveGasPrice": "0x5f5e101",
      "from": "0x4a76ce857517ed9ad21efdec6ad6217827660430",
      "to": "0x6daf7bec65748dc13f886c47c131f3b49afdb954",
      "contractAddress": null
    },
    {
      "status": "0x1",
      "cumulativeGasUsed": "0xd4c6",
      "logs": [
        {
          "address": "0x6daf7bec65748dc13f886c47c131f3b49afdb954",
          "topics": [
            "0xb30eec013773a40f5bfc408b77c3eb479af144a816a0250387480ba905a06f95",
            "0x00000000000000000000000062934b194d78f9efe0a2455ef30f38fae94bb543",
            "0x0000000000000000000000000000000000000000000000000000000000aa36a7",
            "0x000000000000000000000000866a2bf4e572cbcf37d5071a7a58503bfb36be1b"
          ],
          "data": "0x0000000000000000000000000000000000000000000000000000000000000001",
          "blockHash": "0x2881cc9e826c39b18ebf13f3bc3f0ff87e84a67c445cc9213c21cc2416c8cd20",
          "blockNumber": "0x1512a87",
          "blockTimestamp": "0x68216f70",
          "transactionHash": "0x7b5fa49869bc743c45da8cf03aa03a57ff354a2d2ade3659a2cb972537aa6397",
          "transactionIndex": "0x0",
          "logIndex": "0x0",
          "removed": false
        }
      ],
      "logsBloom": "0x00000000000000000000080000000000000000000000000000000000000000000000000000000000000000000000000002000000000000000000000000000000008000000000000000000000000000000000000000000000000000000000000000008000000000000000000000000000000000000000000100000000000000000000000000000000000000000040000000000000000000000000000000000000000000000000000000000000400000000000200000000000000000000200000000080000008400000000000000000000100000000000000000000000000004000000000000000000000000000000000000000000000000000000000000000010",
      "type": "0x2",
      "transactionHash": "0x7b5fa49869bc743c45da8cf03aa03a57ff354a2d2ade3659a2cb972537aa6397",
      "transactionIndex": "0x0",
      "blockHash": "0x2881cc9e826c39b18ebf13f3bc3f0ff87e84a67c445cc9213c21cc2416c8cd20",
      "blockNumber": "0x1512a87",
      "gasUsed": "0xd4c6",
      "effectiveGasPrice": "0x5f5e101",
      "from": "0x4a76ce857517ed9ad21efdec6ad6217827660430",
      "to": "0x6daf7bec65748dc13f886c47c131f3b49afdb954",
      "contractAddress": null
    }
  ],
  "libraries": [],
  "pending": [],
  "returns": {},
  "timestamp": 1747021682,
  "chain": 998,
  "commit": "ccebbfa"
}