{
  "transactions": [
    {
      "hash": "0xe97cd7bd2120402e902493a5fd7665650289a486e01175eb8ce4cb72a70887df",
      "transactionType": "CALL",
      "contractName": null,
      "contractAddress": "0x36f586a30502ae3afb555b8aa4dcc05d233c2ece",
      "function": "setSupportedBridgingPath(address,uint256,address,bool)",
      "arguments": [
        "0x866A2BF4E572CbcF37D5071A7a58503Bfb36be1b",
        "11155111",
        "0x437cc33344a0B27A429f795ff6B469C72698B291",
        "true"
      ],
      "transaction": {
        "from": "0xf2f1acbe0ba726fee8d75f3e32900526874740bb",
        "to": "0x36f586a30502ae3afb555b8aa4dcc05d233c2ece",
        "gas": "0x125e4",
        "value": "0x0",
        "input": "0xb3c2c214000000000000000000000000866a2bf4e572cbcf37d5071a7a58503bfb36be1b0000000000000000000000000000000000000000000000000000000000aa36a7000000000000000000000000437cc33344a0b27a429f795ff6b469c72698b2910000000000000000000000000000000000000000000000000000000000000001",
        "nonce": "0x29",
        "chainId": "0x18233"
      },
      "additionalContracts": [],
      "isFixedGasLimit": false
    },
    {
      "hash": "0x6d08db36ac0406956c68dbcddfd8f5a0789ed6ca96c1e800d3cb375d56a3ddc1",
      "transactionType": "CALL",
      "contractName": null,
      "contractAddress": "0x36f586a30502ae3afb555b8aa4dcc05d233c2ece",
      "function": "setSupportedBridgingPath(address,uint256,address,bool)",
      "arguments": [
        "0x437cc33344a0B27A429f795ff6B469C72698B291",
        "11155111",
        "0x866A2BF4E572CbcF37D5071A7a58503Bfb36be1b",
        "true"
      ],
      "transaction": {
        "from": "0xf2f1acbe0ba726fee8d75f3e32900526874740bb",
        "to": "0x36f586a30502ae3afb555b8aa4dcc05d233c2ece",
        "gas": "0x125e4",
        "value": "0x0",
        "input": "0xb3c2c214000000000000000000000000437cc33344a0b27a429f795ff6b469c72698b2910000000000000000000000000000000000000000000000000000000000aa36a7000000000000000000000000866a2bf4e572cbcf37d5071a7a58503bfb36be1b0000000000000000000000000000000000000000000000000000000000000001",
        "nonce": "0x2a",
        "chainId": "0x18233"
      },
      "additionalContracts": [],
      "isFixedGasLimit": false
    },
    {
      "hash": "0x75612c34974eeccd242189d8e41fbefff91e01fd087331a946f372c46d259445",
      "transactionType": "CALL",
      "contractName": null,
      "contractAddress": "0x36f586a30502ae3afb555b8aa4dcc05d233c2ece",
      "function": "setSupportedBridgingPath(address,uint256,address,bool)",
      "arguments": [
        "0x437cc33344a0B27A429f795ff6B469C72698B291",
        "11155111",
        "0x437cc33344a0B27A429f795ff6B469C72698B291",
        "true"
      ],
      "transaction": {
        "from": "0xf2f1acbe0ba726fee8d75f3e32900526874740bb",
        "to": "0x36f586a30502ae3afb555b8aa4dcc05d233c2ece",
        "gas": "0x125e4",
        "value": "0x0",
        "input": "0xb3c2c214000000000000000000000000437cc33344a0b27a429f795ff6b469c72698b2910000000000000000000000000000000000000000000000000000000000aa36a7000000000000000000000000437cc33344a0b27a429f795ff6b469c72698b2910000000000000000000000000000000000000000000000000000000000000001",
        "nonce": "0x2b",
        "chainId": "0x18233"
      },
      "additionalContracts": [],
      "isFixedGasLimit": false
    }
  ],
  "receipts": [
    {
      "status": "0x1",
      "cumulativeGasUsed": "0xd4c6",
      "logs": [
        {
          "address": "0x36f586a30502ae3afb555b8aa4dcc05d233c2ece",
          "topics": [
            "0xb30eec013773a40f5bfc408b77c3eb479af144a816a0250387480ba905a06f95",
            "0x000000000000000000000000866a2bf4e572cbcf37d5071a7a58503bfb36be1b",
            "0x0000000000000000000000000000000000000000000000000000000000aa36a7",
            "0x000000000000000000000000437cc33344a0b27a429f795ff6b469c72698b291"
          ],
          "data": "0x0000000000000000000000000000000000000000000000000000000000000001",
          "blockHash": "0xc998309383a055c6270a20e02e05d651c4b4a8f716fab79e7e05bd21868fa3ba",
          "blockNumber": "0xb3e57b",
          "transactionHash": "0xe97cd7bd2120402e902493a5fd7665650289a486e01175eb8ce4cb72a70887df",
          "transactionIndex": "0x1",
          "logIndex": "0x0",
          "removed": false
        }
      ],
      "logsBloom": "0x00000000000002000000000000000000000000000000000000000000000000000000000000000000000000000000000002000000000000000000000000000000000000000000000000000000000000000000000000000000001000000000000000000000000000000000000000000000000000000000000100000000000000000000000000000000000000000040000000000000000000000000000080000000000000000000000000000000400000000000000200020000000000000200000000080000000400000000000000000000100000000000000000000000000000200000000000000000000000000000000000000000000000000000000000000010",
      "type": "0x2",
      "transactionHash": "0xe97cd7bd2120402e902493a5fd7665650289a486e01175eb8ce4cb72a70887df",
      "transactionIndex": "0x1",
      "blockHash": "0xc998309383a055c6270a20e02e05d651c4b4a8f716fab79e7e05bd21868fa3ba",
      "blockNumber": "0xb3e57b",
      "gasUsed": "0xd4c6",
      "effectiveGasPrice": "0x989680",
      "from": "0xf2f1acbe0ba726fee8d75f3e32900526874740bb",
      "to": "0x36f586a30502ae3afb555b8aa4dcc05d233c2ece",
      "contractAddress": null,
      "gasUsedForL1": "0x0",
      "l1BlockNumber": "0x818f82"
    },
    {
      "status": "0x1",
      "cumulativeGasUsed": "0xd4c6",
      "logs": [
        {
          "address": "0x36f586a30502ae3afb555b8aa4dcc05d233c2ece",
          "topics": [
            "0xb30eec013773a40f5bfc408b77c3eb479af144a816a0250387480ba905a06f95",
            "0x000000000000000000000000437cc33344a0b27a429f795ff6b469c72698b291",
            "0x0000000000000000000000000000000000000000000000000000000000aa36a7",
            "0x000000000000000000000000866a2bf4e572cbcf37d5071a7a58503bfb36be1b"
          ],
          "data": "0x0000000000000000000000000000000000000000000000000000000000000001",
          "blockHash": "0xc254ae6c02215747b568fb6a745baa542985dfcb2ead8a4bf539b6f93e67da54",
          "blockNumber": "0xb3e57c",
          "transactionHash": "0x6d08db36ac0406956c68dbcddfd8f5a0789ed6ca96c1e800d3cb375d56a3ddc1",
          "transactionIndex": "0x1",
          "logIndex": "0x0",
          "removed": false
        }
      ],
      "logsBloom": "0x00000000000002000000000000000000000000000000000000000000000000000000000000000000000000000000000002000000000000000000000000000000000000000000000000000000000000000000000000000000001000000000000000000000000000000000000000000000000000000000000100000000000000000000000000000000000000000040000000000000000000000000000080000000000000000000000000000000400000000000000200020000000000000200000000080000000400000000000000000000100000000000000000000000000000200000000000000000000000000000000000000000000000000000000000000010",
      "type": "0x2",
      "transactionHash": "0x6d08db36ac0406956c68dbcddfd8f5a0789ed6ca96c1e800d3cb375d56a3ddc1",
      "transactionIndex": "0x1",
      "blockHash": "0xc254ae6c02215747b568fb6a745baa542985dfcb2ead8a4bf539b6f93e67da54",
      "blockNumber": "0xb3e57c",
      "gasUsed": "0xd4c6",
      "effectiveGasPrice": "0x989680",
      "from": "0xf2f1acbe0ba726fee8d75f3e32900526874740bb",
      "to": "0x36f586a30502ae3afb555b8aa4dcc05d233c2ece",
      "contractAddress": null,
      "gasUsedForL1": "0x0",
      "l1BlockNumber": "0x818f82"
    },
    {
      "status": "0x1",
      "cumulativeGasUsed": "0x1883b",
      "logs": [
        {
          "address": "0x36f586a30502ae3afb555b8aa4dcc05d233c2ece",
          "topics": [
            "0xb30eec013773a40f5bfc408b77c3eb479af144a816a0250387480ba905a06f95",
            "0x000000000000000000000000437cc33344a0b27a429f795ff6b469c72698b291",
            "0x0000000000000000000000000000000000000000000000000000000000aa36a7",
            "0x000000000000000000000000437cc33344a0b27a429f795ff6b469c72698b291"
          ],
          "data": "0x0000000000000000000000000000000000000000000000000000000000000001",
          "blockHash": "0x36a402e8e5d162fa59a90817b11782ee8fc377a0c42d5cfedfcae49683d79fa7",
          "blockNumber": "0xb3e57d",
          "transactionHash": "0x75612c34974eeccd242189d8e41fbefff91e01fd087331a946f372c46d259445",
          "transactionIndex": "0x2",
          "logIndex": "0x1",
          "removed": false
        }
      ],
      "logsBloom": "0x00000000000002000000000000000000000000000000000000000000000000000000000000000000000000000000000002000000000000000000000000000000000000000000000000000000000000000000000000000000001000000000000000000000000000000000000000000000000000000000000000000000000000000000000000000000000000000000000000000000000000000000000080000000000000000000000000000000400000000000000200020000000000000200000000080000000000000000000000000000100000000000000000000000000000200000000000000000000000000000000000000000000000000000000000000010",
      "type": "0x2",
      "transactionHash": "0x75612c34974eeccd242189d8e41fbefff91e01fd087331a946f372c46d259445",
      "transactionIndex": "0x2",
      "blockHash": "0x36a402e8e5d162fa59a90817b11782ee8fc377a0c42d5cfedfcae49683d79fa7",
      "blockNumber": "0xb3e57d",
      "gasUsed": "0xd4c6",
      "effectiveGasPrice": "0x989680",
      "from": "0xf2f1acbe0ba726fee8d75f3e32900526874740bb",
      "to": "0x36f586a30502ae3afb555b8aa4dcc05d233c2ece",
      "contractAddress": null,
      "gasUsedForL1": "0x0",
      "l1BlockNumber": "0x818f82"
    }
  ],
  "libraries": [],
  "pending": [],
  "returns": {},
  "timestamp": 1749230197,
  "chain": 98867,
  "commit": "b9f27e7"
}