{
  "transactions": [
    {
      "hash": "0x2b0c2a8ef1acfd5b650f9e09c6b409a53b3765ae878b2f67822c6cf42a51856d",
      "transactionType": "CALL",
      "contractName": null,
      "contractAddress": "0x51dce104e5ba88fabc19a2c519f955bb834b0dc3",
      "function": "setPeer(uint256,bytes32)",
      "arguments": [
        "11155111",
        "0x00000000000000000000000051dce104e5ba88fabc19a2c519f955bb834b0dc3"
      ],
      "transaction": {
        "from": "0xf2f1acbe0ba726fee8d75f3e32900526874740bb",
        "to": "0x51dce104e5ba88fabc19a2c519f955bb834b0dc3",
        "gas": "0x100e9",
        "value": "0x0",
        "input": "0xbc9e84870000000000000000000000000000000000000000000000000000000000aa36a700000000000000000000000051dce104e5ba88fabc19a2c519f955bb834b0dc3",
        "nonce": "0xc",
        "chainId": "0x18233"
      },
      "additionalContracts": [],
      "isFixedGasLimit": false
    },
    {
      "hash": "0xb1f1bbdc7cbf29c038a9af7b23a7247868036f481c586252c4ff9becc6188988",
      "transactionType": "CALL",
      "contractName": null,
      "contractAddress": "0x36f586a30502ae3afb555b8aa4dcc05d233c2ece",
      "function": "setDestinationMToken(uint256,address)",
      "arguments": [
        "11155111",
        "0x866A2BF4E572CbcF37D5071A7a58503Bfb36be1b"
      ],
      "transaction": {
        "from": "0xf2f1acbe0ba726fee8d75f3e32900526874740bb",
        "to": "0x36f586a30502ae3afb555b8aa4dcc05d233c2ece",
        "gas": "0x11d07",
        "value": "0x0",
        "input": "0xe80f94cf0000000000000000000000000000000000000000000000000000000000aa36a7000000000000000000000000866a2bf4e572cbcf37d5071a7a58503bfb36be1b",
        "nonce": "0xd",
        "chainId": "0x18233"
      },
      "additionalContracts": [],
      "isFixedGasLimit": false
    },
    {
      "hash": "0x31986af396af5e82c8c8936a72c443d53dd24daad22c0a3f2edee44135159bbd",
      "transactionType": "CALL",
      "contractName": null,
      "contractAddress": "0x36f586a30502ae3afb555b8aa4dcc05d233c2ece",
      "function": "setPayloadGasLimit(uint256,uint8,uint256)",
      "arguments": [
        "11155111",
        "0",
        "100000"
      ],
      "transaction": {
        "from": "0xf2f1acbe0ba726fee8d75f3e32900526874740bb",
        "to": "0x36f586a30502ae3afb555b8aa4dcc05d233c2ece",
        "gas": "0x11ee8",
        "value": "0x0",
        "input": "0x515c49460000000000000000000000000000000000000000000000000000000000aa36a7000000000000000000000000000000000000000000000000000000000000000000000000000000000000000000000000000000000000000000000000000186a0",
        "nonce": "0xe",
        "chainId": "0x18233"
      },
      "additionalContracts": [],
      "isFixedGasLimit": false
    },
    {
      "hash": "0x004a8cda0148a6a91308f3c33d9fefc47813ece8eb405d4243c72f91548fbd8f",
      "transactionType": "CALL",
      "contractName": null,
      "contractAddress": "0x36f586a30502ae3afb555b8aa4dcc05d233c2ece",
      "function": "setSupportedBridgingPath(address,uint256,address,bool)",
      "arguments": [
        "0x866A2BF4E572CbcF37D5071A7a58503Bfb36be1b",
        "11155111",
        "0x866A2BF4E572CbcF37D5071A7a58503Bfb36be1b",
        "true"
      ],
      "transaction": {
        "from": "0xf2f1acbe0ba726fee8d75f3e32900526874740bb",
        "to": "0x36f586a30502ae3afb555b8aa4dcc05d233c2ece",
        "gas": "0x125e4",
        "value": "0x0",
        "input": "0xb3c2c214000000000000000000000000866a2bf4e572cbcf37d5071a7a58503bfb36be1b0000000000000000000000000000000000000000000000000000000000aa36a7000000000000000000000000866a2bf4e572cbcf37d5071a7a58503bfb36be1b0000000000000000000000000000000000000000000000000000000000000001",
        "nonce": "0xf",
        "chainId": "0x18233"
      },
      "additionalContracts": [],
      "isFixedGasLimit": false
    }
  ],
  "receipts": [
    {
      "status": "0x1",
      "cumulativeGasUsed": "0xba00",
      "logs": [
        {
          "address": "0x51dce104e5ba88fabc19a2c519f955bb834b0dc3",
          "topics": [
            "0x91d4c3fec14758a2444d9091d55188dabf0093da924e5a6cd831fa01a0547dc7"
          ],
          "data": "0x0000000000000000000000000000000000000000000000000000000000aa36a700000000000000000000000051dce104e5ba88fabc19a2c519f955bb834b0dc3",
          "blockHash": "0x3d50f30b60503b42cb205a84e7a35df4e8e69d4a5b347efed16d7d49e5014089",
          "blockNumber": "0x91b3d3",
          "transactionHash": "0x2b0c2a8ef1acfd5b650f9e09c6b409a53b3765ae878b2f67822c6cf42a51856d",
          "transactionIndex": "0x1",
          "logIndex": "0x0",
          "removed": false
        }
      ],
      "logsBloom": "0x00000000000000000000000000000000000000000000000000000000000000000000000000000000000000000000000000020000000000000000000000000000010000000000000000000000000000000000000000000000000000000000000000000000000000000000000000000000000010000000000000000000000000000000000000000000000000000000000000000000000000000000000000000000000000000000000000000000000000000800000000000000000000000000000000000000000000004000000000000000000000000000000000000000000000000000000000000000000000000000000000000002000000000000000000000000",
      "type": "0x2",
      "transactionHash": "0x2b0c2a8ef1acfd5b650f9e09c6b409a53b3765ae878b2f67822c6cf42a51856d",
      "transactionIndex": "0x1",
      "blockHash": "0x3d50f30b60503b42cb205a84e7a35df4e8e69d4a5b347efed16d7d49e5014089",
      "blockNumber": "0x91b3d3",
      "gasUsed": "0xba00",
      "effectiveGasPrice": "0x989680",
      "from": "0xf2f1acbe0ba726fee8d75f3e32900526874740bb",
      "to": "0x51dce104e5ba88fabc19a2c519f955bb834b0dc3",
      "contractAddress": null,
      "gasUsedForL1": "0x0",
      "l1BlockNumber": "0x808334"
    },
    {
      "status": "0x1",
      "cumulativeGasUsed": "0xce5c",
      "logs": [
        {
          "address": "0x36f586a30502ae3afb555b8aa4dcc05d233c2ece",
          "topics": [
            "0xe1f5ca8210e2b8950e4626ed9e65573e6a90daf4c4f5d098ad4b7665a08992cb",
            "0x0000000000000000000000000000000000000000000000000000000000aa36a7"
          ],
          "data": "0x000000000000000000000000866a2bf4e572cbcf37d5071a7a58503bfb36be1b",
          "blockHash": "0x9bbda4ec86d42c8c2a762be64e966c1f42cf78edc86325ead3b0612f862f698f",
          "blockNumber": "0x91b3d5",
          "transactionHash": "0xb1f1bbdc7cbf29c038a9af7b23a7247868036f481c586252c4ff9becc6188988",
          "transactionIndex": "0x1",
          "logIndex": "0x0",
          "removed": false
        }
      ],
      "logsBloom": "0x00000000000000000000000000000000000000000000000000000000000000000000000000000000000000000000000002000000000000000000000000000000000020000000000000000000000000000000000000000000001000000000000000000000000000000000000000000000000000000000000000000000000000000000000000000000000000000000000000000000000000000000000080000000000000000000000000000000000000000000000200000000000000000200000000000000000000000000000000000000100020000000000000000000000000000000000000000000000000000000000000000000000000000000000004000000",
      "type": "0x2",
      "transactionHash": "0xb1f1bbdc7cbf29c038a9af7b23a7247868036f481c586252c4ff9becc6188988",
      "transactionIndex": "0x1",
      "blockHash": "0x9bbda4ec86d42c8c2a762be64e966c1f42cf78edc86325ead3b0612f862f698f",
      "blockNumber": "0x91b3d5",
      "gasUsed": "0xce5c",
      "effectiveGasPrice": "0x989680",
      "from": "0xf2f1acbe0ba726fee8d75f3e32900526874740bb",
      "to": "0x36f586a30502ae3afb555b8aa4dcc05d233c2ece",
      "contractAddress": null,
      "gasUsedForL1": "0x0",
      "l1BlockNumber": "0x808334"
    },
    {
      "status": "0x1",
      "cumulativeGasUsed": "0x337bd",
      "logs": [
        {
          "address": "0x36f586a30502ae3afb555b8aa4dcc05d233c2ece",
          "topics": [
            "0x1a5992a751b521ef246a1a59ba188f21a01ef4df77a46061eacc5604768157e2",
            "0x0000000000000000000000000000000000000000000000000000000000aa36a7",
            "0x0000000000000000000000000000000000000000000000000000000000000000"
          ],
          "data": "0x00000000000000000000000000000000000000000000000000000000000186a0",
          "blockHash": "0x1a80b590b661e62e6366ece36fe96bc121b423623b7a9187e3bb3c9b76ddc18b",
          "blockNumber": "0x91b3d6",
          "transactionHash": "0x31986af396af5e82c8c8936a72c443d53dd24daad22c0a3f2edee44135159bbd",
          "transactionIndex": "0x2",
          "logIndex": "0x4",
          "removed": false
        }
      ],
      "logsBloom": "0x00000000000000000000000000100000000000000000000000000000000000000000000000000000000000000000000002000000000000000000000000000000000000000000000000000000000000000000000000000000001000000000000000000000020000000000000000000800000000000000000000000000000000010000000000000000000000000000000000000000000000000000000080000000000000000000000000000400000000000000000200000000000000000200000000000000000000000000000000000000100000000000000000000000000020000000000000000000000000000000000000000000000000000000000000000000",
      "type": "0x2",
      "transactionHash": "0x31986af396af5e82c8c8936a72c443d53dd24daad22c0a3f2edee44135159bbd",
      "transactionIndex": "0x2",
      "blockHash": "0x1a80b590b661e62e6366ece36fe96bc121b423623b7a9187e3bb3c9b76ddc18b",
      "blockNumber": "0x91b3d6",
      "gasUsed": "0xcfb8",
      "effectiveGasPrice": "0x989680",
      "from": "0xf2f1acbe0ba726fee8d75f3e32900526874740bb",
      "to": "0x36f586a30502ae3afb555b8aa4dcc05d233c2ece",
      "contractAddress": null,
      "gasUsedForL1": "0x0",
      "l1BlockNumber": "0x808334"
    },
    {
      "status": "0x1",
      "cumulativeGasUsed": "0x18833",
      "logs": [
        {
          "address": "0x36f586a30502ae3afb555b8aa4dcc05d233c2ece",
          "topics": [
            "0xb30eec013773a40f5bfc408b77c3eb479af144a816a0250387480ba905a06f95",
            "0x000000000000000000000000866a2bf4e572cbcf37d5071a7a58503bfb36be1b",
            "0x0000000000000000000000000000000000000000000000000000000000aa36a7",
            "0x000000000000000000000000866a2bf4e572cbcf37d5071a7a58503bfb36be1b"
          ],
          "data": "0x0000000000000000000000000000000000000000000000000000000000000001",
          "blockHash": "0xeca21f1c307753919a5e24557595e770c67c06459b0f5d40e05ba62422b3e8d1",
          "blockNumber": "0x91b3d7",
          "transactionHash": "0x004a8cda0148a6a91308f3c33d9fefc47813ece8eb405d4243c72f91548fbd8f",
          "transactionIndex": "0x2",
          "logIndex": "0x1",
          "removed": false
        }
      ],
      "logsBloom": "0x00000000000000000000000000000000000000000000000000000000000000000000000000000000000000000000000002000000000000000000000000000000000000000000000000000000000000000000000000000000001000000000000000000000000000000000000000000000000000000000000100000000000000000000000000000000000000000040000000000000000000000000000080000000000000000000000000000000400000000000000200000000000000000200000000080000000400000000000000000000100000000000000000000000000000000000000000000000000000000000000000000000000000000000000000000010",
      "type": "0x2",
      "transactionHash": "0x004a8cda0148a6a91308f3c33d9fefc47813ece8eb405d4243c72f91548fbd8f",
      "transactionIndex": "0x2",
      "blockHash": "0xeca21f1c307753919a5e24557595e770c67c06459b0f5d40e05ba62422b3e8d1",
      "blockNumber": "0x91b3d7",
      "gasUsed": "0xd4c6",
      "effectiveGasPrice": "0x989680",
      "from": "0xf2f1acbe0ba726fee8d75f3e32900526874740bb",
      "to": "0x36f586a30502ae3afb555b8aa4dcc05d233c2ece",
      "contractAddress": null,
      "gasUsedForL1": "0x0",
      "l1BlockNumber": "0x808334"
    }
  ],
  "libraries": [],
  "pending": [],
  "returns": {},
  "timestamp": 1748404454,
  "chain": 98867,
  "commit": "7fde8d5"
}