{
  "transactions": [
    {
      "hash": "0x72e03d4b7730718b731a1e15d9c3cc1240cb7138f75ea90d9eb2b6805664e895",
      "transactionType": "CALL",
      "contractName": null,
      "contractAddress": "0x51dce104e5ba88fabc19a2c519f955bb834b0dc3",
      "function": "setPeer(uint256,bytes32)",
      "arguments": [
        "1",
        "0x00000000000000000000000051dce104e5ba88fabc19a2c519f955bb834b0dc3"
      ],
      "transaction": {
        "from": "0xf2f1acbe0ba726fee8d75f3e32900526874740bb",
        "to": "0x51dce104e5ba88fabc19a2c519f955bb834b0dc3",
        "gas": "0x100c7",
        "value": "0x0",
        "input": "0xbc9e8487000000000000000000000000000000000000000000000000000000000000000100000000000000000000000051dce104e5ba88fabc19a2c519f955bb834b0dc3",
        "nonce": "0x29",
        "chainId": "0x18232"
      },
      "additionalContracts": [],
      "isFixedGasLimit": false
    },
    {
      "hash": "0x305b5720c68aa5b8aab22bd7511219a97b139b35abae18847785d69c5740b5de",
      "transactionType": "CALL",
      "contractName": null,
      "contractAddress": "0x36f586a30502ae3afb555b8aa4dcc05d233c2ece",
      "function": "setDestinationMToken(uint256,address)",
      "arguments": [
        "1",
        "0x866A2BF4E572CbcF37D5071A7a58503Bfb36be1b"
      ],
      "transaction": {
        "from": "0xf2f1acbe0ba726fee8d75f3e32900526874740bb",
        "to": "0x36f586a30502ae3afb555b8aa4dcc05d233c2ece",
        "gas": "0x11ce7",
        "value": "0x0",
        "input": "0xe80f94cf0000000000000000000000000000000000000000000000000000000000000001000000000000000000000000866a2bf4e572cbcf37d5071a7a58503bfb36be1b",
        "nonce": "0x2a",
        "chainId": "0x18232"
      },
      "additionalContracts": [],
      "isFixedGasLimit": false
    },
    {
      "hash": "0xf884280098db1c080d0d177d3dd86677f5b1c3841fd94052f7eeb14c27c7dd3c",
      "transactionType": "CALL",
      "contractName": null,
      "contractAddress": "0x36f586a30502ae3afb555b8aa4dcc05d233c2ece",
      "function": "setPayloadGasLimit(uint256,uint8,uint256)",
      "arguments": [
        "1",
        "0",
        "100000"
      ],
      "transaction": {
        "from": "0xf2f1acbe0ba726fee8d75f3e32900526874740bb",
        "to": "0x36f586a30502ae3afb555b8aa4dcc05d233c2ece",
        "gas": "0x11ec8",
        "value": "0x0",
        "input": "0x515c49460000000000000000000000000000000000000000000000000000000000000001000000000000000000000000000000000000000000000000000000000000000000000000000000000000000000000000000000000000000000000000000186a0",
        "nonce": "0x2b",
        "chainId": "0x18232"
      },
      "additionalContracts": [],
      "isFixedGasLimit": false
    },
    {
      "hash": "0xa0324127d242e674f089f755a89a6027016a6bf89e17b99d52a57077497cad68",
      "transactionType": "CALL",
      "contractName": null,
      "contractAddress": "0x36f586a30502ae3afb555b8aa4dcc05d233c2ece",
      "function": "setSupportedBridgingPath(address,uint256,address,bool)",
      "arguments": [
        "0x866A2BF4E572CbcF37D5071A7a58503Bfb36be1b",
        "1",
        "0x866A2BF4E572CbcF37D5071A7a58503Bfb36be1b",
        "true"
      ],
      "transaction": {
        "from": "0xf2f1acbe0ba726fee8d75f3e32900526874740bb",
        "to": "0x36f586a30502ae3afb555b8aa4dcc05d233c2ece",
        "gas": "0x125c2",
        "value": "0x0",
        "input": "0xb3c2c214000000000000000000000000866a2bf4e572cbcf37d5071a7a58503bfb36be1b0000000000000000000000000000000000000000000000000000000000000001000000000000000000000000866a2bf4e572cbcf37d5071a7a58503bfb36be1b0000000000000000000000000000000000000000000000000000000000000001",
        "nonce": "0x2c",
        "chainId": "0x18232"
      },
      "additionalContracts": [],
      "isFixedGasLimit": false
    },
    {
      "hash": "0x2eba4cfe975c4afef6e26762181085a0015e8a75d819468a45776c3be081b128",
      "transactionType": "CALL",
      "contractName": null,
      "contractAddress": "0x36f586a30502ae3afb555b8aa4dcc05d233c2ece",
      "function": "setSupportedBridgingPath(address,uint256,address,bool)",
      "arguments": [
        "0x866A2BF4E572CbcF37D5071A7a58503Bfb36be1b",
        "1",
        "0x437cc33344a0B27A429f795ff6B469C72698B291",
        "true"
      ],
      "transaction": {
        "from": "0xf2f1acbe0ba726fee8d75f3e32900526874740bb",
        "to": "0x36f586a30502ae3afb555b8aa4dcc05d233c2ece",
        "gas": "0x125c2",
        "value": "0x0",
        "input": "0xb3c2c214000000000000000000000000866a2bf4e572cbcf37d5071a7a58503bfb36be1b0000000000000000000000000000000000000000000000000000000000000001000000000000000000000000437cc33344a0b27a429f795ff6b469c72698b2910000000000000000000000000000000000000000000000000000000000000001",
        "nonce": "0x2d",
        "chainId": "0x18232"
      },
      "additionalContracts": [],
      "isFixedGasLimit": false
    },
    {
      "hash": "0x73f5d58c5e6c8ae5abb529ad554d5b8fa287908dd125cefe53a716b75e95e7d0",
      "transactionType": "CALL",
      "contractName": null,
      "contractAddress": "0x36f586a30502ae3afb555b8aa4dcc05d233c2ece",
      "function": "setSupportedBridgingPath(address,uint256,address,bool)",
      "arguments": [
        "0x437cc33344a0B27A429f795ff6B469C72698B291",
        "1",
        "0x866A2BF4E572CbcF37D5071A7a58503Bfb36be1b",
        "true"
      ],
      "transaction": {
        "from": "0xf2f1acbe0ba726fee8d75f3e32900526874740bb",
        "to": "0x36f586a30502ae3afb555b8aa4dcc05d233c2ece",
        "gas": "0x125c2",
        "value": "0x0",
        "input": "0xb3c2c214000000000000000000000000437cc33344a0b27a429f795ff6b469c72698b2910000000000000000000000000000000000000000000000000000000000000001000000000000000000000000866a2bf4e572cbcf37d5071a7a58503bfb36be1b0000000000000000000000000000000000000000000000000000000000000001",
        "nonce": "0x2e",
        "chainId": "0x18232"
      },
      "additionalContracts": [],
      "isFixedGasLimit": false
    },
    {
      "hash": "0x77d3ad64291d6934358d7166fae574696614401d485465451ac01bb989c3194e",
      "transactionType": "CALL",
      "contractName": null,
      "contractAddress": "0x36f586a30502ae3afb555b8aa4dcc05d233c2ece",
      "function": "setSupportedBridgingPath(address,uint256,address,bool)",
      "arguments": [
        "0x437cc33344a0B27A429f795ff6B469C72698B291",
        "1",
        "0x437cc33344a0B27A429f795ff6B469C72698B291",
        "true"
      ],
      "transaction": {
        "from": "0xf2f1acbe0ba726fee8d75f3e32900526874740bb",
        "to": "0x36f586a30502ae3afb555b8aa4dcc05d233c2ece",
        "gas": "0x125c2",
        "value": "0x0",
        "input": "0xb3c2c214000000000000000000000000437cc33344a0b27a429f795ff6b469c72698b2910000000000000000000000000000000000000000000000000000000000000001000000000000000000000000437cc33344a0b27a429f795ff6b469c72698b2910000000000000000000000000000000000000000000000000000000000000001",
        "nonce": "0x2f",
        "chainId": "0x18232"
      },
      "additionalContracts": [],
      "isFixedGasLimit": false
    }
  ],
  "receipts": [
    {
      "status": "0x1",
      "cumulativeGasUsed": "0xb9e8",
      "logs": [
        {
          "address": "0x51dce104e5ba88fabc19a2c519f955bb834b0dc3",
          "topics": [
            "0x91d4c3fec14758a2444d9091d55188dabf0093da924e5a6cd831fa01a0547dc7"
          ],
          "data": "0x000000000000000000000000000000000000000000000000000000000000000100000000000000000000000051dce104e5ba88fabc19a2c519f955bb834b0dc3",
          "blockHash": "0x5f4f34f2a0194385413fdeee3eee5a271ea69a6af8032a18776a8de0bc23331f",
          "blockNumber": "0x34ff2d",
          "transactionHash": "0x72e03d4b7730718b731a1e15d9c3cc1240cb7138f75ea90d9eb2b6805664e895",
          "transactionIndex": "0x1",
          "logIndex": "0x0",
          "removed": false
        }
      ],
      "logsBloom": "0x00000000000000000000000000000000000000000000000000000000000000000000000000000000000000000000000000020000000000000000000000000000010000000000000000000000000000000000000000000000000000000000000000000000000000000000000000000000000010000000000000000000000000000000000000000000000000000000000000000000000000000000000000000000000000000000000000000000000000000800000000000000000000000000000000000000000000004000000000000000000000000000000000000000000000000000000000000000000000000000000000000002000000000000000000000000",
      "type": "0x2",
      "transactionHash": "0x72e03d4b7730718b731a1e15d9c3cc1240cb7138f75ea90d9eb2b6805664e895",
      "transactionIndex": "0x1",
      "blockHash": "0x5f4f34f2a0194385413fdeee3eee5a271ea69a6af8032a18776a8de0bc23331f",
      "blockNumber": "0x34ff2d",
      "gasUsed": "0xb9e8",
      "effectiveGasPrice": "0xe8d4a51000",
      "from": "0xf2f1acbe0ba726fee8d75f3e32900526874740bb",
      "to": "0x51dce104e5ba88fabc19a2c519f955bb834b0dc3",
      "contractAddress": null,
      "gasUsedForL1": "0x0",
      "l1BlockNumber": "0x15991e3"
    },
    {
      "status": "0x1",
      "cumulativeGasUsed": "0xce44",
      "logs": [
        {
          "address": "0x36f586a30502ae3afb555b8aa4dcc05d233c2ece",
          "topics": [
            "0xe1f5ca8210e2b8950e4626ed9e65573e6a90daf4c4f5d098ad4b7665a08992cb",
            "0x0000000000000000000000000000000000000000000000000000000000000001"
          ],
          "data": "0x000000000000000000000000866a2bf4e572cbcf37d5071a7a58503bfb36be1b",
          "blockHash": "0x5301ac440fee89a52ae7cda1c1a3564466bbd947738c69d2b77cf510f296326e",
          "blockNumber": "0x34ff2f",
          "transactionHash": "0x305b5720c68aa5b8aab22bd7511219a97b139b35abae18847785d69c5740b5de",
          "transactionIndex": "0x1",
          "logIndex": "0x0",
          "removed": false
        }
      ],
      "logsBloom": "0x00000000000000000000000000000000000000000000000000000000000000000000000000000000000000000000000000000000000000000000000000040000000020000000000000000000000000000000000000040000001000000000000000000000000000000000000000000000000000000000000000000000000000000000000000000000000000000000000000000000000000000000000080000000000000000000000000000000000000000000000200000000000000000000000000000000000000000000000000000000000020000000000000000000000040000000000000000000000000000000000000000000000000000000000004000000",
      "type": "0x2",
      "transactionHash": "0x305b5720c68aa5b8aab22bd7511219a97b139b35abae18847785d69c5740b5de",
      "transactionIndex": "0x1",
      "blockHash": "0x5301ac440fee89a52ae7cda1c1a3564466bbd947738c69d2b77cf510f296326e",
      "blockNumber": "0x34ff2f",
      "gasUsed": "0xce44",
      "effectiveGasPrice": "0xe8d4a51000",
      "from": "0xf2f1acbe0ba726fee8d75f3e32900526874740bb",
      "to": "0x36f586a30502ae3afb555b8aa4dcc05d233c2ece",
      "contractAddress": null,
      "gasUsedForL1": "0x0",
      "l1BlockNumber": "0x15991e3"
    },
    {
      "status": "0x1",
      "cumulativeGasUsed": "0xcfa0",
      "logs": [
        {
          "address": "0x36f586a30502ae3afb555b8aa4dcc05d233c2ece",
          "topics": [
            "0x1a5992a751b521ef246a1a59ba188f21a01ef4df77a46061eacc5604768157e2",
            "0x0000000000000000000000000000000000000000000000000000000000000001",
            "0x0000000000000000000000000000000000000000000000000000000000000000"
          ],
          "data": "0x00000000000000000000000000000000000000000000000000000000000186a0",
          "blockHash": "0x55bd5e9413b4c6a90a7bfe06a529293835b971a98463e922b7109353fd3b9f3e",
          "blockNumber": "0x34ff30",
          "transactionHash": "0xf884280098db1c080d0d177d3dd86677f5b1c3841fd94052f7eeb14c27c7dd3c",
          "transactionIndex": "0x1",
          "logIndex": "0x0",
          "removed": false
        }
      ],
      "logsBloom": "0x00000000000000000000000000100000000000000000000000000000000000000000000000000000000000000000000000000000000000000000000000040000000000000000000000000000000000000000000000040000001000000000000000000000020000000000000000000800000000000000000000000000000000010000000000000000000000000000000000000000000000000000000080000000000000000000000000000400000000000000000200000000000000000000000000000000000000000000000000000000000000000000000000000000000060000000000000000000000000000000000000000000000000000000000000000000",
      "type": "0x2",
      "transactionHash": "0xf884280098db1c080d0d177d3dd86677f5b1c3841fd94052f7eeb14c27c7dd3c",
      "transactionIndex": "0x1",
      "blockHash": "0x55bd5e9413b4c6a90a7bfe06a529293835b971a98463e922b7109353fd3b9f3e",
      "blockNumber": "0x34ff30",
      "gasUsed": "0xcfa0",
      "effectiveGasPrice": "0xe8d4a51000",
      "from": "0xf2f1acbe0ba726fee8d75f3e32900526874740bb",
      "to": "0x36f586a30502ae3afb555b8aa4dcc05d233c2ece",
      "contractAddress": null,
      "gasUsedForL1": "0x0",
      "l1BlockNumber": "0x15991e3"
    },
    {
      "status": "0x1",
      "cumulativeGasUsed": "0xd4ae",
      "logs": [
        {
          "address": "0x36f586a30502ae3afb555b8aa4dcc05d233c2ece",
          "topics": [
            "0xb30eec013773a40f5bfc408b77c3eb479af144a816a0250387480ba905a06f95",
            "0x000000000000000000000000866a2bf4e572cbcf37d5071a7a58503bfb36be1b",
            "0x0000000000000000000000000000000000000000000000000000000000000001",
            "0x000000000000000000000000866a2bf4e572cbcf37d5071a7a58503bfb36be1b"
          ],
          "data": "0x0000000000000000000000000000000000000000000000000000000000000001",
          "blockHash": "0x9d3c4f63ba55078055ef8dc7579ce1a610c03a4c5facbcf7b04bd4052658a8c9",
          "blockNumber": "0x34ff32",
          "transactionHash": "0xa0324127d242e674f089f755a89a6027016a6bf89e17b99d52a57077497cad68",
          "transactionIndex": "0x1",
          "logIndex": "0x0",
          "removed": false
        }
      ],
      "logsBloom": "0x00000000000000000000000000000000000000000000000000000000000000000000000000000000000000000000000000000000000000000000000000040000000000000000000000000000000000000000000000040000001000000000000000000000000000000000000000000000000000000000000100000000000000000000000000000000000000000040000000000000000000000000000080000000000000000000000000000000400000000000000200000000000000000000000000080000000400000000000000000000000000000000000000000000000040000000000000000000000000000000000000000000000000000000000000000010",
      "type": "0x2",
      "transactionHash": "0xa0324127d242e674f089f755a89a6027016a6bf89e17b99d52a57077497cad68",
      "transactionIndex": "0x1",
      "blockHash": "0x9d3c4f63ba55078055ef8dc7579ce1a610c03a4c5facbcf7b04bd4052658a8c9",
      "blockNumber": "0x34ff32",
      "gasUsed": "0xd4ae",
      "effectiveGasPrice": "0xe8d4a51000",
      "from": "0xf2f1acbe0ba726fee8d75f3e32900526874740bb",
      "to": "0x36f586a30502ae3afb555b8aa4dcc05d233c2ece",
      "contractAddress": null,
      "gasUsedForL1": "0x0",
      "l1BlockNumber": "0x15991e3"
    },
    {
      "status": "0x1",
      "cumulativeGasUsed": "0xd4ae",
      "logs": [
        {
          "address": "0x36f586a30502ae3afb555b8aa4dcc05d233c2ece",
          "topics": [
            "0xb30eec013773a40f5bfc408b77c3eb479af144a816a0250387480ba905a06f95",
            "0x000000000000000000000000866a2bf4e572cbcf37d5071a7a58503bfb36be1b",
            "0x0000000000000000000000000000000000000000000000000000000000000001",
            "0x000000000000000000000000437cc33344a0b27a429f795ff6b469c72698b291"
          ],
          "data": "0x0000000000000000000000000000000000000000000000000000000000000001",
          "blockHash": "0x5017e2aaed46510ed75cf61e4202e6f8e6e192800622826b4cce7bb5cb1104b8",
          "blockNumber": "0x34ff33",
          "transactionHash": "0x2eba4cfe975c4afef6e26762181085a0015e8a75d819468a45776c3be081b128",
          "transactionIndex": "0x1",
          "logIndex": "0x0",
          "removed": false
        }
      ],
      "logsBloom": "0x00000000000002000000000000000000000000000000000000000000000000000000000000000000000000000000000000000000000000000000000000040000000000000000000000000000000000000000000000040000001000000000000000000000000000000000000000000000000000000000000100000000000000000000000000000000000000000040000000000000000000000000000080000000000000000000000000000000400000000000000200020000000000000000000000080000000400000000000000000000000000000000000000000000000040200000000000000000000000000000000000000000000000000000000000000010",
      "type": "0x2",
      "transactionHash": "0x2eba4cfe975c4afef6e26762181085a0015e8a75d819468a45776c3be081b128",
      "transactionIndex": "0x1",
      "blockHash": "0x5017e2aaed46510ed75cf61e4202e6f8e6e192800622826b4cce7bb5cb1104b8",
      "blockNumber": "0x34ff33",
      "gasUsed": "0xd4ae",
      "effectiveGasPrice": "0xe8d4a51000",
      "from": "0xf2f1acbe0ba726fee8d75f3e32900526874740bb",
      "to": "0x36f586a30502ae3afb555b8aa4dcc05d233c2ece",
      "contractAddress": null,
      "gasUsedForL1": "0x0",
      "l1BlockNumber": "0x15991e3"
    },
    {
      "status": "0x1",
      "cumulativeGasUsed": "0xd4ae",
      "logs": [
        {
          "address": "0x36f586a30502ae3afb555b8aa4dcc05d233c2ece",
          "topics": [
            "0xb30eec013773a40f5bfc408b77c3eb479af144a816a0250387480ba905a06f95",
            "0x000000000000000000000000437cc33344a0b27a429f795ff6b469c72698b291",
            "0x0000000000000000000000000000000000000000000000000000000000000001",
            "0x000000000000000000000000866a2bf4e572cbcf37d5071a7a58503bfb36be1b"
          ],
          "data": "0x0000000000000000000000000000000000000000000000000000000000000001",
          "blockHash": "0x2eba83341c60acfc3c033ef59a27955cd69a6ec17b9ac5317a23624ac036b3e6",
          "blockNumber": "0x34ff35",
          "transactionHash": "0x73f5d58c5e6c8ae5abb529ad554d5b8fa287908dd125cefe53a716b75e95e7d0",
          "transactionIndex": "0x1",
          "logIndex": "0x0",
          "removed": false
        }
      ],
      "logsBloom": "0x00000000000002000000000000000000000000000000000000000000000000000000000000000000000000000000000000000000000000000000000000040000000000000000000000000000000000000000000000040000001000000000000000000000000000000000000000000000000000000000000100000000000000000000000000000000000000000040000000000000000000000000000080000000000000000000000000000000400000000000000200020000000000000000000000080000000400000000000000000000000000000000000000000000000040200000000000000000000000000000000000000000000000000000000000000010",
      "type": "0x2",
      "transactionHash": "0x73f5d58c5e6c8ae5abb529ad554d5b8fa287908dd125cefe53a716b75e95e7d0",
      "transactionIndex": "0x1",
      "blockHash": "0x2eba83341c60acfc3c033ef59a27955cd69a6ec17b9ac5317a23624ac036b3e6",
      "blockNumber": "0x34ff35",
      "gasUsed": "0xd4ae",
      "effectiveGasPrice": "0xe8d4a51000",
      "from": "0xf2f1acbe0ba726fee8d75f3e32900526874740bb",
      "to": "0x36f586a30502ae3afb555b8aa4dcc05d233c2ece",
      "contractAddress": null,
      "gasUsedForL1": "0x0",
      "l1BlockNumber": "0x15991e3"
    },
    {
      "status": "0x1",
      "cumulativeGasUsed": "0xd4ae",
      "logs": [
        {
          "address": "0x36f586a30502ae3afb555b8aa4dcc05d233c2ece",
          "topics": [
            "0xb30eec013773a40f5bfc408b77c3eb479af144a816a0250387480ba905a06f95",
            "0x000000000000000000000000437cc33344a0b27a429f795ff6b469c72698b291",
            "0x0000000000000000000000000000000000000000000000000000000000000001",
            "0x000000000000000000000000437cc33344a0b27a429f795ff6b469c72698b291"
          ],
          "data": "0x0000000000000000000000000000000000000000000000000000000000000001",
          "blockHash": "0x7960dc3ec4702034f262a32eaccd4a8bff54c3bc122369e9354b09491218d004",
          "blockNumber": "0x34ff37",
          "transactionHash": "0x77d3ad64291d6934358d7166fae574696614401d485465451ac01bb989c3194e",
          "transactionIndex": "0x1",
          "logIndex": "0x0",
          "removed": false
        }
      ],
      "logsBloom": "0x00000000000002000000000000000000000000000000000000000000000000000000000000000000000000000000000000000000000000000000000000040000000000000000000000000000000000000000000000040000001000000000000000000000000000000000000000000000000000000000000000000000000000000000000000000000000000000000000000000000000000000000000080000000000000000000000000000000400000000000000200020000000000000000000000080000000000000000000000000000000000000000000000000000000040200000000000000000000000000000000000000000000000000000000000000010",
      "type": "0x2",
      "transactionHash": "0x77d3ad64291d6934358d7166fae574696614401d485465451ac01bb989c3194e",
      "transactionIndex": "0x1",
      "blockHash": "0x7960dc3ec4702034f262a32eaccd4a8bff54c3bc122369e9354b09491218d004",
      "blockNumber": "0x34ff37",
      "gasUsed": "0xd4ae",
      "effectiveGasPrice": "0xe8d4a51000",
      "from": "0xf2f1acbe0ba726fee8d75f3e32900526874740bb",
      "to": "0x36f586a30502ae3afb555b8aa4dcc05d233c2ece",
      "contractAddress": null,
      "gasUsedForL1": "0x0",
      "l1BlockNumber": "0x15991e3"
    }
  ],
  "libraries": [],
  "pending": [],
  "returns": {},
  "timestamp": 1749233724,
  "chain": 98866,
  "commit": "eb1806d"
}