{
  "transactions": [
    {
      "hash": "0x8bd89cb2f3f639ee1ffe176a9a40b56f1a94b9db65d085056a7d50a0ec25897e",
      "transactionType": "CALL",
      "contractName": null,
      "contractAddress": "0x51dce104e5ba88fabc19a2c519f955bb834b0dc3",
      "function": "setPeer(uint256,bytes32)",
      "arguments": [
        "98867",
        "0x00000000000000000000000051dce104e5ba88fabc19a2c519f955bb834b0dc3"
      ],
      "transaction": {
        "from": "0xf2f1acbe0ba726fee8d75f3e32900526874740bb",
        "to": "0x51dce104e5ba88fabc19a2c519f955bb834b0dc3",
        "gas": "0x100e9",
        "value": "0x0",
        "input": "0xbc9e8487000000000000000000000000000000000000000000000000000000000001823300000000000000000000000051dce104e5ba88fabc19a2c519f955bb834b0dc3",
        "nonce": "0x6d",
        "chainId": "0xaa36a7"
      },
      "additionalContracts": [],
      "isFixedGasLimit": false
    },
    {
      "hash": "0xef214f89c50c488d5e5736530fc85d37b46f635346b7b12b40ae24cf2907222f",
      "transactionType": "CALL",
      "contractName": null,
      "contractAddress": "0x36f586a30502ae3afb555b8aa4dcc05d233c2ece",
      "function": "setDestinationMToken(uint256,address)",
      "arguments": [
        "98867",
        "0x866A2BF4E572CbcF37D5071A7a58503Bfb36be1b"
      ],
      "transaction": {
        "from": "0xf2f1acbe0ba726fee8d75f3e32900526874740bb",
        "to": "0x36f586a30502ae3afb555b8aa4dcc05d233c2ece",
        "gas": "0x11d09",
        "value": "0x0",
        "input": "0xe80f94cf0000000000000000000000000000000000000000000000000000000000018233000000000000000000000000866a2bf4e572cbcf37d5071a7a58503bfb36be1b",
        "nonce": "0x6e",
        "chainId": "0xaa36a7"
      },
      "additionalContracts": [],
      "isFixedGasLimit": false
    },
    {
      "hash": "0x8b5c2d7169db6bb0ebcc8b108817479faf1fa391f3f38767c39b6ae5b50f7598",
      "transactionType": "CALL",
      "contractName": null,
      "contractAddress": "0x36f586a30502ae3afb555b8aa4dcc05d233c2ece",
      "function": "setPayloadGasLimit(uint256,uint8,uint256)",
      "arguments": [
        "98867",
        "0",
        "100000"
      ],
      "transaction": {
        "from": "0xf2f1acbe0ba726fee8d75f3e32900526874740bb",
        "to": "0x36f586a30502ae3afb555b8aa4dcc05d233c2ece",
        "gas": "0x1302a",
        "value": "0x0",
        "input": "0x515c49460000000000000000000000000000000000000000000000000000000000018233000000000000000000000000000000000000000000000000000000000000000000000000000000000000000000000000000000000000000000000000000186a0",
        "nonce": "0x6f",
        "chainId": "0xaa36a7"
      },
      "additionalContracts": [],
      "isFixedGasLimit": false
    },
    {
      "hash": "0x6a6d25951bd56c506985bbffd8cf5b4aa351f09be0071bc52e3c3e0137ba2e05",
      "transactionType": "CALL",
      "contractName": null,
      "contractAddress": "0x36f586a30502ae3afb555b8aa4dcc05d233c2ece",
      "function": "setPayloadGasLimit(uint256,uint8,uint256)",
      "arguments": [
        "98867",
        "1",
        "50000"
      ],
      "transaction": {
        "from": "0xf2f1acbe0ba726fee8d75f3e32900526874740bb",
        "to": "0x36f586a30502ae3afb555b8aa4dcc05d233c2ece",
        "gas": "0x1302a",
        "value": "0x0",
        "input": "0x515c494600000000000000000000000000000000000000000000000000000000000182330000000000000000000000000000000000000000000000000000000000000001000000000000000000000000000000000000000000000000000000000000c350",
        "nonce": "0x70",
        "chainId": "0xaa36a7"
      },
      "additionalContracts": [],
      "isFixedGasLimit": false
    },
    {
      "hash": "0xc6eb720bb77a8901bb7de1d6882c5bfa49fc0ac46bda77a6c8b148d4c7ae3a7c",
      "transactionType": "CALL",
      "contractName": null,
      "contractAddress": "0x36f586a30502ae3afb555b8aa4dcc05d233c2ece",
      "function": "setPayloadGasLimit(uint256,uint8,uint256)",
      "arguments": [
        "98867",
        "2",
        "50000"
      ],
      "transaction": {
        "from": "0xf2f1acbe0ba726fee8d75f3e32900526874740bb",
        "to": "0x36f586a30502ae3afb555b8aa4dcc05d233c2ece",
        "gas": "0x1302a",
        "value": "0x0",
        "input": "0x515c494600000000000000000000000000000000000000000000000000000000000182330000000000000000000000000000000000000000000000000000000000000002000000000000000000000000000000000000000000000000000000000000c350",
        "nonce": "0x71",
        "chainId": "0xaa36a7"
      },
      "additionalContracts": [],
      "isFixedGasLimit": false
    },
    {
      "hash": "0x8efff7776f40b55d16ec8a4d14e3d19f880910b1fa20b30ca22e1f81fd484a35",
      "transactionType": "CALL",
      "contractName": null,
      "contractAddress": "0x36f586a30502ae3afb555b8aa4dcc05d233c2ece",
      "function": "setPayloadGasLimit(uint256,uint8,uint256)",
      "arguments": [
        "98867",
        "3",
        "50000"
      ],
      "transaction": {
        "from": "0xf2f1acbe0ba726fee8d75f3e32900526874740bb",
        "to": "0x36f586a30502ae3afb555b8aa4dcc05d233c2ece",
        "gas": "0x1302a",
        "value": "0x0",
        "input": "0x515c494600000000000000000000000000000000000000000000000000000000000182330000000000000000000000000000000000000000000000000000000000000003000000000000000000000000000000000000000000000000000000000000c350",
        "nonce": "0x72",
        "chainId": "0xaa36a7"
      },
      "additionalContracts": [],
      "isFixedGasLimit": false
    },
    {
      "hash": "0xf5a1a5ab7c4a62be45070e7d553c0bf5841f1d1b28911e19f1745c7ef7aabd23",
      "transactionType": "CALL",
      "contractName": null,
      "contractAddress": "0x36f586a30502ae3afb555b8aa4dcc05d233c2ece",
      "function": "setSupportedBridgingPath(address,uint256,address,bool)",
      "arguments": [
        "0x866A2BF4E572CbcF37D5071A7a58503Bfb36be1b",
        "98867",
        "0x866A2BF4E572CbcF37D5071A7a58503Bfb36be1b",
        "true"
      ],
      "transaction": {
        "from": "0xf2f1acbe0ba726fee8d75f3e32900526874740bb",
        "to": "0x36f586a30502ae3afb555b8aa4dcc05d233c2ece",
        "gas": "0x1370f",
        "value": "0x0",
        "input": "0xb3c2c214000000000000000000000000866a2bf4e572cbcf37d5071a7a58503bfb36be1b0000000000000000000000000000000000000000000000000000000000018233000000000000000000000000866a2bf4e572cbcf37d5071a7a58503bfb36be1b0000000000000000000000000000000000000000000000000000000000000001",
        "nonce": "0x73",
        "chainId": "0xaa36a7"
      },
      "additionalContracts": [],
      "isFixedGasLimit": false
    }
  ],
  "receipts": [
    {
      "status": "0x1",
      "cumulativeGasUsed": "0x1eb2632",
      "logs": [
        {
          "address": "0x51dce104e5ba88fabc19a2c519f955bb834b0dc3",
          "topics": [
            "0x91d4c3fec14758a2444d9091d55188dabf0093da924e5a6cd831fa01a0547dc7"
          ],
          "data": "0x000000000000000000000000000000000000000000000000000000000001823300000000000000000000000051dce104e5ba88fabc19a2c519f955bb834b0dc3",
          "blockHash": "0x02ed87fa6bfc0e5c35c1a6df1be268c9673ec4051a7707cc75f698607c85a9e8",
          "blockNumber": "0x80830a",
          "blockTimestamp": "0x683686e0",
          "transactionHash": "0x8bd89cb2f3f639ee1ffe176a9a40b56f1a94b9db65d085056a7d50a0ec25897e",
          "transactionIndex": "0xce",
          "logIndex": "0x24a",
          "removed": false
        }
      ],
      "logsBloom": "0x00000000000000000000000000000000000000000000000000000000000000000000000000000000000000000000000000020000000000000000000000000000010000000000000000000000000000000000000000000000000000000000000000000000000000000000000000000000000010000000000000000000000000000000000000000000000000000000000000000000000000000000000000000000000000000000000000000000000000000800000000000000000000000000000000000000000000004000000000000000000000000000000000000000000000000000000000000000000000000000000000000002000000000000000000000000",
      "type": "0x2",
      "transactionHash": "0x8bd89cb2f3f639ee1ffe176a9a40b56f1a94b9db65d085056a7d50a0ec25897e",
      "transactionIndex": "0xce",
      "blockHash": "0x02ed87fa6bfc0e5c35c1a6df1be268c9673ec4051a7707cc75f698607c85a9e8",
      "blockNumber": "0x80830a",
      "gasUsed": "0xba00",
      "effectiveGasPrice": "0x1f52d3",
      "from": "0xf2f1acbe0ba726fee8d75f3e32900526874740bb",
      "to": "0x51dce104e5ba88fabc19a2c519f955bb834b0dc3",
      "contractAddress": null
    },
    {
      "status": "0x1",
      "cumulativeGasUsed": "0x1875897",
      "logs": [
        {
          "address": "0x36f586a30502ae3afb555b8aa4dcc05d233c2ece",
          "topics": [
            "0xe1f5ca8210e2b8950e4626ed9e65573e6a90daf4c4f5d098ad4b7665a08992cb",
            "0x0000000000000000000000000000000000000000000000000000000000018233"
          ],
          "data": "0x000000000000000000000000866a2bf4e572cbcf37d5071a7a58503bfb36be1b",
          "blockHash": "0xc76eb5dfb53a6de4d5957c3984fd0d7c0b1d3b257d8bb71e625332ded80611c5",
          "blockNumber": "0x80830b",
          "blockTimestamp": "0x683686ec",
          "transactionHash": "0xef214f89c50c488d5e5736530fc85d37b46f635346b7b12b40ae24cf2907222f",
          "transactionIndex": "0x9e",
          "logIndex": "0x1b7",
          "removed": false
        }
      ],
      "logsBloom": "0x00000000000000000000000000000000000000000000000000000000000000000000000000000000000000000000000000000000000000000000000000000000000020000000000000000000000000000000000000000004001400000000000000000000000000000000000000000000000000000000000000000000000000000000000000000000000000800000000000000000000000000000000080000000000000000000000000000000000000000000000200000000000000000000000000000000000000000000000000000000000020000000000000000000000000000000000000000000000000000000000000000000000000000000000004000000",
      "type": "0x2",
      "transactionHash": "0xef214f89c50c488d5e5736530fc85d37b46f635346b7b12b40ae24cf2907222f",
      "transactionIndex": "0x9e",
      "blockHash": "0xc76eb5dfb53a6de4d5957c3984fd0d7c0b1d3b257d8bb71e625332ded80611c5",
      "blockNumber": "0x80830b",
      "gasUsed": "0xce5d",
      "effectiveGasPrice": "0x1fee57",
      "from": "0xf2f1acbe0ba726fee8d75f3e32900526874740bb",
      "to": "0x36f586a30502ae3afb555b8aa4dcc05d233c2ece",
      "contractAddress": null
    },
    {
      "status": "0x1",
      "cumulativeGasUsed": "0x1f8b7ca",
      "logs": [
        {
          "address": "0x36f586a30502ae3afb555b8aa4dcc05d233c2ece",
          "topics": [
            "0x1a5992a751b521ef246a1a59ba188f21a01ef4df77a46061eacc5604768157e2",
            "0x0000000000000000000000000000000000000000000000000000000000018233",
            "0x0000000000000000000000000000000000000000000000000000000000000000"
          ],
          "data": "0x00000000000000000000000000000000000000000000000000000000000186a0",
          "blockHash": "0x89c9f2d802ada7f2c1050e87746f1ecaef7758966c7243cd1aca96b626703cd9",
          "blockNumber": "0x80830c",
          "blockTimestamp": "0x683686f8",
          "transactionHash": "0x8b5c2d7169db6bb0ebcc8b108817479faf1fa391f3f38767c39b6ae5b50f7598",
          "transactionIndex": "0xb2",
          "logIndex": "0x207",
          "removed": false
        }
      ],
      "logsBloom": "0x00000000000000000000000000100000000000000000000000000000000000000000000000000000000000000000000000000000000000000000000000000000000000000000000000000000000000000000000000000004001400000000000000000000020000000000000000000800000000000000000000000000000000010000000000000000000000800000000000000000000000000000000080000000000000000000000000000400000000000000000200000000000000000000000000000000000000000000000000000000000000000000000000000000000020000000000000000000000000000000000000000000000000000000000000000000",
      "type": "0x2",
      "transactionHash": "0x8b5c2d7169db6bb0ebcc8b108817479faf1fa391f3f38767c39b6ae5b50f7598",
      "transactionIndex": "0xb2",
      "blockHash": "0x89c9f2d802ada7f2c1050e87746f1ecaef7758966c7243cd1aca96b626703cd9",
      "blockNumber": "0x80830c",
      "gasUsed": "0xcffa",
      "effectiveGasPrice": "0x1fe553",
      "from": "0xf2f1acbe0ba726fee8d75f3e32900526874740bb",
      "to": "0x36f586a30502ae3afb555b8aa4dcc05d233c2ece",
      "contractAddress": null
    },
    {
      "status": "0x1",
      "cumulativeGasUsed": "0x1ffb7fb",
      "logs": [
        {
          "address": "0x36f586a30502ae3afb555b8aa4dcc05d233c2ece",
          "topics": [
            "0x1a5992a751b521ef246a1a59ba188f21a01ef4df77a46061eacc5604768157e2",
            "0x0000000000000000000000000000000000000000000000000000000000018233",
            "0x0000000000000000000000000000000000000000000000000000000000000001"
          ],
          "data": "0x000000000000000000000000000000000000000000000000000000000000c350",
          "blockHash": "0x94eec07b1332300139e5610a54dc6e2392efd6c3907c507052519db2df465d00",
          "blockNumber": "0x80830d",
          "blockTimestamp": "0x68368704",
          "transactionHash": "0x6a6d25951bd56c506985bbffd8cf5b4aa351f09be0071bc52e3c3e0137ba2e05",
          "transactionIndex": "0xb7",
          "logIndex": "0x230",
          "removed": false
        }
      ],
      "logsBloom": "0x00000000000000000000000000100000000000000000000000000000000000000000000000000000000000000000000000000000000000000000000000040000000000000000000000000000000000000000000000040004001400000000000000000000000000000000000000000000000000000000000000000000000000010000000000000000000000800000000000000000000000000000000080000000000000000000000000000400000000000000000200000000000000000000000000000000000000000000000000000000000000000000000000000000000040000000000000000000000000000000000000000000000000000000000000000000",
      "type": "0x2",
      "transactionHash": "0x6a6d25951bd56c506985bbffd8cf5b4aa351f09be0071bc52e3c3e0137ba2e05",
      "transactionIndex": "0xb7",
      "blockHash": "0x94eec07b1332300139e5610a54dc6e2392efd6c3907c507052519db2df465d00",
      "blockNumber": "0x80830d",
      "gasUsed": "0xcffa",
      "effectiveGasPrice": "0x2037d1",
      "from": "0xf2f1acbe0ba726fee8d75f3e32900526874740bb",
      "to": "0x36f586a30502ae3afb555b8aa4dcc05d233c2ece",
      "contractAddress": null
    },
    {
      "status": "0x1",
      "cumulativeGasUsed": "0x1d261f9",
      "logs": [
        {
          "address": "0x36f586a30502ae3afb555b8aa4dcc05d233c2ece",
          "topics": [
            "0x1a5992a751b521ef246a1a59ba188f21a01ef4df77a46061eacc5604768157e2",
            "0x0000000000000000000000000000000000000000000000000000000000018233",
            "0x0000000000000000000000000000000000000000000000000000000000000002"
          ],
          "data": "0x000000000000000000000000000000000000000000000000000000000000c350",
          "blockHash": "0x2b4bc31e68b7c49005b758051976b9629cc4c0f6f282c0ca0dfc996c7e487aab",
          "blockNumber": "0x80830e",
          "blockTimestamp": "0x68368710",
          "transactionHash": "0xc6eb720bb77a8901bb7de1d6882c5bfa49fc0ac46bda77a6c8b148d4c7ae3a7c",
          "transactionIndex": "0xd5",
          "logIndex": "0x226",
          "removed": false
        }
      ],
      "logsBloom": "0x04000000000000000000000000100000000000000000000000000000000000000000000000000000000000000000000000000000000000000000000000000000000000000000000000000000000000000000000000000004001400000000000000000000000000000000000000000000000000000000000000000000000000010000000000000000000000800000000000000000000000000000000080000000000000000000000000000500000000000000000200000000000000000000000000000000000000000000000000000000000000000000000000000000000000000000000000000000000000000000000000000000008000000000000000000000",
      "type": "0x2",
      "transactionHash": "0xc6eb720bb77a8901bb7de1d6882c5bfa49fc0ac46bda77a6c8b148d4c7ae3a7c",
      "transactionIndex": "0xd5",
      "blockHash": "0x2b4bc31e68b7c49005b758051976b9629cc4c0f6f282c0ca0dfc996c7e487aab",
      "blockNumber": "0x80830e",
      "gasUsed": "0xcffa",
      "effectiveGasPrice": "0x2136ce",
      "from": "0xf2f1acbe0ba726fee8d75f3e32900526874740bb",
      "to": "0x36f586a30502ae3afb555b8aa4dcc05d233c2ece",
      "contractAddress": null
    },
    {
      "status": "0x1",
      "cumulativeGasUsed": "0x230c246",
      "logs": [
        {
          "address": "0x36f586a30502ae3afb555b8aa4dcc05d233c2ece",
          "topics": [
            "0x1a5992a751b521ef246a1a59ba188f21a01ef4df77a46061eacc5604768157e2",
            "0x0000000000000000000000000000000000000000000000000000000000018233",
            "0x0000000000000000000000000000000000000000000000000000000000000003"
          ],
          "data": "0x000000000000000000000000000000000000000000000000000000000000c350",
          "blockHash": "0xb6c275b368428d3c733ffe659f869fe7db4a2d5a3eed7bc5191d64b0ab87fc2b",
          "blockNumber": "0x80830f",
          "blockTimestamp": "0x6836871c",
          "transactionHash": "0x8efff7776f40b55d16ec8a4d14e3d19f880910b1fa20b30ca22e1f81fd484a35",
          "transactionIndex": "0xbd",
          "logIndex": "0x227",
          "removed": false
        }
      ],
      "logsBloom": "0x00000000000000000000000000100000000000000000000000000000000000000000000000000000000000000000000000000000020000000000000000000000000000000000000000000000000000000000000000000004001400000000000000000000000000000000000000000000000000000000000000000000000000010000000000000000000000800000000000000000000000000000000080000000000000000000000000000400000000000000000200800000000000000000400000000000000000000000000000000000000000000000000000000000000000000000000000000000000000000000000000000000000000000000000000000000",
      "type": "0x2",
      "transactionHash": "0x8efff7776f40b55d16ec8a4d14e3d19f880910b1fa20b30ca22e1f81fd484a35",
      "transactionIndex": "0xbd",
      "blockHash": "0xb6c275b368428d3c733ffe659f869fe7db4a2d5a3eed7bc5191d64b0ab87fc2b",
      "blockNumber": "0x80830f",
      "gasUsed": "0xcffa",
      "effectiveGasPrice": "0x2160ee",
      "from": "0xf2f1acbe0ba726fee8d75f3e32900526874740bb",
      "to": "0x36f586a30502ae3afb555b8aa4dcc05d233c2ece",
      "contractAddress": null
    },
    {
      "status": "0x1",
      "cumulativeGasUsed": "0x1a3344e",
      "logs": [
        {
          "address": "0x36f586a30502ae3afb555b8aa4dcc05d233c2ece",
          "topics": [
            "0xb30eec013773a40f5bfc408b77c3eb479af144a816a0250387480ba905a06f95",
            "0x000000000000000000000000866a2bf4e572cbcf37d5071a7a58503bfb36be1b",
            "0x0000000000000000000000000000000000000000000000000000000000018233",
            "0x000000000000000000000000866a2bf4e572cbcf37d5071a7a58503bfb36be1b"
          ],
          "data": "0x0000000000000000000000000000000000000000000000000000000000000001",
          "blockHash": "0x7a8e91b0002fc695539c919becb8f3f0e854f23237eae82043c003175cf2cbd0",
          "blockNumber": "0x808310",
          "blockTimestamp": "0x68368728",
          "transactionHash": "0xf5a1a5ab7c4a62be45070e7d553c0bf5841f1d1b28911e19f1745c7ef7aabd23",
          "transactionIndex": "0x99",
          "logIndex": "0x1d5",
          "removed": false
        }
      ],
      "logsBloom": "0x00000000000000000000000000000000000000000000000000000000000000000000000000000000000000000000000000000000000000000000000000000000000000000000000000000000000000000000000000000004001400000000000000000000000000000000000000000000000000000000000100000000000000000000000000000000000000800040000000000000000000000000000080000000000000000000000000000000400000000000000200000000000000000000000000080000000400000000000000000000000000000000000000000000000000000000000000000000000000000000000000000000000000000000000000000010",
      "type": "0x2",
      "transactionHash": "0xf5a1a5ab7c4a62be45070e7d553c0bf5841f1d1b28911e19f1745c7ef7aabd23",
      "transactionIndex": "0x99",
      "blockHash": "0x7a8e91b0002fc695539c919becb8f3f0e854f23237eae82043c003175cf2cbd0",
      "blockNumber": "0x808310",
      "gasUsed": "0xd4b1",
      "effectiveGasPrice": "0x225b79",
      "from": "0xf2f1acbe0ba726fee8d75f3e32900526874740bb",
      "to": "0x36f586a30502ae3afb555b8aa4dcc05d233c2ece",
      "contractAddress": null
    }
  ],
  "libraries": [],
  "pending": [],
  "returns": {},
  "timestamp": 1748404008,
  "chain": 11155111,
  "commit": "7fde8d5"
}