{
  "transactions": [
    {
      "hash": "0x6d078c2d5d46a6cc119ed0578396e83a4ba3c66459b6aa625e63b451a99bb01e",
      "transactionType": "CALL",
      "contractName": null,
      "contractAddress": "0x36f586a30502ae3afb555b8aa4dcc05d233c2ece",
      "function": "setSupportedBridgingPath(address,uint256,address,bool)",
      "arguments": [
        "0x866A2BF4E572CbcF37D5071A7a58503Bfb36be1b",
        "98867",
        "0x437cc33344a0B27A429f795ff6B469C72698B291",
        "true"
      ],
      "transaction": {
        "from": "0xf2f1acbe0ba726fee8d75f3e32900526874740bb",
        "to": "0x36f586a30502ae3afb555b8aa4dcc05d233c2ece",
        "gas": "0x1370f",
        "value": "0x0",
        "input": "0xb3c2c214000000000000000000000000866a2bf4e572cbcf37d5071a7a58503bfb36be1b0000000000000000000000000000000000000000000000000000000000018233000000000000000000000000437cc33344a0b27a429f795ff6b469c72698b2910000000000000000000000000000000000000000000000000000000000000001",
        "nonce": "0x7b",
        "chainId": "0xaa36a7"
      },
      "additionalContracts": [],
      "isFixedGasLimit": false
    },
    {
      "hash": "0x2daba717487200cf8114fb63cfc5c7377523f107dd35516bb28710faaf4a1608",
      "transactionType": "CALL",
      "contractName": null,
      "contractAddress": "0x36f586a30502ae3afb555b8aa4dcc05d233c2ece",
      "function": "setSupportedBridgingPath(address,uint256,address,bool)",
      "arguments": [
        "0x437cc33344a0B27A429f795ff6B469C72698B291",
        "98867",
        "0x866A2BF4E572CbcF37D5071A7a58503Bfb36be1b",
        "true"
      ],
      "transaction": {
        "from": "0xf2f1acbe0ba726fee8d75f3e32900526874740bb",
        "to": "0x36f586a30502ae3afb555b8aa4dcc05d233c2ece",
        "gas": "0x1370f",
        "value": "0x0",
        "input": "0xb3c2c214000000000000000000000000437cc33344a0b27a429f795ff6b469c72698b2910000000000000000000000000000000000000000000000000000000000018233000000000000000000000000866a2bf4e572cbcf37d5071a7a58503bfb36be1b0000000000000000000000000000000000000000000000000000000000000001",
        "nonce": "0x7c",
        "chainId": "0xaa36a7"
      },
      "additionalContracts": [],
      "isFixedGasLimit": false
    },
    {
      "hash": "0xbc5dd734eda9bafdff45e8ab1f6ba34d68444cfa3f4b98cb3297e64386458507",
      "transactionType": "CALL",
      "contractName": null,
      "contractAddress": "0x36f586a30502ae3afb555b8aa4dcc05d233c2ece",
      "function": "setSupportedBridgingPath(address,uint256,address,bool)",
      "arguments": [
        "0x437cc33344a0B27A429f795ff6B469C72698B291",
        "98867",
        "0x437cc33344a0B27A429f795ff6B469C72698B291",
        "true"
      ],
      "transaction": {
        "from": "0xf2f1acbe0ba726fee8d75f3e32900526874740bb",
        "to": "0x36f586a30502ae3afb555b8aa4dcc05d233c2ece",
        "gas": "0x1370f",
        "value": "0x0",
        "input": "0xb3c2c214000000000000000000000000437cc33344a0b27a429f795ff6b469c72698b2910000000000000000000000000000000000000000000000000000000000018233000000000000000000000000437cc33344a0b27a429f795ff6b469c72698b2910000000000000000000000000000000000000000000000000000000000000001",
        "nonce": "0x7d",
        "chainId": "0xaa36a7"
      },
      "additionalContracts": [],
      "isFixedGasLimit": false
    }
  ],
  "receipts": [
    {
      "status": "0x1",
      "cumulativeGasUsed": "0x1cdfbf7",
      "logs": [
        {
          "address": "0x36f586a30502ae3afb555b8aa4dcc05d233c2ece",
          "topics": [
            "0xb30eec013773a40f5bfc408b77c3eb479af144a816a0250387480ba905a06f95",
            "0x000000000000000000000000866a2bf4e572cbcf37d5071a7a58503bfb36be1b",
            "0x0000000000000000000000000000000000000000000000000000000000018233",
            "0x000000000000000000000000437cc33344a0b27a429f795ff6b469c72698b291"
          ],
          "data": "0x0000000000000000000000000000000000000000000000000000000000000001",
          "blockHash": "0xec81594ed2c929dfbb5abc326de1273cd3df85b6cf434e6bf6aeb5366bbf9836",
          "blockNumber": "0x818f7d",
          "blockTimestamp": "0x68432220",
          "transactionHash": "0x6d078c2d5d46a6cc119ed0578396e83a4ba3c66459b6aa625e63b451a99bb01e",
          "transactionIndex": "0x89",
          "logIndex": "0x159",
          "removed": false
        }
      ],
      "logsBloom": "0x00000000000002000000000000000000000000000000000000000000000000000000000000000000000000000000000000000000000000000000000000000000000000000000000000000000000000000000000000000004001400000000000000000000000000000000000000000000000000000000000100000000000000000000000000000000000000800040000000000000000000000000000080000000000000000000000000000000400000000000000200020000000000000000000000080000000400000000000000000000000000000000000000000000000000200000000000000000000000000000000000000000000000000000000000000010",
      "type": "0x2",
      "transactionHash": "0x6d078c2d5d46a6cc119ed0578396e83a4ba3c66459b6aa625e63b451a99bb01e",
      "transactionIndex": "0x89",
      "blockHash": "0xec81594ed2c929dfbb5abc326de1273cd3df85b6cf434e6bf6aeb5366bbf9836",
      "blockNumber": "0x818f7d",
      "gasUsed": "0xd4b1",
      "effectiveGasPrice": "0xf433d",
      "from": "0xf2f1acbe0ba726fee8d75f3e32900526874740bb",
      "to": "0x36f586a30502ae3afb555b8aa4dcc05d233c2ece",
      "contractAddress": null
    },
    {
      "status": "0x1",
      "cumulativeGasUsed": "0x15fc453",
      "logs": [
        {
          "address": "0x36f586a30502ae3afb555b8aa4dcc05d233c2ece",
          "topics": [
            "0xb30eec013773a40f5bfc408b77c3eb479af144a816a0250387480ba905a06f95",
            "0x000000000000000000000000437cc33344a0b27a429f795ff6b469c72698b291",
            "0x0000000000000000000000000000000000000000000000000000000000018233",
            "0x000000000000000000000000866a2bf4e572cbcf37d5071a7a58503bfb36be1b"
          ],
          "data": "0x0000000000000000000000000000000000000000000000000000000000000001",
          "blockHash": "0x597a9e624169bde0e46cf78a984522be7c5f9d15cc02cf02a1c1deb7b39cbadc",
          "blockNumber": "0x818f7e",
          "blockTimestamp": "0x6843222c",
          "transactionHash": "0x2daba717487200cf8114fb63cfc5c7377523f107dd35516bb28710faaf4a1608",
          "transactionIndex": "0x7a",
          "logIndex": "0x149",
          "removed": false
        }
      ],
      "logsBloom": "0x00000000000002000000000000000000000000000000000000000000000000000000000000000000000000000000000000000000000000000000000000000000000000000000000000000000000000000000000000000004001400000000000000000000000000000000000000000000000000000000000100000000000000000000000000000000000000800040000000000000000000000000000080000000000000000000000000000000400000000000000200020000000000000000000000080000000400000000000000000000000000000000000000000000000000200000000000000000000000000000000000000000000000000000000000000010",
      "type": "0x2",
      "transactionHash": "0x2daba717487200cf8114fb63cfc5c7377523f107dd35516bb28710faaf4a1608",
      "transactionIndex": "0x7a",
      "blockHash": "0x597a9e624169bde0e46cf78a984522be7c5f9d15cc02cf02a1c1deb7b39cbadc",
      "blockNumber": "0x818f7e",
      "gasUsed": "0xd4b1",
      "effectiveGasPrice": "0xf4342",
      "from": "0xf2f1acbe0ba726fee8d75f3e32900526874740bb",
      "to": "0x36f586a30502ae3afb555b8aa4dcc05d233c2ece",
      "contractAddress": null
    },
    {
      "status": "0x1",
      "cumulativeGasUsed": "0x1a6280b",
      "logs": [
        {
          "address": "0x36f586a30502ae3afb555b8aa4dcc05d233c2ece",
          "topics": [
            "0xb30eec013773a40f5bfc408b77c3eb479af144a816a0250387480ba905a06f95",
            "0x000000000000000000000000437cc33344a0b27a429f795ff6b469c72698b291",
            "0x0000000000000000000000000000000000000000000000000000000000018233",
            "0x000000000000000000000000437cc33344a0b27a429f795ff6b469c72698b291"
          ],
          "data": "0x0000000000000000000000000000000000000000000000000000000000000001",
          "blockHash": "0x6ff970b72037733d53715f651dcedb34d70068ab000d76b56da58d44295bdaa8",
          "blockNumber": "0x818f7f",
          "blockTimestamp": "0x68432238",
          "transactionHash": "0xbc5dd734eda9bafdff45e8ab1f6ba34d68444cfa3f4b98cb3297e64386458507",
          "transactionIndex": "0xb9",
          "logIndex": "0x18d",
          "removed": false
        }
      ],
      "logsBloom": "0x00000000000002000000000000000000000000000000000000000000000000000000000000000000000000000000000000000000000000000000000000000000000000000000000000000000000000000000000000000004001400000000000000000000000000000000000000000000000000000000000000000000000000000000000000000000000000800000000000000000000000000000000080000000000000000000000000000000400000000000000200020000000000000000000000080000000000000000000000000000000000000000000000000000000000200000000000000000000000000000000000000000000000000000000000000010",
      "type": "0x2",
      "transactionHash": "0xbc5dd734eda9bafdff45e8ab1f6ba34d68444cfa3f4b98cb3297e64386458507",
      "transactionIndex": "0xb9",
      "blockHash": "0x6ff970b72037733d53715f651dcedb34d70068ab000d76b56da58d44295bdaa8",
      "blockNumber": "0x818f7f",
      "gasUsed": "0xd4b1",
      "effectiveGasPrice": "0xf4344",
      "from": "0xf2f1acbe0ba726fee8d75f3e32900526874740bb",
      "to": "0x36f586a30502ae3afb555b8aa4dcc05d233c2ece",
      "contractAddress": null
    }
  ],
  "libraries": [],
  "pending": [],
  "returns": {},
  "timestamp": 1749230137,
  "chain": 11155111,
  "commit": "b9f27e7"
}