{
  "transactions": [
    {
      "hash": "0xe3ad4947dc170b75491957fccb5d9fd51cd0364c49f0ea90623d44ec3fcad6f7",
      "transactionType": "CALL",
      "contractName": null,
      "contractAddress": "0xf9647b9af5bc199a58a8d6374c84099c2f313d98",
      "function": "setPeer(uint256,bytes32)",
      "arguments": [
        "998",
        "0x000000000000000000000000f9647b9af5bc199a58a8d6374c84099c2f313d98"
      ],
      "transaction": {
        "from": "0x4a76ce857517ed9ad21efdec6ad6217827660430",
        "to": "0xf9647b9af5bc199a58a8d6374c84099c2f313d98",
        "gas": "0x1009a",
        "value": "0x0",
        "input": "0xbc9e848700000000000000000000000000000000000000000000000000000000000003e6000000000000000000000000f9647b9af5bc199a58a8d6374c84099c2f313d98",
        "nonce": "0x3",
        "chainId": "0xaa36a7"
      },
      "additionalContracts": [],
      "isFixedGasLimit": false
    }
  ],
  "receipts": [
    {
      "status": "0x1",
      "cumulativeGasUsed": "0x1b64978",
      "logs": [
        {
          "address": "0xf9647b9af5bc199a58a8d6374c84099c2f313d98",
          "topics": [
            "0x91d4c3fec14758a2444d9091d55188dabf0093da924e5a6cd831fa01a0547dc7"
          ],
          "data": "0x00000000000000000000000000000000000000000000000000000000000003e6000000000000000000000000f9647b9af5bc199a58a8d6374c84099c2f313d98",
          "blockHash": "0x9cc0b1b0a7f69e060d141e1cb819dbf88984a99e16553bb88a0adc76cbc10bcf",
          "blockNumber": "0x7ec686",
          "blockTimestamp": "0x68216d60",
          "transactionHash": "0xe3ad4947dc170b75491957fccb5d9fd51cd0364c49f0ea90623d44ec3fcad6f7",
          "transactionIndex": "0xee",
          "logIndex": "0x1b9",
          "removed": false
        }
      ],
      "logsBloom": "0x00000000000000000000000000000000000000000000000000000000000000000000000000000000000000000000000000000000000000000000000000000000010000000000000000000000000000000000000000000000000000000000000000000000000000000000000000000040000000000000000000000000000000000000000000000080000000000000000000000000000000000000000000000000000000000000000000000000000000000800000000000000000000000000000000000000000000004400000000000000000000000000000000000000000000000000000000000000000000000000000000000000000000000000000000000000",
      "type": "0x2",
      "transactionHash": "0xe3ad4947dc170b75491957fccb5d9fd51cd0364c49f0ea90623d44ec3fcad6f7",
      "transactionIndex": "0xee",
      "blockHash": "0x9cc0b1b0a7f69e060d141e1cb819dbf88984a99e16553bb88a0adc76cbc10bcf",
      "blockNumber": "0x7ec686",
      "gasUsed": "0xb9c7",
      "effectiveGasPrice": "0xf44f2",
      "from": "0x4a76ce857517ed9ad21efdec6ad6217827660430",
      "to": "0xf9647b9af5bc199a58a8d6374c84099c2f313d98",
      "contractAddress": null
    }
  ],
  "libraries": [],
  "pending": [],
  "returns": {},
  "timestamp": 1747021154,
  "chain": 11155111,
  "commit": "ccebbfa"
}