{
  "transactions": [
    {
      "hash": "0x0dec6dd7046f5863c9b7980c6bf31b155d65d316490987204f5e1a0a219d4511",
      "transactionType": "CALL",
      "contractName": null,
      "contractAddress": "0x51dce104e5ba88fabc19a2c519f955bb834b0dc3",
      "function": "setPeer(uint256,bytes32)",
      "arguments": [
        "1",
        "0x00000000000000000000000051dce104e5ba88fabc19a2c519f955bb834b0dc3"
      ],
      "transaction": {
        "from": "0xf2f1acbe0ba726fee8d75f3e32900526874740bb",
        "to": "0x51dce104e5ba88fabc19a2c519f955bb834b0dc3",
        "gas": "0x100c7",
        "value": "0x0",
        "input": "0xbc9e8487000000000000000000000000000000000000000000000000000000000000000100000000000000000000000051dce104e5ba88fabc19a2c519f955bb834b0dc3",
        "nonce": "0xc",
        "chainId": "0x3e7"
      },
      "additionalContracts": [],
      "isFixedGasLimit": false
    },
    {
      "hash": "0xa157479a2e0455f0e5fe246b2305cd2a7b7e31504a0a801abb4f21010e02904f",
      "transactionType": "CALL",
      "contractName": null,
      "contractAddress": "0x36f586a30502ae3afb555b8aa4dcc05d233c2ece",
      "function": "setDestinationMToken(uint256,address)",
      "arguments": [
        "1",
        "0x866A2BF4E572CbcF37D5071A7a58503Bfb36be1b"
      ],
      "transaction": {
        "from": "0xf2f1acbe0ba726fee8d75f3e32900526874740bb",
        "to": "0x36f586a30502ae3afb555b8aa4dcc05d233c2ece",
        "gas": "0x11ce7",
        "value": "0x0",
        "input": "0xe80f94cf0000000000000000000000000000000000000000000000000000000000000001000000000000000000000000866a2bf4e572cbcf37d5071a7a58503bfb36be1b",
        "nonce": "0xd",
        "chainId": "0x3e7"
      },
      "additionalContracts": [],
      "isFixedGasLimit": false
    },
    {
      "hash": "0x74e18ce34d53c14446bd1fe31c3cc9e7301f6b515c0db6408f115086dfefc396",
      "transactionType": "CALL",
      "contractName": null,
      "contractAddress": "0x36f586a30502ae3afb555b8aa4dcc05d233c2ece",
      "function": "setPayloadGasLimit(uint256,uint8,uint256)",
      "arguments": [
        "1",
        "0",
        "100000"
      ],
      "transaction": {
        "from": "0xf2f1acbe0ba726fee8d75f3e32900526874740bb",
        "to": "0x36f586a30502ae3afb555b8aa4dcc05d233c2ece",
        "gas": "0x11ec8",
        "value": "0x0",
        "input": "0x515c49460000000000000000000000000000000000000000000000000000000000000001000000000000000000000000000000000000000000000000000000000000000000000000000000000000000000000000000000000000000000000000000186a0",
        "nonce": "0xe",
        "chainId": "0x3e7"
      },
      "additionalContracts": [],
      "isFixedGasLimit": false
    },
    {
      "hash": "0x396507e795fe4d37479a9e6f7a6fd97b738fec07e7f01b24b1a087b8608c336d",
      "transactionType": "CALL",
      "contractName": null,
      "contractAddress": "0x36f586a30502ae3afb555b8aa4dcc05d233c2ece",
      "function": "setSupportedBridgingPath(address,uint256,address,bool)",
      "arguments": [
        "0x866A2BF4E572CbcF37D5071A7a58503Bfb36be1b",
        "1",
        "0x866A2BF4E572CbcF37D5071A7a58503Bfb36be1b",
        "true"
      ],
      "transaction": {
        "from": "0xf2f1acbe0ba726fee8d75f3e32900526874740bb",
        "to": "0x36f586a30502ae3afb555b8aa4dcc05d233c2ece",
        "gas": "0x125c2",
        "value": "0x0",
        "input": "0xb3c2c214000000000000000000000000866a2bf4e572cbcf37d5071a7a58503bfb36be1b0000000000000000000000000000000000000000000000000000000000000001000000000000000000000000866a2bf4e572cbcf37d5071a7a58503bfb36be1b0000000000000000000000000000000000000000000000000000000000000001",
        "nonce": "0xf",
        "chainId": "0x3e7"
      },
      "additionalContracts": [],
      "isFixedGasLimit": false
    }
  ],
  "receipts": [
    {
      "status": "0x1",
      "cumulativeGasUsed": "0x236c1",
      "logs": [
        {
          "address": "0x51dce104e5ba88fabc19a2c519f955bb834b0dc3",
          "topics": [
            "0x91d4c3fec14758a2444d9091d55188dabf0093da924e5a6cd831fa01a0547dc7"
          ],
          "data": "0x000000000000000000000000000000000000000000000000000000000000000100000000000000000000000051dce104e5ba88fabc19a2c519f955bb834b0dc3",
          "blockHash": "0xa461b6b61359eecfc245a93ffd142d737243198f12745d3b66b87aadf5b5b57b",
          "blockNumber": "0x3ef9ca",
          "blockTimestamp": "0x682dea70",
          "transactionHash": "0x0dec6dd7046f5863c9b7980c6bf31b155d65d316490987204f5e1a0a219d4511",
          "transactionIndex": "0x3",
          "logIndex": "0x3",
          "removed": false
        }
      ],
      "logsBloom": "0x00000000000000000000000000000000000000000000000000000000000000000000000000000000000000000000000000020000000000000000000000000000010000000000000000000000000000000000000000000000000000000000000000000000000000000000000000000000000010000000000000000000000000000000000000000000000000000000000000000000000000000000000000000000000000000000000000000000000000000800000000000000000000000000000000000000000000004000000000000000000000000000000000000000000000000000000000000000000000000000000000000002000000000000000000000000",
      "type": "0x2",
      "transactionHash": "0x0dec6dd7046f5863c9b7980c6bf31b155d65d316490987204f5e1a0a219d4511",
      "transactionIndex": "0x3",
      "blockHash": "0xa461b6b61359eecfc245a93ffd142d737243198f12745d3b66b87aadf5b5b57b",
      "blockNumber": "0x3ef9ca",
      "gasUsed": "0xb9e8",
      "effectiveGasPrice": "0x1d319294",
      "from": "0xf2f1acbe0ba726fee8d75f3e32900526874740bb",
      "to": "0x51dce104e5ba88fabc19a2c519f955bb834b0dc3",
      "contractAddress": null
    },
    {
      "status": "0x1",
      "cumulativeGasUsed": "0x12ed3",
      "logs": [
        {
          "address": "0x36f586a30502ae3afb555b8aa4dcc05d233c2ece",
          "topics": [
            "0xe1f5ca8210e2b8950e4626ed9e65573e6a90daf4c4f5d098ad4b7665a08992cb",
            "0x0000000000000000000000000000000000000000000000000000000000000001"
          ],
          "data": "0x000000000000000000000000866a2bf4e572cbcf37d5071a7a58503bfb36be1b",
          "blockHash": "0x53f62a93792fb7951a3148d71315381da71dd64160293034adeea0f2262e058a",
          "blockNumber": "0x3ef9e9",
          "blockTimestamp": "0x682deaac",
          "transactionHash": "0xa157479a2e0455f0e5fe246b2305cd2a7b7e31504a0a801abb4f21010e02904f",
          "transactionIndex": "0x1",
          "logIndex": "0x1",
          "removed": false
        }
      ],
      "logsBloom": "0x00000000000000000000000000000000000000000000000000000000000000000000000000000000000000000000000000000000000000000000000000040000000020000000000000000000000000000000000000040000001000000000000000000000000000000000000000000000000000000000000000000000000000000000000000000000000000000000000000000000000000000000000080000000000000000000000000000000000000000000000200000000000000000000000000000000000000000000000000000000000020000000000000000000000040000000000000000000000000000000000000000000000000000000000004000000",
      "type": "0x2",
      "transactionHash": "0xa157479a2e0455f0e5fe246b2305cd2a7b7e31504a0a801abb4f21010e02904f",
      "transactionIndex": "0x1",
      "blockHash": "0x53f62a93792fb7951a3148d71315381da71dd64160293034adeea0f2262e058a",
      "blockNumber": "0x3ef9e9",
      "gasUsed": "0xce44",
      "effectiveGasPrice": "0x1d319294",
      "from": "0xf2f1acbe0ba726fee8d75f3e32900526874740bb",
      "to": "0x36f586a30502ae3afb555b8aa4dcc05d233c2ece",
      "contractAddress": null
    },
    {
      "status": "0x1",
      "cumulativeGasUsed": "0x2e0616",
      "logs": [
        {
          "address": "0x36f586a30502ae3afb555b8aa4dcc05d233c2ece",
          "topics": [
            "0x1a5992a751b521ef246a1a59ba188f21a01ef4df77a46061eacc5604768157e2",
            "0x0000000000000000000000000000000000000000000000000000000000000001",
            "0x0000000000000000000000000000000000000000000000000000000000000000"
          ],
          "data": "0x00000000000000000000000000000000000000000000000000000000000186a0",
          "blockHash": "0xafbfe1c0e2f7549d1ad4961eab8d0aec3d8242501bfd6d404bc9fe847f9e3304",
          "blockNumber": "0x3efa08",
          "blockTimestamp": "0x682deae8",
          "transactionHash": "0x74e18ce34d53c14446bd1fe31c3cc9e7301f6b515c0db6408f115086dfefc396",
          "transactionIndex": "0x3",
          "logIndex": "0x1b",
          "removed": false
        }
      ],
      "logsBloom": "0x00000000000000000000000000100000000000000000000000000000000000000000000000000000000000000000000000000000000000000000000000040000000000000000000000000000000000000000000000040000001000000000000000000000020000000000000000000800000000000000000000000000000000010000000000000000000000000000000000000000000000000000000080000000000000000000000000000400000000000000000200000000000000000000000000000000000000000000000000000000000000000000000000000000000060000000000000000000000000000000000000000000000000000000000000000000",
      "type": "0x2",
      "transactionHash": "0x74e18ce34d53c14446bd1fe31c3cc9e7301f6b515c0db6408f115086dfefc396",
      "transactionIndex": "0x3",
      "blockHash": "0xafbfe1c0e2f7549d1ad4961eab8d0aec3d8242501bfd6d404bc9fe847f9e3304",
      "blockNumber": "0x3efa08",
      "gasUsed": "0xcfa0",
      "effectiveGasPrice": "0x1d319294",
      "from": "0xf2f1acbe0ba726fee8d75f3e32900526874740bb",
      "to": "0x36f586a30502ae3afb555b8aa4dcc05d233c2ece",
      "contractAddress": null
    },
    {
      "status": "0x1",
      "cumulativeGasUsed": "0xd4ae",
      "logs": [
        {
          "address": "0x36f586a30502ae3afb555b8aa4dcc05d233c2ece",
          "topics": [
            "0xb30eec013773a40f5bfc408b77c3eb479af144a816a0250387480ba905a06f95",
            "0x000000000000000000000000866a2bf4e572cbcf37d5071a7a58503bfb36be1b",
            "0x0000000000000000000000000000000000000000000000000000000000000001",
            "0x000000000000000000000000866a2bf4e572cbcf37d5071a7a58503bfb36be1b"
          ],
          "data": "0x0000000000000000000000000000000000000000000000000000000000000001",
          "blockHash": "0xde03562ae75fd554bb04263cb9c0e17c9fe50ff69ed183854488a3f4171b94c1",
          "blockNumber": "0x3efa27",
          "blockTimestamp": "0x682deb24",
          "transactionHash": "0x396507e795fe4d37479a9e6f7a6fd97b738fec07e7f01b24b1a087b8608c336d",
          "transactionIndex": "0x0",
          "logIndex": "0x0",
          "removed": false
        }
      ],
      "logsBloom": "0x00000000000000000000000000000000000000000000000000000000000000000000000000000000000000000000000000000000000000000000000000040000000000000000000000000000000000000000000000040000001000000000000000000000000000000000000000000000000000000000000100000000000000000000000000000000000000000040000000000000000000000000000080000000000000000000000000000000400000000000000200000000000000000000000000080000000400000000000000000000000000000000000000000000000040000000000000000000000000000000000000000000000000000000000000000010",
      "type": "0x2",
      "transactionHash": "0x396507e795fe4d37479a9e6f7a6fd97b738fec07e7f01b24b1a087b8608c336d",
      "transactionIndex": "0x0",
      "blockHash": "0xde03562ae75fd554bb04263cb9c0e17c9fe50ff69ed183854488a3f4171b94c1",
      "blockNumber": "0x3efa27",
      "gasUsed": "0xd4ae",
      "effectiveGasPrice": "0x1d319294",
      "from": "0xf2f1acbe0ba726fee8d75f3e32900526874740bb",
      "to": "0x36f586a30502ae3afb555b8aa4dcc05d233c2ece",
      "contractAddress": null
    }
  ],
  "libraries": [],
  "pending": [],
  "returns": {},
  "timestamp": 1747839781,
  "chain": 999,
  "commit": "055be1a"
}